:200000000C942A010C9452010C9452010C9452010C9452010C9452010C9452010C94520170
:200020000C9452010C9452010C9452010C9452010C9452010C9452010C9452010C94520128
:200040000C94CE060C9452010C949C060C9476060C9452010C9452010C9452010C9452010F
:200060000C9452010C94520150415F48494748004C415F4D45440050415F4C4F5700504155
:200080005F4D494E0031362062697473003820626974730044697361626C6564006E5246BC
:2000A00032344C30312B006E524632344C3031003235304B42505300324D42505300314D40
:2000C00042505300000000080002010000030407000000000000000053544154555309092C
:2000E000203D203078253032782052585F44523D25782054585F44533D2578204D41585F42
:2001000052543D25782052585F505F4E4F3D25782054585F46554C4C3D25780D0A00504130
:2001200020506F77657209203D2025530D0A007E00770070006800435243204C656E6774BE
:200140006809203D2025530D0A0094008D0085004D6F64656C0909203D2025530D0A00A7C6
:20016000009D0044617461205261746509203D2025530D0A00BE00B800B00044594E504402
:200180002F4645415455524500434F4E4649470052465F53455455500052465F434800451F
:2001A0004E5F52584144445200454E5F41410052585F50575F50302D360054585F41444493
:2001C000520052585F414444525F50322D350052585F414444525F50302D31000000000005
:2001E000250028002B0000000000240027002A0004040404040404040202020202020303E0
:20020000030303030102040810204080010204081020010204081020000102030405111223
:20022000131415160A0B0C0D0E0F0D0A002530327800203078002553092563203D000D0AC6
:200240000020307825303278002553092563203D0000180711241FBECFEFD8E0DEBFCDBFA1
:2002600012E0A0E0B1E0E6E5FFE102C005900D92A63AB107D9F723E0A6EAB2E001C01D92DD
:20028000A736B207E1F711E0CAE2D1E004C02197FE010E94800FC932D107C9F70E945A0760
:2002A0000C94A90F0C94000090E0FC01EC5FFD4F2491FC01E051FE4F8491882399F090E059
:2002C000880F991FFC01EA51FE4FA591B491FC01E452FE4F859194918FB7F894EC91E22BB8
:2002E000EC938FBF0895CF92DF92EF92FF920F931F93CF93DF936C017A018B01C0E0D0E0C4
:20030000CE15DF0589F0D8016D918D01D601ED91FC910190F081E02DC6010995892B11F429
:200320007E0102C02196ECCFC701DF91CF911F910F91FF90EF90DF90CF900895089580E0AC
:2003400090E00895FC01538D448D252F30E0842F90E0821B930B541710F0CF96089501971B
:200360000895FC01918D828D981761F0828DDF01A80FB11D5D968C91928D9F5F9F73928FE2
:2003800090E008958FEF9FEF0895FC01918D828D981731F0828DE80FF11D858D90E008957A
:2003A0008FEF9FEF0895FC01918D228D892F90E0805C9F4F821B91098F739927089580EBD7
:2003C00092E00E94D30121E0892B09F420E0822F0895FC01848DDF01A80FB11DA35ABF4FB7
:2003E0002C91848D90E001968F739927848FA689B7892C93A089B1898C9180648C93938D82
:20040000848D981306C00288F389E02D80818F7D80830895EF92FF920F931F93CF93DF9360
:20042000EC0181E0888F9B8D8C8D981305C0E889F989808185FD24C0F62E0B8D10E00F5F32
:200440001F4F0F731127E02E8C8DE8120CC00FB607FCFACFE889F989808185FFF5CFCE01EB
:200460000E94E901F1CF8B8DFE01E80FF11DE35AFF4FF0820B8FEA89FB898081806207C0DC
:20048000EE89FF896083E889F98980818064808381E090E0DF91CF911F910F91FF90EF90A0
:2004A0000895CF93DF93EC01888D8823C9F0EA89FB89808185FD05C0A889B9898C9186FD13
:2004C0000FC00FB607FCF5CF808185FFF2CFA889B9898C9185FFEDCFCE010E94E901E7CF9A
:2004E000DF91CF91089580E090E0892B29F00E94DF0181110C940000089590E0FC01EC53F5
:20050000FF4F3491FC01EC5FFD4F2491FC01E051FE4FE491EE2309F43BC0332339F13330A3
:2005200091F038F43130A9F0323001F584B58F7D12C0373091F03830A1F03430B9F48091A2
:2005400080008F7D03C0809180008F77809380000DC084B58F7784BD09C08091B0008F7745
:2005600003C08091B0008F7D8093B000F0E0EE0FFF1FE452FE4FA591B4918FB7F894EC91F0
:20058000611103C020952E2301C02E2B2C938FBF08953FB7F8948091AB029091AC02A0911C
:2005A000AD02B091AE0226B5A89B05C02F3F19F00196A11DB11D3FBFBA2FA92F982F8827E9
:2005C000820F911DA11DB11DBC01CD0143E0660F771F881F991F4A95D1F708958F929F92A2
:2005E000AF92BF92CF92DF92EF92FF926B017C010E94C9024B015C01C114D104E104F10402
:20060000F1F00E94C902DC01CB0188199909AA09BB09883E9340A105B10570F321E0C21AF4
:20062000D108E108F10888EE880E83E0981EA11CB11CC114D104E104F10419F7DDCFFF9081
:20064000EF90DF90CF90BF90AF909F908F9008952FB7F8946091A7027091A8028091A90261
:200660009091AA022FBF08958EBD00000DB407FEFDCF8EB50895CF93C82F682F80EB92E098
:200680000E940A028C2FCC0F990BCF9108959CB59F7D9CBD9CB5937F9CBD9CB59C7F9CBD2E
:2006A0009DB59E7F9DBD682F80914E030C947D02CF93C82F80E090E00E9447038C2F8F7189
:2006C0000E9434038FEF0E943403C82F81E090E00E9447038C2FCF910895EF92FF920F93CA
:2006E0001F93CF93DF9300D0CDB7DEB7082F162F80E090E049837A830E944703802F8F71DB
:200700000E943403082FE12E7A81F72E4981140F1E1539F08FEF0E943403F70181937F016E
:20072000F7CF81E090E00E944703802F0F900F90DF91CF911F910F91FF90EF900895CF931C
:2007400080E090E00E94470381EE0E943403C82F81E090E00E9447038C2FCF910895CF93C7
:2007600080E090E00E94470382EE0E943403C82F81E090E00E9447038C2FCF91089560E0C8
:2007800080914D030E947D020E949F030C94AF03EF92FF920F931F93CF93DF9300D0CDB7B3
:2007A000DEB7082F162F80E090E049837A830E944703802F8F7180620E943403082FE12EF3
:2007C0007A81F72E4981140F1E1531F0F70181917F010E943403F8CF81E090E00E944703D1
:2007E000802F0F900F90DF91CF911F910F91FF90EF9008951F93CF93DF931F92CDB7DEB7F1
:20080000182F80E090E069830E944703812F8F7180620E943403182F6981862F0E943403BF
:2008200081E090E00E944703812F0F90DF91CF911F91089580E00E945803682F636080E078
:200840000E94FA0360E787E00E94FA032091550330915603409157035091580360915903D5
:2008600070915A0380915B0390915C03A0E00E94740F31F045E065E573E08AE00E94C803CC
:200880000E94AF030E949F0361E080914D030E947D0280E091E00197F1F70895CF93DF933B
:2008A000CDB7DEB728970FB6F894DEBF0FBECDBF29833A834B835C836D837E838F839887E1
:2008C00045E0BE016F5F7F4F8AE00E94C80345E0BE016F5F7F4F80E10E94C803609151032E
:2008E000613208F060E281E10E94FA0328960FB6F894DEBF0FBECDBFDF91CF910895CF9257
:20090000DF92EF92FF920F931F93CF93DF931F92CDB7DEB76C0180E00E9458038C7F682FF6
:20092000626080E00E94FA03E8E2F1E03197F1F710915103012F153008F004E080915303FE
:20094000811102C0101B01C010E080E090E00E94470380EA0E9434037601015030F0F70188
:2009600081917F010E943403F8CF112329F080E00E9434031150F9CF81E090E00E944703D9
:2009800061E080914D030E947D028AE190E00197F1F760E080914D030E947D020E942803AA
:2009A0006B017C0141E0BE016F5F7F4F88E00E946D03807369F40E942803DC01CB018C19ED
:2009C0009D09AE09BF09843F9140A105B10550F360E787E00E94FA03182F86FB882780F982
:2009E00080935203882389F080E090E00E94470380E60E9434038FEF0E943403082F81E081
:200A000090E00E9447030093540380E00E945803682F6D7F80E00E94FA030E949F0315FB5D
:200A2000882780F90F90DF91CF911F910F91FF90EF90DF90CF900895DF92EF92FF920F9331
:200A40001F93CF93DF93D82EE92EC0915103DC2FC53008F0D4E080915303811102C0CD1BFF
:200A600001C0C0E080E090E00E94470381E60E943403F82E0D2D1E2DD15038F08FEF0E9405
:200A80003403F80181938F01F7CFCC2329F08FEF0E943403C150F9CF81E090E00E944703C7
:200AA0008F2DDF91CF911F910F91FF90EF90DF900895CF93DF9380E090E00E9447038FEF32
:200AC0000E943403C82F81E090E00E944703C6FBDD27D0F9C6FF0AC060E487E00E94FA0322
:200AE000C5FF04C060E287E00E94FA038D2FDF91CF910895CF93DF93CDB7DEB728970FB68C
:200B0000F894DEBF0FBECDBF29833A834B835C836D837E838F839887E5E2F2E0849145E048
:200B2000BE016F5F7F4F0E94C803EFE1F2E08491609151030E94FA0382E00E945803E9E129
:200B4000F2E0E49161E070E001C0660FEA95EAF7682B82E00E94FA0328960FB6F894DEBFE7
:200B60000FBECDBFDF91CF910895FF920F931F93CF93DF93182F092FC62FD42F0E94F50ADE
:200B8000089710F080E001C089E01F928F930F931F9389E492E09F938F930E94490BDC0FF1
:200BA0000F900F900F900F900F900F9001E412E0CD1791F0FF24F394FC0E8C2F0E945803D3
:200BC0001F928F931F930F930E94490B0F900F900F900F90CF2DECCF8EE392E09F938F938E
:200BE0000E94490B0F900F90DF91CF911F910F91FF9008957F928F929F92AF92BF92CF921F
:200C0000DF92EF92FF920F931F93CF93DF9300D000D01F92CDB7DEB7F82EE92E162F042F0A
:200C20000E94F50A089710F080E001C089E01F928F93EF92FF9286E392E09F938F930E9434
:200C4000490B010F0F900F900F900F900F900F90CE0101966C0182E3A82E82E0B82E9DE2A1
:200C6000892E92E0992E101721F177247394710E45E0B601812F0E946D03BF92AF920E9458
:200C8000490BFE0136967F010F900F90EC14FD0471F0F70182917F011F928F939F928F9265
:200CA0000E94490B0F900F900F900F90EFCF172DDACF8AE292E09F938F930E94490B0F9050
:200CC0000F900F900F900F900F900F90DF91CF911F910F91FF90EF90DF90CF90BF90AF90D0
:200CE0009F908F907F9008950E94860F1F920F920FB60F9211242F933F934F935F936F936C
:200D00007F938F939F93AF93BF93EF93FF9380EB92E00E94E901FF91EF91BF91AF919F918C
:200D20008F917F916F915F914F913F912F910F900FBE0F901F9018951F920F920FB60F9204
:200D400011242F938F939F93EF93FF93E091C002F091C1028081E091C602F091C70282FDBA
:200D600012C090818091C9028F5F8F732091CA02821751F0E091C902F0E0E055FD4F958FBC
:200D80008093C90201C08081FF91EF919F918F912F910F900FBE0F901F9018951F920F92DA
:200DA0000FB60F9211242F933F938F939F93AF93BF938091A7029091A802A091A902B0917A
:200DC000AA023091A60226E0230F2D3720F40296A11DB11D05C029E8230F0396A11DB11DFD
:200DE0002093A6028093A7029093A802A093A902B093AA028091AB029091AC02A091AD02D5
:200E0000B091AE020196A11DB11D8093AB029093AC02A093AD02B093AE02BF91AF919F9198
:200E20008F913F912F910F900FBE0F901F901895E0EBF2E01382128288EE93E0A0E0B0E0DC
:200E400084839583A683B78382E191E09183808385EC90E09587848784EC90E09787868712
:200E600080EC90E0918B808B81EC90E0938B828B82EC90E0958B848B86EC90E0978B868B45
:200E8000118E128E138E148EEDE4F3E087E080838AE0818381E08283138280E28483158259
:200EA0001682108611861286138614861586168617860895CF93DF93CDB7DEB729970FB6BF
:200EC000F894DEBF0FBECDBF789484B5826084BD84B5816084BD85B5826085BD85B5816054
:200EE00085BD80916E00816080936E00109281008091810082608093810080918100816031
:200F000080938100809180008160809380008091B10084608093B1008091B0008160809319
:200F2000B00080917A00846080937A0080917A00826080937A0080917A008E7F80937A00E6
:200F400080917A00806880937A001092C10089E00E945401E091C002F091C10282E08083F2
:200F6000E091BC02F091BD021082E091BE02F091BF0280E180831092C802E091C402F09175
:200F8000C50286E08083E091C202F091C302808180618083E091C202F091C302808188605D
:200FA0008083E091C202F091C302808180688083E091C202F091C30280818F7D808360E0FC
:200FC00070E08BE393E00E94FE0A80E291E09F938F930E94930FE0910001F0910101EE0FD9
:200FE000FF1FE85FFE4F81818F9380818F9382E491E09F938F930E94930F8DE491E09F9375
:201000008F930E94930F80914D030E94540180914E030E9454011FB7F8940FB6F894DEBF69
:201020000FBECDBF8091AF02811124C0EAEFF1E08491EEE0F2E09491E82FF0E0EE0FFF1F99
:20104000EA51FE4FA591B491EC91E92321F461E08AE00E947D028AE00E9454018CB58061A0
:201060008CBD8CB580648CBD8DE00E9454018BE00E9454018091AF028F5F8093AF021FBFA1
:2010800060E080914D030E947D0281E090E00E94470365E070E080E090E00E94EE026FE487
:2010A00084E00E94FA0386E00E945803682F666086E00E94FA0386E00E94580310924F0311
:2010C000877D182F1062612F86E00E94FA0386E00E945803811709F474C210924F0386E036
:2010E0000E94580310924F03182F177D612F86E00E94FA0386E00E945803811310924F03A4
:2011000080E00E945803682F6C6080E00E94FA0360E08CE10E94FA0360E787E00E94FA0377
:201120006CE485E00E94FA030E94AF030E949F036FEF84E00E94FA0388E080935103809182
:20114000000190910101019761F421EE30EF40EF50EF60EF70E080E090E00E944E0422ED70
:201160000BC022ED30EF40EF50EF60EF70E080E090E00E944E0421EE30EF40EF50EF60EFBA
:2011800070E080E090E00E947A050E941A0480E090E00E9447038FEF0E943403182F81E093
:2011A00090E00E944703812F90E0212F21701F922F9395958795877099279F938F9314FBFF
:2011C000882780F91F928F9315FB882780F91F928F9316FB882780F91F928F931F921F939A
:2011E00088ED90E09F938F930E94490B42E06AE08FEC91E00E94FA0544E06CE082EC91E078
:201200000E94B50541E060E18AEB91E00E94FA0546E061E18FEA91E00E94B50541E061E079
:2012200089EA91E00E94B50541E062E08FE991E00E94B50541E065E089E991E00E94B50521
:2012400041E066E080E991E00E94B50541E060E089E891E00E94B50542E06CE18BE791E000
:201260000E94B50586E00E94580388720FB6F894DEBF0FBECDBF803241F021E090E0883062
:2012800009F020E0E22FF92F02C0E2E0F0E0EE0FFF1FEB58FE4F859194919F938F9383E625
:2012A00091E09F938F930E94490BE0915003F0E0EE0FFF1FE15AFE4F859194919F938F93AD
:2012C00080E591E09F938F930E94490B80E00E9458030FB6F894DEBF0FBECDBF83FF05C003
:2012E00082FD06C0E1E0F0E005C0E0E0F0E002C0E2E0F0E0EE0FFF1FE65BFE4F859194918B
:201300009F938F9387E391E09F938F930E94490B86E00E94580386700F900F900F900F907F
:20132000863051F0843059F021E090E0823009F020E0E22FF92F05C0E3E0F0E002C0E2E088
:20134000F0E0EE0FFF1FE15DFE4F859194919F938F938EE191E09F938F930E94490B0F90BF
:201360000F900F900F9098E9692E91E0792E00EF11E023E0E22E22E0F22E30E5C32E32E033
:20138000D32E42E0842E912C54E1A52E52E0B52E61E089E00E947D0268EC70E080E090E05F
:2013A0000E94EE0260E089E00E947D0268EC70E080E090E00E94EE02809100019091010196
:2013C000019709F070C00E94BF030E9428036D837E838F8398879F938F937F936F93A5E804
:2013E000B1E0BF93AF930E94930FCE0105960E947F040F900F900F900F900F900F90882390
:2014000019F07F926F9204C0AEE9B1E0BF93AF930E94930F0F900F900E941A040E94280322
:201420001B012C0190E099870E945905998581110CC0992309F4C9C0A8EAB1E0BF93AF935E
:201440000E94930F0F900F9028C09111F5CFCE0101960E941C0587E10E9458030E94280361
:2014600029813A814B815C81DC01CB01821B930BA40BB50BBF93AF939F938F935F934F934F
:201480003F932F93A6ECB1E0BF93AF930E94930F0FB6F894DEBF0FBECDBF64EF71E080E072
:2014A00090E00E94EE0280910001909101010297A1F50E945905882381F1CE0101960E94A1
:2014C0001C0587E10E945803582E8C818F938B818F938A818F9389818F931F930F930E9454
:2014E000930F64E170E080E090E00E94EE020F900F900F900F900F900F9050FEDECF0E94FC
:20150000BF03CE0101960E947F04FF92EF920E94930F0E941A040F900F9080EB92E00E94AB
:20152000D301892B09F44AC080EB92E00E94B1010E948B0F8435E1F48091000190910101EC
:201540000297E1F5BF92AF920E94930F81E090E0909301018093000121EE30EF40EF50EFA0
:2015600060EF70E080E090E00E944E0422ED1BC0823521F580910001909101010197F1F49F
:20158000DF92CF920E94930F909201018092000122ED30EF40EF50EF60EF70E080E090E0F3
:2015A0000E944E0421EE30EF40EF50EF60EF70E080E090E00E947A050F900F900E947302B6
:2015C000E7CE81E0809350038ACD0E942803AB01BC01421953096409750991E0493C510514
:2015E0006105710508F01FCF1DCFFC0105900020E9F7809590958E0F9F1F08950F931F9325
:20160000CF93DF93009731F46115710519F480E090E03AC08B01EC016EE070E081E090E08F
:201620000E94410DFC01892B91F380E883830115110571F01387028781E8838380915D0387
:2016400090915E03892B21F4F0935E03E0935D032097C9F0D187C08783818260838380917C
:201660005F0390916003892B71F4F0936003E0935F038091610390916203892B21F4F09369
:201680006203E0936103CF01DF91CF911F910F910895A0E0B0E0EFE4FBE00C944B0FAE011A
:2016A000495F5F4FDA016D917D91AD010DE513E0F80182819381DC0113962C9113972860D5
:2016C00013962C930E946F0BD8011296ED91FC9113972381277F2383E4E00C94670FACE0FA
:2016E000B0E0E5E7FBE00C943D0F7C016B018A01FC0117821682838181FFBDC1CE010196BD
:201700004C01F7019381F60193FD859193FF81916F01882309F4ABC1853239F493FD859121
:2017200093FF81916F01853229F4B70190E00E94A70EE7CF512C312C20E02032A0F48B320F
:2017400069F030F4803259F0833269F420612CC08D3239F0803339F4216026C0226024605D
:2017600023C0286021C027FD27C030ED380F3A3078F426FF06C0FAE05F9E300D1124532E23
:2017800013C08AE0389E300D1124332E20620CC08E3221F426FD6BC1206406C08C3611F4E0
:2017A000206802C0883641F4F60193FD859193FF81916F018111C1CF982F9F7D955493308A
:2017C00028F40C5F1F4FFFE3F9830DC0833631F0833771F0833509F05BC022C0F80180814C
:2017E00089830E5F1F4F44244394512C540115C03801F2E06F0E711CF801A080B18026FF98
:2018000003C0652D70E002C06FEF7FEFC5012C870E949C0E2C0183012C852F77222E17C0A1
:201820003801F2E06F0E711CF801A080B18026FF03C0652D70E002C06FEF7FEFC5012C8778
:201840000E948A0E2C012C852068222E830123FC1BC0832D90E048165906B0F4B70180E27F
:2018600090E00E94A70E3A94F4CFF50127FC859127FE81915F01B70190E00E94A70E31108A
:201880003A94F1E04F1A51084114510471F7E5C0843611F0893639F5F80127FF07C06081C1
:2018A0007181828193810C5F1F4F08C060817181072E000C880B990B0E5F1F4F2F76722E13
:2018C00097FF09C090958095709561957F4F8F4F9F4F2068722E2AE030E0A4010E94DF0E64
:2018E000A82EA81844C0853729F42F7EB22E2AE030E025C0F22FF97FBF2E8F36C1F018F4E1
:20190000883579F0B4C0803719F0883721F0AFC02F2F2061B22EB4FE0DC08B2D8460B82E6E
:2019200009C024FF0AC09F2F9660B92E06C028E030E005C020E130E002C020E132E0F801C4
:20194000B7FE07C060817181828193810C5F1F4F06C06081718180E090E00E5F1F4FA4015F
:201960000E94DF0EA82EA818FB2DFF777F2E76FE0BC0372D3E7FA51450F474FE0AC072FCF0
:2019800008C0372D3E7E05C0BA2C372D03C0BA2C01C0B52C34FF0DC0FE01EA0DF11D808100
:2019A000803311F4397E09C032FF06C0B394B39404C0832F867809F0B39433FD13C030FF84
:2019C00006C05A2CB31418F4530C5B18B32CB31468F4B70180E290E03C870E94A70EB39429
:2019E0003C85F5CFB31410F43B1801C0312C34FF12C0B70180E390E03C870E94A70E3C85BB
:201A000032FF17C031FD03C088E790E002C088E590E0B7010CC0832F867859F031FF02C0E0
:201A20008BE201C080E237FD8DE2B70190E00E94A70EA51438F4B70180E390E00E94A70E2D
:201A40005A94F7CFAA94F401EA0DF11D8081B70190E00E94A70EA110F5CF332009F451CE36
:201A6000B70180E290E00E94A70E3A94F6CFF7018681978102C08FEF9FEF2C96E2E10C94E8
:201A8000590F0F931F93CF93DF93869F8001879F100D969F100D1124C8010E945D0DEC0184
:201AA000009729F0A80160E070E00E94950ECE01DF91CF911F910F910895CF93DF938230E6
:201AC000910510F482E090E0E0916503F091660320E030E0C0E0D0E0309711F1408151811B
:201AE00048175907C0F04817590761F482819381209719F09B838A832BC0909366038093D7
:201B0000650326C02115310519F04217530718F49A01BE01DF01EF010280F381E02DDCCF6B
:201B20002115310509F1281B390B2430310590F412968D919C9113976115710521F0FB0114
:201B40009383828304C09093660380936503FD01329644C0FD01E20FF31F8193919322502A
:201B600031092D933C933AC02091630330916403232B41F420910401309105013093640339
:201B80002093630320910201309103012115310541F42DB73EB74091060150910701241B39
:201BA000350BE0916303F0916403E217F307A0F42E1B3F0B2817390778F0AC014E5F5F4F1D
:201BC0002417350748F04E0F5F1F50936403409363038193919302C0E0E0F0E0CF01DF912E
:201BE000CF9108950F931F93CF93DF93009709F48CC0FC0132971382128200916503109157
:201C000066030115110581F420813181820F931F20916303309164032817390779F5F09375
:201C20006403E093630371C0D80140E050E0AE17BF0750F412962D913C911397AD0121157A
:201C4000310509F1D901F3CF9D01DA013383228360817181860F971F8217930769F4EC0149
:201C600028813981260F371F2E5F3F4F318320838A819B8193838283452B29F4F093660349
:201C8000E093650342C01396FC93EE931297ED01499159919E01240F351FE217F30771F4D5
:201CA00080819181840F951F029611969C938E938281938113969C938E931297E0E0F0E0F2
:201CC000D80112968D919C911397009719F0F8018C01F6CF8D919C9198012E5F3F4F820F13
:201CE000931F20916303309164032817390769F4309729F4109266031092650302C01382C7
:201D000012821093640300936303DF91CF911F910F910895FC010590615070400110D8F79C
:201D2000809590958E0F9F1F0895DC0101C06D9341505040E0F70895FC016150704001904F
:201D40000110D8F7809590958E0F9F1F08950F931F93CF93DF93FB01238121FD03C08FEF4A
:201D60009FEF28C022FF16C046815781248135814217530744F4A081B1819D012F5F3F4F04
:201D8000318320838C93268137812F5F3F4F3783268310C0EB01092F182F0084F185E02DAD
:201DA0000995892BE1F68E819F8101969F838E83812F902FDF91CF911F910F910895FA01DA
:201DC000AA27283051F1203181F1E8946F936E7F6E5F7F4F8F4F9F4FAF4FB1E03ED0B4E0D2
:201DE0003CD0670F781F891F9A1FA11D680F791F8A1F911DA11D6A0F711D811D911DA11D76
:201E000020D009F468943F912AE0269F11243019305D3193DEF6CF010895462F4770405D61
:201E20004193B3E00FD0C9F7F6CF462F4F70405D4A3318F0495D31FD4052419302D0A9F7D5
:201E4000EACFB4E0A6959795879577956795BA95C9F700976105710508959B01AC010A2E0A
:201E600006945795479537952795BA95C9F7620F731F841F951FA01D08952F923F924F9242
:201E80005F926F927F928F929F92AF92BF92CF92DF92EF92FF920F931F93CF93DF93CDB7CB
:201EA000DEB7CA1BDB0B0FB6F894DEBF0FBECDBF09942A88398848885F846E847D848C84B5
:201EC0009B84AA84B984C884DF80EE80FD800C811B81AA81B981CE0FD11D0FB6F894DEBF9B
:201EE0000FBECDBFED0108950024A7FD00942A173005400550056005700580059005089501
:201F0000EE0FFF1F0590F491E02D099481E090E0F8940C94A90F9111089581568A5108F440
:201F2000805285580895A0E0B0E0E9E9FFE00C944D0FAE014B5F5F4FFA0161917191AF01F2
:201F400080915F03909160030E946F0BE2E00C94690FF894FFCF02000000670380008B02C1
:201F600093029C02000000000A027301A2015102D301B101C5010A0D524632342F657861EA
:201F80006D706C65732F47657474696E67537461727465642F0A0D00524F4C453A202573DE
:201FA0000A0D002A2A2A2050524553532027542720746F20626567696E207472616E736D40
:201FC000697474696E6720746F20746865206F74686572206E6F64650A0D004E6F77207328
:201FE000656E64696E6720256C752E2E2E006F6B2E2E2E006661696C65642E0A0D00466107
:20200000696C65642C20726573706F6E73652074696D6564206F75742E0A0D00476F74202D
:20202000726573706F6E736520256C752C20726F756E642D747269702064656C61793A2022
:20204000256C750A0D00476F74207061796C6F616420256C752E2E2E0053656E74207265EE
:2020600073706F6E73652E0A0D002A2A2A204348414E47494E4720544F205452414E534DEE
:20208000495420524F4C45202D2D2050524553532027522720544F20535749544348204253
:2020A00041434B0A0D002A2A2A204348414E47494E4720544F205245434549564520524FB6
:2020C0004C45202D2D2050524553532027542720544F20535749544348204241434B0A0D89
:2020E00000696E76616C69640050696E67206F757400506F6E67206261636B00FFFFFFFFB2
:20210000FFFFFFFFFFFFFFFFFFFFFFFFFFFFFFFFFFFFFFFFFFFFFFFFFFFFFFFFFFFFFFFFDF
:20212000FFFFFFFFFFFFFFFFFFFFFFFFFFFFFFFFFFFFFFFFFFFFFFFFFFFFFFFFFFFFFFFFBF
:20214000FFFFFFFFFFFFFFFFFFFFFFFFFFFFFFFFFFFFFFFFFFFFFFFFFFFFFFFFFFFFFFFF9F
:20216000FFFFFFFFFFFFFFFFFFFFFFFFFFFFFFFFFFFFFFFFFFFFFFFFFFFFFFFFFFFFFFFF7F
:207800000C94343C0C94513C0C94513C0C94513C0C94513C0C94513C0C94513C0C94513C1D
:207820000C94513C0C94513C0C94513C0C94513C0C94513C0C94513C0C94513C0C94513CE0
:207840000C94513C0C94513C0C94513C0C94513C0C94513C0C94513C0C94513C0C94513CC0
:207860000C94513C0C94513C11241FBECFEFD8E0DEBFCDBF11E0A0E0B1E0EAE8FFE702C081
:2078800005900D92A230B107D9F712E0A2E0B1E001C01D92AD30B107E1F70E942D3D0C94CC
:2078A000C33F0C94003C982F9595959595959595905D8F708A307CF0282F295A8091C000BE
:2078C00085FFFCCF9093C6008091C00085FFFCCF2093C6000895282F205DF0CF982F8091CF
:2078E000C00085FFFCCF9093C6000895EF92FF920F931F93EE24FF2487018091C00087FD7B
:2079000017C00894E11CF11C011D111D81E2E81681EAF80687E0080780E0180770F3E0910B
:207920000401F091050109958091C00087FFE9CF8091C6001F910F91FF90EF9008950E949A
:20794000763C982F8091C00085FFFCCF9093C60091362CF490330CF09053892F08959755DB
:20796000892F08951F930E949F3C182F0E949F3C1295107F810F1F9108951F93182F882308
:2079800021F00E94763C1150E1F71F9108951F93182F0E94763C803249F0809103018F5FC1
:2079A000809303018530C1F01F9108958091C00085FFFCCF84E18093C6008091C00085FF4A
:2079C000FCCF1093C6008091C00085FFFCCF80E18093C6001F910895E0910401F0910501CF
:2079E00009951F9108950E94763C803241F0809103018F5F80930301853081F00895809177
:207A0000C00085FFFCCF84E18093C6008091C00085FFFCCF80E18093C6000895E0910401AC
:207A2000F09105010995089548EC50E08823A1F02D9A28EE33E0FA013197F1F72150304068
:207A4000D1F72D9828EE33E0FA013197F1F721503040D1F7815061F708953F924F925F92B3
:207A60006F927F928F929F92AF92BF92CF92DF92EF92FF920F931F93CF93DF93000082E0A2
:207A80008093C00080E18093C4001092C50088E18093C10086E08093C2005098589A259A63
:207AA00081E00E94143D24E1F22E9EE1E92E85E9D82E0FE0C02E10E1B12EAA24A394B1E4FC
:207AC0009B2EA6E58A2EF2E57F2EE0E26E2E79E4572E63E5462E50E5352E0E94763C80337B
:207AE000B1F18133B9F1803409F46FC0813409F476C0823409F485C0853409F488C0803513
:207B000031F1823521F1813511F1853509F485C0863509F48DC0843609F496C0843709F4FC
:207B200003C1853709F472C1863709F466C0809103018F5F80930301853079F6E091040101
:207B4000F091050109950E94763C803351F60E94F33CC3CF0E94763C803249F78091C00038
:207B600085FFFCCFF092C6008091C00085FFFCCF9092C6008091C00085FFFCCF8092C6006E
:207B80008091C00085FFFCCF7092C6008091C00085FFFCCF6092C6008091C00085FFFCCF05
:207BA0005092C6008091C00085FFFCCF4092C6008091C00085FFFCCF3092C6008091C000EC
:207BC00085FFFCCFB092C60088CF0E94763C863808F4BDCF0E94763C0E94F33C7ECF0E9449
:207BE000763C803809F49CC0813809F40BC1823809F430C1883909F48FC080E00E94C73C86
:207C00006CCF84E10E94BD3C0E94F33C66CF85E00E94BD3C0E94F33C60CF0E94763C8093BC
:207C200006010E94763C809307010E94F33C55CF0E94763C803309F411C183E00E94BD3C05
:207C400080E00E94C73C49CF0E94763C809309020E94763C8093080280910C028E7F8093E5
:207C60000C020E94763C853409F409C18091080290910902892B89F000E010E00E94763C8A
:207C8000F801E85FFE4F80830F5F1F4F80910802909109020817190788F30E94763C803271
:207CA00009F045CF80910C0280FFF5C06091060170910701660F771F709307016093060153
:207CC000A0910802B09109021097C9F0E8E0F1E09B01AD014E0F5F1FF999FECF32BD21BDD3
:207CE000819180BDFA9AF99A2F5F3F4FE417F50799F76A0F7B1F7093070160930601809142
:207D0000C00085FFFCCFF092C6008091C00085FFFCCFB092C600E1CE83E00E94C73CDDCE82
:207D200082E00E94C73CD9CE0E94763C809309020E94763C80930802809106019091070171
:207D4000880F991F90930701809306010E94763C853409F49AC080910C028E7F80930C02DE
:207D60000E94763C803209F0B8CE8091C00085FFFCCFF092C600A0910802B09109021097E8
:207D8000C1F180910C02082F0170182F16951170E0910601F0910701AF014F5F5F4FBA012F
:207DA00020E030E00023B1F4112339F494918091C00085FFFCCF9093C6002F5F3F4FCB0174
:207DC0000196FA012A173B0780F4BC014F5F5F4F002351F3F999FECFF2BDE1BDF89A90B517
:207DE0008091C00085FFFCCFE6CF70930701609306018091C00085FDE5CE8091C00085FF4E
:207E0000F8CFE0CE81E00E94C73C67CE0E94763C803209F08CCE8091C00085FFFCCFF092B7
:207E2000C6008091C00085FFFCCFE092C6008091C00085FFFCCFD092C6008091C00085FF87
:207E4000FCCFC092C6008091C00085FFFCCFB092C60043CE80E10E94C73C3FCE0E94763C9F
:207E60000E94763C182F0E94763C112309F483C0113009F484C08FE00E94C73C2ECE8091FC
:207E80000C02816080930C02F1CE80910C02816080930C0265CF809107018823880F880BD0
:207EA0008A2180930B028091060190910701880F991F90930701809306018091080280FF88
:207EC00009C0809108029091090201969093090280930802F894F999FECF1127E091060115
:207EE000F0910701C8E0D1E08091080290910902103091F40091570001700130D9F303E05B
:207F000000935700E8950091570001700130D9F301E100935700E895099019900091570031
:207F200001700130D9F301E000935700E8951395103498F011270091570001700130D9F389
:207F400005E000935700E8950091570001700130D9F301E100935700E8953296029709F0DC
:207F6000C7CF103011F00296E5CF11248091C00085FFC5CEC8CE8EE10E94C73CAECD85E92E
:0C7F80000E94C73CAACDF894FFCF8000FF
:00000001FF
