:200000000C9440010C94660C0C943F0C0C9468010C9468010C9468010C94AC050C9468018D
:200020000C9468010C9468010C9468010C9468010C9468010C9468010C9468010C94680178
:200040000C94F50B0C9468010C94180D0C94F20C0C9468010C9468010C9468010C94680170
:200060000C9468010C94680189035103890389035C036E037F0331155615001318133D13E5
:2000800096135615B3138913C31356155615561556155615561556155615D0137C13EE1349
:2000A000FE1356155615561556155615DD135213111424142D145615561556153514451442
:2000C000581471149B14561556155615A314AD14561556155615561556155615561556156F
:2000E0005615B514CE145615E414F9144E414E494E495459494E46CDCCCC3D0AD7233C173A
:20010000B7D13877CC2B329595E6241FB14F0A000020410000C84200401C4620BCBE4CCA65
:200120001B0E5AAEC59D7420543D0020503D0020493D00524144494F2E2E2E0020423D001C
:2001400020533D0020413D0020543D0020453D0020523D004C494220563D004E6F64654DF2
:20016000616E6167657220760020443D0020543D005052455320493D005245414459004F85
:200180004B00204D3D00494E5420503D00204D3D00494E5420503D00204D3D004D592049D7
:2001A0003D004157414B45007300534C454550200020503D0020543D0020433D0020493DE9
:2001C000005245435620533D0020563D0020563D0020463D0052455120433D0057414B4586
:2001E0005550005245424F4F54002C20563D00494E5420503D002C20563D00494E542050DE
:200200003D0020463D0020493D0020533D0020543D0020433D0020493D0053454E44204423
:200220003D0000000000240027002A0000000000250028002B000000000023002600290022
:20024000040404040404040402020202020203030303030301020408102040800102040852
:2002600010200102040810200000000800020100000304070000000000000000231AFE19A2
:2002800011241FBECFEFD8E0DEBFCDBF11E0A0E0B1E0E6E2F3E402C005900D92AC3EB10774
:2002A000D9F723E0ACEEB1E001C01D92A337B207E1F711E0CFE3D1E004C02197FE010E94F4
:2002C000A220CE33D107C9F70E9475190C9486210C9400008091FB0184608093FB0180919B
:2002E000FC0180788093FC01E091ED01F091EE01309709F009940895EBEFF1E08081877F7E
:200300008F7E80831092F7011092F8011092F9011092FA010E94E90B6093000270930102CE
:20032000809302029093030244E050E060E070E08FE092E00C94E11FFC0183818770886039
:20034000838384818F71806284836783CF0108950F931F93CF93DF93EC016115710561F000
:20036000FB0101900020E9F73197E61BF70BE931F10518F0E9E101C0E0E00E2F10E0C801CC
:2003800023E0880F991F2A95E1F79B819770892B8B838C818F718C83EE2329F0A801CE01D1
:2003A00007960E947721FE01E00FF11F1782CE01DF91CF911F910F910895CF93DF93FC0172
:2003C000108211821282148215821682DC0117968AE1ED0119928A95E9F782E08383DF913A
:2003E000CF910895E091F101F091F201309721F00280F381E02D09958091FB0184FD0C9482
:200400004A0D08950F931F930E94E90B0091F3011091F4012091F5013091F601601B710B8D
:20042000820B930B1F910F9108959C018091F1019091F2018217930751F09091FB019F714F
:200440009093FB013093F2012093F10105C08091FB01805E8093FB01E091F101F091F2018C
:20046000309721F00190F081E02D09950E94E90B6093F3017093F4018093F5019093F6015F
:2004800008950F931F930E9402022091FC012077203729F000E117E220E030E004C000E67C
:2004A0001AEE20E030E0061717072807390730F489E191E01F910F910C9415021F910F9124
:2004C00008958091FC018F708B3020F085E191E00C94150208958091FD018F3FA1F00E946C
:2004E000E90B6093F7017093F8018093F9019093FA018091FD0190911102891380931102F1
:2005000081E191E013C00E940202613D77408105910570F08091FB01803618F48DE091E011
:2005200005C0877F8093FB0185E191E00C941502089580910F028F3F19F08DE091E010C00F
:200540000E940202613D77408105910558F08091FB01803618F489E091E002C08DE191E0F2
:200560000C94150208950E940202613D77408105910520F48091FB0181FF089580911002AF
:200580008F3F41F08091FB018E7F8093FB0189E091E009C08091FB01803618F485E191E0EA
:2005A00002C08DE191E00C94150290E59CBD1DBC2A98E0E1F0E03197F1F78EBD00000DB42D
:2005C00007FEFDCF8EB5FB019FEF4150C8F0222361F09EBD00000DB407FEFDCF8EB56115F8
:2005E000710599F380833196F0CFDF01119680818EBD00000DB407FEFDCF8EB5FD01E5CF16
:200600002A9AE0E1F0E03197F1F70895CF93DF931F92CDB7DEB7698320E041E0BE016F5F00
:200620007F4F0E94D5020F90DF91CF9108958091FC01982F9077903759F0982F92959F707E
:200640009F5F97709295907F8F78892B8093FC018091FB018B7F8F7E8093FB015F986CE01E
:2006600080E20C9406036FE080E20E940603609108016F3F19F08AE20E9406035F9A0895B5
:2006800021E041E060E070E00C94D5028730910528F4FC01EC5CFF4F0C94A22080E090E003
:2006A000089588E00E9440038F70282F38EF3203C00111244D97089586E00E944003282F85
:2006C00030E03595279520953095237033274AEF4203C001439F900D1124089586E00E9485
:2006E0004003282F30E035952795359527952370332789E1829F800D112490E008958091EC
:20070000FE019091FF0124E0959587952A95E1F7089580E09FEF089520E040E060E070E000
:200720000C94D502CF92DF92EF92FF921F93CF93DF937C01FC01C2818091FB0180FF04C0CB
:20074000CF3F09F060C014C0C11103C0C09110020FC0CF3F69F08C2F90E003960E94F11FFA
:200760008F3F29F480911002F70190819813C82F80910F02F7018083438142FD06C04695FF
:2007800046954695D7E0D40F01C0D0E21091120211705F9880E091E00197F1F76EE080E268
:2007A0000E94060384EC90E00197F1F76C2F8AE20E9406036C2F80E30E94060381EE0E94C2
:2007C0008C03CF3F21F0111102C080EA01C080EB4D2FD13208F040E220E0B7010E94D50227
:2007E0005F9A80E190E00197F1F75F98E12CF12C8FEF0E948C03D82F807339F4F1E0EF1ADE
:20080000F108B1F702C010E05DC060E387E20E940603D4FF03C081EE0E948C030E94330303
:20082000D5FD02C0117001C011E081E0CF3F09F080E0182B80911002C81344C09091FC01C6
:20084000111108C081E0890F8F70907F982B9093FC0138C0907F9093FC0181E090E00E942A
:200860004603EC016091FE017091FF01072E000C880B990B0E94C11E23E333E343E75FE3D0
:200880000E94201F6B017C01CE0124E0880F991F2A95E1F7BC01990F880B990B0E94C11EB8
:2008A0002DEC3CEC4CE45DE30E94201F9B01AC01C701B6010E94BD200E9429217093FF0170
:2008C0006093FE01812FDF91CF911F91FF90EF90DF90CF9008952091FB0122FD0C9492037C
:2008E00080E008950F93CF938091F00181FD20C00E947C0A8091F00181608093F001C4E0E4
:2009000000E02AE143E06FEF80E00E94A61662E00E949C010E946B048BE10E9470188111F3
:2009200002C0C15069F78091F00182608093F001CF910F9108950F938FEF8093FD01EBEFF4
:20094000F1E080818860808300E028E143E06FEF80E00E94A61661E00E949C010F910C94F2
:2009600092030F9380910F028F3F71F400E023E043E06FEF80E00E94A6166FED71E00E947A
:20098000A8010F910C9492030F9108950F93EBEFF1E08081897F81608083EFE0F2E08FEF43
:2009A0008283818300E027E043E06FEF0E94A6166FED71E00E94A8010F910C949203CF9339
:2009C000DF93579A229A5F982A9ACFB7F8948091EC01811127C0EAE4F2E08491EEE5F2E05A
:2009E0009491E82FF0E0EE0FFF1FEE5DFD4FA591B491EC91E92321F461E08AE00E94CF18EC
:200A000061E08AE00E94FF188CB580618CBD8CB580648CBD61E08DE00E94FF1861E08BE086
:200A20000E94FF188091EC018F5F8093EC01CFBF6EE080E20E94060365E070E080E090E0C3
:200A40000E943B1963E083E20E9406036FE584E20E9406036CE485E20E94060365E286E2D7
:200A60000E94060363E780E50E94060364E08DE30E94060386E00E944003853209F066C0F1
:200A800085E00E9440038C3409F060C062E082E20E94060360E081E20E94060363E08CE3E2
:200AA0000E940603DFEFD093030120E045E063E071E08BE20E94D50220E045E063E071E0FE
:200AC0008AE20E94D50220E045E063E071E080E30E94D50282EE0E948C0381EE0E948C035B
:200AE00060E787E20E9406038091FB0180618093FB01809112028E7F8093120289EC8093BD
:200B00000F0269EC80E090E00E940920C0910F02CF3FC9F08FEF8C0F8E3F90F4C0930801E5
:200B200063E082E20E94060361E081E20E9406030E9433036C2F80E090E00E94092003C043
:200B4000D0930F0203C085E191E002C08DE191E0DF91CF910C9415021F920F920FB60F92A7
:200B600011240F900FBE0F901F901895FC01138A128A1382128208950895089508959B016A
:200B8000FC0160897189C9010C94F116AF92BF92CF92DF92EF92FF920F931F93CF93DF9366
:200BA000FC0122813381232BB9F1EC01E088F188A284B384C680D7800480F581E02D008595
:200BC0001185C80106960E94DD01F80182858F71806A82878185877080628187C701FF0CED
:200BE000AA0BBB0B85879687A787B08BA501B601C8010E94F211E881F9810480F581E02D33
:200C0000CE01DF91CF911F910F91FF90EF90DF90CF90BF90AF900994DF91CF911F910F91BE
:200C2000FF90EF90DF90CF90BF90AF900895CF93DF93EC0181EC91E00E940D1789810E949C
:200C400067188DEB91E00E940D178E810E94671889EB91E00E940D178C8187700E94671866
:200C600085EB91E00E940D178D810E94671881EB91E00E940D178C8182958695877019F4B8
:200C8000CE01079602C080E090E00E9444186E8170E086EE92E00E945E10009729F0BE01B4
:200CA000DF91CF910C946515DF91CF910895CF93DF9380912303882339F08091EF0190E08D
:200CC00090932503809324038CE991E00E940D1780910F020E94671888E991E00E940D17F8
:200CE00080912403909125030E94F716C091E602D091E7028091E8029091E902880F991FEB
:200D00002091E6023091E702820F931FC817D90751F089919991DC01ED91FC910280F3812B
:200D2000E02D0995E7CF809113039091140397FD1DC08330910569F482E090E090931A03CA
:200D40008093190381E090E090931E0380931D030DC08230910551F490931C0380931B034F
:200D600081E090E09093200380931F038091190390911A038F3F910549F160E083E00E94D9
:200D8000FF1860911D0370911E0377FD03C083E00E94CF1880910D0390910E030197B1F05A
:200DA0008091190390911A0324E331E1309324012093230120916900880F991F880F991F38
:200DC000922F937F892B80936900E99A80911B0390911C038F3F910511F160E082E00E9474
:200DE000FF1860911F037091200377FD03C082E00E94CF1880910D0390910E03019779F02F
:200E000090911B0323ED30E13093220120932101809169008C7F892B80936900E89A81E916
:200E200091E00E940D1763E070E083E192E00E94F1168DE891E00E940D178091190390916F
:200E40001A030E94F71686E891E00E940D1762E070E083E192E00E94F11682E891E00E9493
:200E60000D1780911B0390911C03DF91CF910C94F7160F93CF93DF938F3F11F0EA0102C070
:200E8000C5EAD1E0022F262F40E0682F80E00E94A616BE010E94A801DF91CF910F910C94DD
:200EA0006B04CF92DF92EF92FF920F931F93CF93DF938FE791E00E94571886EE92E00E9437
:200EC000511000E02BE043E06FEF80E00E94A6166BEA71E00E94A8010E946B042CE043E056
:200EE0006FEF80E00E94A61667EB71E00E94A8010E946B0486EE92E00E9451100091E60275
:200F00001091E7028091E8029091E902880F991F2091E6023091E702820F931F081719072C
:200F200009F445C0D801ED90FD908D01F701C280D380F70184819581880F991F22813381F8
:200F4000820F931FC816D90669F1D601CD91DD916D0181E791E00E940D176E817F8183E134
:200F600092E00E94F1168DE691E00E940D176885798583E192E00E94F11689E691E00E94C0
:200F80000D178E859F850E944418D7011896ED91FC91199723AD4E855F8568858E810E9492
:200FA0003907C7CF86EE92E00E945110ABCF89E791E00E9457188FED91E00E94441886EEA7
:200FC00092E00E94511086EE92E00E94511086EE92E0DF91CF911F910F91FF90EF90DF9030
:200FE000CF900C945110AF92BF92CF92DF92FF920F931F93CF93DF930E942E178BE591E0AC
:201000000E940D1787EB91E00E9444188091290390912A0397FD14C08BEB91E00E943F1856
:201020008091290390912A030E94F71661E0809129030E94FF1861E0809129030E94CF1838
:2010400084E591E00E940D1785EA91E00E943F1880E591E00E940D1782EC91E00E943F18A3
:201060008CE491E00E940D1784EC91E00E943F1888E491E00E940D1786EC91E00E943F1870
:2010800084E491E00E940D1788EC91E00E943F1880E491E00E940D1784EC91E00E943F185E
:2010A0008CE391E00E940D1784EC91E00E9444180091E6021091E702FF24F3948091E80203
:2010C0009091E902880F991F2091E6023091E702820F931F0817190709F455C0F801C19193
:2010E000D1918F01EC89FD898185811110C08091260390912703148215821682178213861F
:2011000014861586168693838283F186F086E881F9810190F081E02DCE010995CA80DB80F2
:201120008C819D81880F991F2A813B81820F931FC816D90619F2F601A190B1906F018A85DB
:201140009B850E943F188FE291E00E940D17F5016681778183E192E00E94F1168BE291E09C
:201160000E940D17F5016085718583E192E00E94F11687E291E00E940D17F50182859385A4
:201180000E94F716CDCF83E391E0DF91CF911F910F91FF90DF90CF90BF90AF900C940D175E
:2011A000CF92DF92EF92FF920F931F93CF93DF93EC018B018FE391E0998388831B821A8267
:2011C0001D821C821F821E828FED91E09B878A8781E090E09F878E87198A188A8FEF9FEF14
:2011E0009B8B8A8B798768875D874C878FE090E00E94821BFC011382128214821582168205
:2012000017821086118681E08287138614861586168611830083FD8BEC8BD8011296ED9020
:20122000FC90139714968D919C911597E816F90679F5C701019615969C938E9314978138AE
:20124000BFE39B0718F4880F991F02C08FEF9FEF0E94821B6C01FC0120E030E0D8018D9171
:201260009C912E153F056CF4B901660F771FDC01A60FB71F8D919C91819391932F5F3F4F8E
:20128000EDCF009711F00E94171CF801C082D182D80112968D919C9113979C01220F331F01
:2012A000ED91FC911197E20FF31FD183C083019613969C938E931297DF91CF911F910F9188
:2012C000FF90EF90DF90CF900895CF92DF92EF92FF920F931F93CF93DF936C01EB0185E3C8
:2012E00091E0F6019183808313821282578346833187208713870287F786E6867583648359
:201300000C811D818E819F810817190759F5C80101969F838E838138FFE39F0718F4880F6F
:20132000991F02C08FEF9FEF0E94821B7C01FC0120E030E08A819B81201731076CF4B901AE
:20134000660F771FDC01A60FB71F8D919C91819391932F5F3F4FEECF009711F00E94171C51
:20136000EA82FB828C819D819C01220F331FEA81FB81E20FF31FD182C08201969D838C83F4
:20138000DF91CF911F910F91FF90EF90DF90CF9008958F929F92AF92BF92CF92DF92EF927D
:2013A000FF926B017C010E94E90B4B015C010E94E90BDC01CB0188199909AA09BB098C15DA
:2013C0009D05AE05BF0520F4A8950E94F201EFCFFF90EF90DF90CF90BF90AF909F908F9098
:2013E0000895CF92DF92EF92FF920F931F93CF93DF930091E6021091E702EE24EA94FE2C87
:201400008091E8029091E902880F991F2091E6023091E702820F931F0817190781F1F80146
:20142000C191D1918F0180912501909126018F3FFFEF9F07D1F02A893B892817390701F7D8
:201440008CEE92E00E94DD01E881F9810084F185E02DCE01099560E070E0CE010E9465154E
:20146000F0922601E0922501CBCF8CEE92E00E94DD0160E070E0CE010E946515C1CF809109
:201480000D0390910E03019771F5C0900F03D0901003E0901103F09012038AEA91E00E9497
:2014A0000D17B701A60183E192E00E94BF1688EA91E00E9457188FED91E00E944418A8EEE7
:2014C000B3E0A70196010E941B200E94C90982EA91E0DF91CF911F910F91FF90EF90DF906F
:2014E000CF900C945718DF91CF911F910F91FF90EF90DF90CF9008950F93CF9300E02FE0F2
:2015000043E06FEF80E00E94A6166FED71E00E94A801EBE2F3E0838187708061838384810D
:201520008F71806C848381E087831086CF010E946B048FE00E94701820E04FED51E062E18D
:201540008FEF0E943907C091100226E043E06FEF80E00E94A6166C2F0E949C010E946B0498
:2015600086E00E947018CF910F910C9451070895CF92DF92EF92FF920F931F93CF93DF933A
:201580006C017A018B01C0E0D0E0CE15DF0589F0D8016D918D01D601ED91FC910190F081FE
:2015A000E02DC6010995892B11F47E0102C02196ECCFC701DF91CF911F910F91FF90EF9057
:2015C000DF90CF900895089580E090E00895FC01538D448D252F30E0842F90E0821B930B26
:2015E000541710F0CF96089501970895FC01918D828D981761F0828DDF01A80FB11D5D96B8
:201600008C91928D9F5F9F73928F90E008958FEF9FEF0895FC01918D828D981731F0828D9E
:20162000E80FF11D858D90E008958FEF9FEF0895FC01918D228D892F90E0805C9F4F821B84
:2016400091098F739927089583E192E00E94180B21E0892B09F420E0822F0895FC01848DE8
:20166000DF01A80FB11DA35ABF4F2C91848D90E001968F739927848FA689B7892C93A089F9
:20168000B1898C9180648C93938D848D981306C00288F389E02D80818F7D80830895EF920D
:2016A000FF920F931F93CF93DF93EC0181E0888F9B8D8C8D981305C0E889F989808185FDE5
:2016C00024C0F62E0B8D10E00F5F1F4F0F731127E02E8C8DE8120CC00FB607FCFACFE889F5
:2016E000F989808185FFF5CFCE010E942E0BF1CF8B8DFE01E80FF11DE35AFF4FF0820B8F02
:20170000EA89FB898081806207C0EE89FF896083E889F98980818064808381E090E0DF912A
:20172000CF911F910F91FF90EF900895CF93DF93EC01888D8823C9F0EA89FB89808185FD9A
:2017400005C0A889B9898C9186FD0FC00FB607FCF5CF808185FFF2CFA889B9898C9185FFFC
:20176000EDCFCE010E942E0BE7CFDF91CF91089580E090E0892B29F00E94240B81110C9440
:20178000000008950E9469213FB7F8948091090290910A02A0910B02B0910C0226B5A89B0A
:2017A00005C02F3F19F00196A11DB11D3FBFBA2FA92F982F8827820F911DA11DB11DBC010D
:2017C000CD0143E0660F771F881F991F4A95D1F708952FB7F89460910502709106028091E6
:2017E0000702909108022FBF08951F920F920FB60F9211242F933F938F939F93AF93BF93C1
:201800008091050290910602A0910702B09108023091040226E0230F2D3720F40296A11D35
:20182000B11D05C029E8230F0396A11DB11D209304028093050290930602A0930702B09330
:2018400008028091090290910A02A0910B02B0910C020196A11DB11D8093090290930A0238
:20186000A0930B02B0930C02BF91AF919F918F913F912F910F900FBE0F901F9018951F924F
:201880000F920FB60F9211242F933F934F935F936F937F938F939F93AF93BF93EF93FF9394
:2018A000E0912301F09124010995FF91EF91BF91AF919F918F917F916F915F914F913F91AF
:2018C0002F910F900FBE0F901F9018951F920F920FB60F9211242F933F934F935F936F938A
:2018E0007F938F939F93AF93BF93EF93FF93E0912101F09122010995FF91EF91BF91AF9165
:201900009F918F917F916F915F914F913F912F910F900FBE0F901F901895DC01ED91FC91B8
:201920000190F081E02D09946115710579F0FB0101900020E9F73197AF01461B570BDC0101
:20194000ED91FC910280F381E02D099480E090E008954F925F926F927F92EF92FF920F93D7
:201960001F93CF93DF93CDB7DEB7A1970FB6F894DEBF0FBECDBF7C01FA01CB0119A22230F8
:2019800008F42AE08E010F5D1F4F422E512C612C712CBF01A30192010E948020F901CA01C3
:2019A000015011096A3014F4605D01C0695CD8016C93232B242B252B61F7B801C7010E9497
:2019C000940CA1960FB6F894DEBF0FBECDBFDF91CF911F910F91FF90EF907F906F905F90BE
:2019E0004F9008951F920F920FB60F9211242F933F934F935F936F937F938F939F93AF936C
:201A0000BF93EF93FF9383E192E00E942E0BFF91EF91BF91AF919F918F917F916F915F91BF
:201A20004F913F912F910F900FBE0F901F9018951F920F920FB60F9211242F938F939F93CC
:201A4000EF93FF93E0912302F09124028081E0912902F0912A0282FD12C0908180912C024A
:201A60008F5F8F7320912D02821751F0E0912C02F0E0ED5EFD4F958F80932C0201C080818F
:201A8000FF91EF919F918F912F910F900FBE0F901F9018953F924F925F926F927F928F92E9
:201AA0009F92AF92BF92CF92DF92EF92FF920F931F93CF93DF930E94E90B0091000210918D
:201AC00001022091020230910302DC01CB01801B910BA20BB30B813A9B4BAD40B105A0F069
:201AE0000E94E90B6093000270930102809302029093030286E00E9440038532A1F485E01A
:201B00000E9440038C3479F4D6E090E0E92E90E0F92E21E2322E87E10E94400380FDAFC241
:201B2000D15031F4ACC28DE191E00E941502ECCF21E041E060E070E080E60E94D502182FC6
:201B4000813220F082EE0E948C0310E021E0412F6CE473E081E60E94D50260E487E20E94EE
:201B6000060390914F03092F0695069506950A3108F009E192FD03C087E0800F01C080E258
:201B8000A0905003C0915103D0904D03C0904C03B0904E031813BFCF9370923009F0BBCF3C
:201BA00080911002C81651F080910F02D81631F08D2D90E06C2D03960E9409201A2D1770BD
:201BC0008091FC0180688093FC0180910F02B81253C020914F03822F8695869586958A3140
:201BE00008F089E138E0839FC00111242770822B80934F03E02FF0E0E45BFC4F1782809197
:201C0000500383FF17C0ECE4F3E0ABE2B3E0832D01900D928A95E1F780912F03877F806154
:201C200080932F03B0922C03D0922D038BE293E00E946B048091500384FD19C01330B9F4BD
:201C40009091510321EF290F233008F0C1C063CF913009F44BC19A3009F467C19C3109F446
:201C60005ACFCE3109F457CFCD3109F481C18CE493E00E9417064FCF2FEFB21291C01330A6
:201C800009F080C08091FB0182FF5EC0C73009F05BC080911002D81609F43DCF0E94E90BA4
:201CA0004090F7015090F8016090F9017090FA01DC01CB0184199509A609B70980319742C1
:201CC000A105B10518F18091FB0183FD24CF90910F0291118BC11092FD018091FB01877F4C
:201CE0008093FB01C091FD01CF3F09F414CF0E94E90B6093F7017093F8018093F9019093EB
:201D0000FA0180911102C813C09311020E94E90B6093F7017093F8018093F9019093FA01BB
:201D20000E94E90B7370882799270E943B19C091110200E028E043E06FEF8D2D0E94A616E0
:201D40006C2F0E949C0141C0C83009F4E4CEC431C9F480911002C81215C00E94E90B737004
:201D6000882799270E943B19C091100200E025E143E06FEF8D2D0E94A6166C2F0E949C0142
:201D80000E94920380911002C812C5CE80910F02D81609F470C18091FB0182FD60C16BC165
:201DA0008091FB0182FFB7CE133069F4C851C23050F40E9456178E3F31F061E0680F8CE4FC
:201DC00093E00E949C018CE493E00E949203A3CEC43009F4A0CEC830C9F4C091FB01C0FFA6
:201DE0009ACE0E9456178F3F09F495CE8F5F8F3F09F491CE90911102891708F08CCEC1FD42
:201E00008ACE80931102D092100285CEC83149F400E029E143E06FEF8D2D0E94A61661E083
:201E200090CFC93161F48091FB0183FF74CE877F8093FB010E9456178093FD016CCE209103
:201E40004D03211191C09D3059F498E088E10FB6F894A895809360000FBE90936000FFCF95
:201E60009B3169F40E94561791E0811101C090E08091F00190FB80F98093F0014CCE96300C
:201E800099F49091530381E0992319F09D3409F080E08093EF0141E050E063E071E08FEE89
:201EA00091E00E94F91F37CE933119F40E947C0A32CE923109F0CCCE0E9402024B015C0154
:201EC00000E026E143E06FEF80E00E94A616FC0184818F71806A8483838187708062838306
:201EE00087829086A186B286CF013BC0E114F10409F411CE829586958770853049F46091C7
:201F000053037091540380915503909156030AC0811105C083E593E00E94D11C03C060E0A2
:201F200070E0CB010E940000F6CD80915303833409F0F1CD03E010E06FEFC8010E94092086
:201F40000F5F1F4F033081E01807B1F700E02AE043E06FEF80E00E94A6166AEC71E00E94D8
:201F6000A8010E946B04D7CD9A3109F07ACED3CDC091530380915403813211F0E0EB10C0F9
:201F800000E02EE143E06FEF80914C030E94A6166FEF0E949C010E949203882381F0E0ED56
:201FA000EC0FE43230F4F0E0E75BFE4F808190E002C087E090E00E9446036C0103C0C12C7B
:201FC000DD24DA9400E02FE143E06FEF80E00E94A616FC0194819F7190649483938197701B
:201FE00090619383D086C782CF01EFCE88608093FB01B092FD0100E028E143E06FEF80E0AD
:202000000E94A61661E00E949C010E9492030E94E90B4B015C0110925103C0E00E94E90B40
:20202000DC01CB0188199909AA09BB09803D9740A105B10508F051CEC1114FCE8091FB013A
:2020400084FD0E944A0DA895809150038770833029F7C1E0809151038931F9F6DFCF8CE4CE
:2020600093E00E949203133009F455CD80911002C81251CDFCCD133009F0F9CD4CCDDF91E5
:20208000CF911F910F91FF90EF90DF90CF90BF90AF909F908F907F906F905F904F903F902D
:2020A0000895FC0161A972A91616170634F4072E000C880B990B0C94C90908950F931F9315
:2020C000CF93DF93DC01ED91FC91119712968D919C911397880F991F9F01280F391FE21788
:2020E000F307C9F041915191EA01AA81BB818C819D81880F991F8A0F9B1FA817B90779F36F
:20210000CD91DD910E811F8106171707B1F7CD2B31F3CA0102C080E090E0DF91CF911F91E8
:202120000F91089508950895CF93DF93EB014E8150E0DC011296ED91FC91139714962D91C7
:202140003C911597220F331F2E0F3F1FE217F30711F1A191B19116966D917C91179764179F
:202160007507A1F71097B9F02C812770223099F42D8130E01A964D915C911B972417350776
:2021800051F4EC01E881F9810480F581E02DBD01DF91CF910994DF91CF9108950895089551
:2021A000089508950895CF92DF92EF92FF920F931F930E94E90B6B017C018091B0029091AD
:2021C000B102A091B202B091B30297018601081B190B2A0B3B0B409127015091280160919C
:2021E000290170912A0140175107620773072CF0C816D906EA06FB0684F582E090E09093BF
:202200002601809325010E94A61890930E0280930D02C092B002D092B102E092B202F092E8
:20222000B3028BEF91E00E940D17609125017091260183E192E00E94F11686EF91E00E94F2
:202240000D1780910D0290910E021F910F91FF90EF90DF90CF900C94F7161F910F91FF9051
:20226000EF90DF90CF900895CF92DF92EF92FF920F931F930E94E90B6B017C018091B402F6
:202280009091B502A091B602B091B70297018601081B190B2A0B3B0B40912701509128019F
:2022A0006091290170912A0140175107620773072CF0C816D906EA06FB0684F583E090E02F
:2022C00090932601809325010E94A61890930E0280930D02C092B402D092B502E092B6027B
:2022E000F092B7028FEE91E00E940D17609125017091260183E192E00E94F1168AEE91E048
:202300000E940D1780910D0290910E021F910F91FF90EF90DF90CF900C94F7161F910F917D
:20232000FF90EF90DF90CF900895CF92DF92EF92FF920F931F93CF93DF936C0184E190E0D6
:202340000E94821BEC018FEDE82E81E0F82E00E310E027E130E048EC50E0B601CE010E94C1
:20236000650983E891E0998388831B8A1A8ADF91CF911F910F91FF90EF90DF90CF9008950A
:20238000EF92FF920F931F93CF93DF937C01EB01FC01868997890E9446038C01F7018285F7
:2023A00093850E943F1889EC91E00E940D17C8010E94F7162A893B89C801820F931F9B8B3F
:2023C0008A8B6A817B816F5F7F4F7B836A830E946C20798B688BDF91CF911F910F91FF90A6
:2023E000EF900895CF92DF92EF92FF920F931F93CF93DF93EC016C874B87E12CF12C8C014C
:20240000035F1F4F6C0146E0C40ED11C8FA598A9E816F9060CF07CC08AE192E00E940D174D
:2024200088850E94671886E192E00E940D178C850E94671882E192E00E940D178A858770FC
:202440000E9467188EE092E00E940D178B850E9467188AE092E00E940D178A8582958695A1
:20246000877011F4C80102C080E090E00E943F1886E092E00E940D178A8582958695877036
:20248000823019F48D859E8508C0811104C0C8010E94B31C02C080E090E0BC0183E192E0CB
:2024A0000E94F11682E092E00E940D178A85829586958770873029F46D857E858F859889A3
:2024C00009C0811104C0C8010E94AF1C03C060E070E0CB010E9469178BAD90910F029F83DA
:2024E0002A85207F922F916048E0849F90011124292B2A878091F00180FF03C0C6010E9419
:202500006B04CE010E9451108FEFE81AF80A7ECFDF91CF911F910F91FF90EF90DF90CF90AF
:2025200008958F929F92AF92BF92CF92DF92EF92FF920F931F93CF93DF9300D0CDB7DEB725
:202540008C01DB0114968C911497982F9770923029F015969C91903309F0A8C282958695C7
:20256000877009F0A0C2CB010796AE014F5F5F4F6DEC71E00E94F81C0E94B31C5C01AE01B8
:202580004F5F5F4F6DEC71E080E090E00E94F81C0E94B31C4C01AE014F5F5F4F6DEC71E03C
:2025A00080E090E00E94F81C0E94AF1C6B017C0185ED91E00E940D17B50183E192E00E9468
:2025C000F11681ED91E00E940D17B40183E192E00E94F1168DEC91E00E940D17C701B601EC
:2025E0000E946917A114B10409F08AC1F4013197E732F10508F05AC2E55CFF4F0C94A2203A
:20260000C701B6010E942921D8011896ED91FC9119976115710519F410A617A204C021E0E0
:2026200030E030A727A3CB01770FAA0BBB0B20C0F801A084B184C701B6010E9429212CE370
:20264000269FA001279F500D11244115510531F4D50198961C921E92979705C021E030E085
:20266000F50130A727A3CA01550FAA0BBB0BF50181A792A7A3A7B4A7F4C1D8011896AD90A4
:20268000BC901997C701B6010E9429212CE3269FA001279F500D1124249FC001259F900D21
:2026A000112418C0D8011896AD90BC901997C701B6010E94292128E1269FA001279F500D50
:2026C000112420E13EE0429FC001439F900D529F900D1124009721F4F50110A617A207C0EA
:2026E00021E030E0D50198963C932E939797092E000CAA0BBB0BBBCFD8011896AD90BC90AF
:202700001997C701B6010E942921F50172AB61ABA8C1D8011896ED90FC9019978CED91E0EC
:202720000E945718F70110A617A29BC1D80118960D911C91199783EE91E00E945718F80157
:20274000ED5BFF4F8081918197FD04C060E00E94CF18ACC18091600088618093600088E00D
:2027600080936000FFCFF801008511857801F6E0EF0EF11CC7010E94DD0167EB71E0C701F8
:202780000E94A80188C1D8011896AD90BC901997C701B6010E942921F50170AB67A761C139
:2027A000D8011896AD90BC901997C701B6010E942921F50176A765A754C1C701B6010E9499
:2027C0002921CB01770FAA0BBB0B8093270190932801A0932901B0932A0143C1D801189605
:2027E000AD90BC901997C701B6010E94292121E0672B09F420E0F50123AF33C1D801189662
:20280000AD90BC901997C701B6010E94292121E030E0672B11F420E030E0F50137AF26AFAB
:2028200020C1D8011896AD90BC901997B2E4AB0EB11CC701B6010E94292121E0672B09F4E0
:2028400020E0F50120830DC1D8011896AD90BC901997B3E4AB0EB11C10C080917A008F77D3
:2028600080937A0080E880BFFCC0D8011896AD90BC901997B0E4AB0EB11CC701B6010E946D
:202880002921F50171836083ECC0D8011896AD90BC901997B0E4AB0EB11CC701B6010E947A
:2028A00029212CE3269FA001279F500D112415C0D8011896AD90BC901997B0E4AB0EB11C52
:2028C000C701B6010E94292120E13EE0269FA001279F500D369F500D1124F50151834083F1
:2028E000C0C0D8011896AD90BC901997B0E4AB0EB11CC701B6010E94292120E831E5E6CF40
:20290000B501D80118968D919C9119970E945E105C01009709F4CAC0B4E68B1691040CF028
:202920008AC0F4013197E431F10508F0BFC0EE59FF4F0C94A220C701B6010E942921F501B6
:20294000758764878EC0C701B6010E942921D5011F967C936E931E9784C0C701B6010E9422
:202960002921F501718B608B7CC0DC015496AD90BC905597F50114821582168217821386CB
:20298000148615861686C701B6010E9429212CE3269FA001279F500D112446C0DC01549661
:2029A000AD90BC905597F50114821582168217821386148615861686C701B6010E94292179
:2029C000F5017383628333C0DC015496AD90BC905597F50114821582168217821386148670
:2029E00015861686C701B6010E94292120E13EE014C0DC015496AD90BC905597F50114827A
:202A00001582168217821386148615861686C701B6010E94292120E831E5269FA001279FCF
:202A2000500D369F500D1124F5015383428381E08187808716C06FEC71E0DC011A968D91A4
:202A40009C911B970E946E21892B59F4B5E68B16910461F5C701B6010E942921F501778BDB
:202A6000668BD80118960D911C911997C80106960E94DD01F80182858F71806A8287818505
:202A8000877080628187A401990C660B770B458756876787708B40E350E068EC70E0C801C6
:202AA0000E94F21103C080E090E05FCD0F900F90DF91CF911F910F91FF90EF90DF90CF9078
:202AC000BF90AF909F908F9008958F929F92AF92BF92CF92DF92EF92FF920F931F93CF93FF
:202AE000DF93EC017B01672B19F0CA80DB805CC00C891D89D80119968C9119978823A9F3C8
:202B000018968C911897882381F31A96DC901A97ED91FC9187A190A5019709F0C8C0D801F5
:202B200014964D915D916D917C91179781A592A5A3A5B4A5840F951FA61FB71FF801848386
:202B40009583A683B783F8011286EC89FD8981858823A9F08085882391F044815581668171
:202B6000778182819381092E000CAA0BBB0B481759076A077B070CF0B8CF77FDB6CFD11079
:202B8000B4CFAEC0D6010D911D916D01E114F104B9F0F701868190E0D80116962D913C91A1
:202BA00017978217930761F08C819D81880F991F2A813B81820F931FC816D90619F73CC0F6
:202BC000A12CB12C8E859F85A816B906FCF4E881F981E114F10429F00680F781E02DB701FE
:202BE00004C00480F581E02DB801CE010995488959891416150634F4BA01550F880B990B6E
:202C00000E94C909BFEFAB1ABB0ADCCFD801ED91FC9161E0E114F10409F460E00190F0810F
:202C2000E02DC8010995D801ED91FC910480F581E02DC8010995B8CFEF2809F051C00C8892
:202C4000DD89C02D8985882309F44AC08885882309F446C04C815D816E817F818A819B81E5
:202C6000092E000CAA0BBB0B481759076A077B0714F477FF35C018861C821D821E821F8255
:202C80001B861C861D861E86E881F98187A190A5019731F48985882319F181E0888720C09A
:202CA0000E94E90B6B877C878D879E87F3CF0E94E90BD8011B968D909D90AD90BC901E97E6
:202CC000681979098A099B0928EE33E040E050E00E948020F801248335834683578333CF02
:202CE000DF91CF911F910F91FF90EF90DF90CF90BF90AF909F908F900895833081F028F41F
:202D0000813099F08230A1F008958730A9F08830B9F08430D1F4809180008F7D03C08091FE
:202D200080008F7780938000089584B58F7702C084B58F7D84BD08958091B0008F7703C02F
:202D40008091B0008F7D8093B00008950F931F93EBE2F3E090910F02918382836683258376
:202D600047708481807F482B88E0089F80011124042B0F7E0483CF011F910F910895CF92FF
:202D8000DF92EF92FF920F931F93CF93DF9377FF1DC06A017B01EC016DE20E948D0C8C014A
:202DA00044275527BA014C195D096E097F092AE0CE010E94A90C800F911FDF91CF911F91B8
:202DC0000F91FF90EF90DF90CF9008952AE0DF91CF911F910F91FF90EF90DF90CF900C9434
:202DE000A90CAB01770F660B770B0C94BF16CF93DF93AC01990F660B770B83E192E00E94F0
:202E0000BF16EC016DED71E083E192E00E94940C8C0F9D1FDF91CF9108950F931F93CF93B3
:202E2000DF938C01C0E0D0E0F801EC0FFD1F6491662371F0E0911302F09114020190F08135
:202E4000E02D83E192E00995892B11F02196ECCFCE01DF91CF911F910F910895E3E1F2E0A8
:202E6000A089B18982E08C93A485B5851C92A685B78588E08C93108EA489B58986E08C93E1
:202E8000A289B3898C9180618C93A289B3898C9188608C93A289B3898C9180688C9302880E
:202EA000F389E02D80818F7D8083089580915003829586958770813019F48091530308958D
:202EC000811105C083E593E00E94B31C089580E008954F925F926F927F928F929F92AF923E
:202EE000BF92CF92DF92EF92FF926B017C019B01AC010E946421882319F060EE71E01AC017
:202F000046015701E894B7F82FEF3FEF4FE75FE7C501B4010E946421811112C02FEF3FEFCD
:202F20004FE75FE7C501B4010E94BA1E181644F464EE71E083E192E00E94940C7C018AC038
:202F40002FEF3FEF4FE75FE4C701B6010E945F2118161CF468EE71E0EDCF2FEF3FEF4FE7E8
:202F60005FECC701B6010E94BA1E87FDF3CF20E030E0A901C701B6010E94BA1E87FF0BC0C3
:202F80006DE283E192E00E948D0C5C01F7FAF094F7F8F09402C0A12CB12C2AE037ED43EAC5
:202FA0005BE3C701B6010E94BD202B013C010E9430216B017C010E94BF1E9B01AC01C30104
:202FC000B2010E94BC202B013C012AE0B701A60183E192E00E94A90C7C01EA0CFB1C6EE2E7
:202FE00083E192E00E948D0CE80EF91E20E030E040E251E4C301B2010E94201F2B013C018B
:203000000E9430214B01A12CB12C2AE0B501A40183E192E00E94A90CE80EF91EC501B401AD
:203020000E94BF1E9B01AC01C301B2010E94BC2020E030E040E251E40E94201F0E94302198
:20304000AB0160E070E02AE083E192E00E94A90CE80EF91E6DED71E083E192E00E94940C2D
:203060008E0D9F1DFF90EF90DF90CF90BF90AF909F908F907F906F905F904F900895BC010B
:2030800083E192E00C94940CCF93DF93BC0183E192E00E94940CEC016DED71E083E192E003
:2030A0000E94940C8C0F9D1FDF91CF910895CF93DF930E940D17EC016DED71E083E192E002
:2030C0000E94940C8C0F9D1FDF91CF910895482F50E060E070E02AE083E192E00C94A90C7E
:2030E000CF92DF92EF92FF92CF93DF93D82F0E94E90B6B017C0181E0D11180E08093510388
:20310000C0E00E94E90BAB01BC014C195D096E097F09403D57406105710580F4C1110EC042
:20312000A8950E94F201909150039770933049F7C1E0809151038D13E3CFE3CF8C2FDF910A
:20314000CF91FF90EF90DF90CF900895CF93DF93282F30E0F901E859FD4F8491F901EC5A7F
:20316000FD4FD491F901E05CFD4FC491CC2391F081110E947D16EC2FF0E0EE0FFF1FEA5C44
:20318000FD4FA591B491EC91ED2381E090E021F480E002C080E090E0DF91CF9108951F93E4
:2031A000CF93DF93282F30E0F901E859FD4F8491F901EC5AFD4FD491F901E05CFD4FC49170
:2031C000CC23C9F0162F81110E947D16EC2FF0E0EE0FFF1FE45DFD4FA591B4918FB7F8945B
:2031E000111105C09C91ED2FE095E92302C0EC91ED2BEC938FBFDF91CF911F910895CF937B
:20320000DF9390E0FC01EC5AFD4F2491FC01E05CFD4F8491882361F190E0880F991FFC0135
:20322000EE5DFD4FC591D491FC01E45DFD4FA591B491611109C09FB7F894888120958223B7
:203240008883EC912E230BC0623061F49FB7F8943881822F809583238883EC912E2B2C933C
:203260009FBF06C08FB7F894E8812E2B28838FBFDF91CF9108958F929F92AF92BF92CF92EB
:20328000DF92EF92FF926B017C010E94C40B4B015C01C114D104E104F104F1F00E94C40BD2
:2032A000DC01CB0188199909AA09BB09883E9340A105B10570F321E0C21AD108E108F108BB
:2032C00088EE880E83E0981EA11CB11CC114D104E104F10419F7DDCFFF90EF90DF90CF9023
:2032E000BF90AF909F908F900895789484B5826084BD84B5816084BD85B5826085BD85B5FA
:20330000816085BD80916E00816080936E00109281008091810082608093810080918100EC
:20332000816080938100809180008160809380008091B10084608093B1008091B000816007
:203340008093B00080917A00846080937A0080917A00826080937A0080917A008E7F809309
:203360007A0080917A00806880937A001092C100A89580E090E0892B11F00E9400000E946A
:203380002E178091F0018D7F8093F0010E94F30741E050E063E071E08FEE91E00E94E11FC5
:2033A0006FEF81E090E00E9409208091FC018F788093FC011092F2011092F10189E191E0EA
:2033C0000E94150282E794E09093EE018093ED010E94E90B0E94E90B0E94F201A895809135
:2033E000FB0182FFF7CF0E945706A895A8950E94F2010E94F1090E94B80BF8CF8FE391E0D1
:203400009093B9028093B8028091BA029091BB02009711F00E94171C8FE391E09093D10210
:203420008093D0028091D2029091D302009711F00E94171C8091E6029091E702009711F0C4
:203440000C94171C0895CF92DF92EF92FF920F931F93CF93DF93CDB7DEB7A1970FB6F8944E
:20346000DEBF0FBECDBF109216021092150288EE93E0A0E0B0E08093170290931802A0934E
:203480001902B0931A0281E791E0909314028093130285EC90E09093200280931F0284ECAE
:2034A00090E0909322028093210280EC90E0909324028093230281EC90E090932602809387
:2034C000250282EC90E0909328028093270286EC90E090932A028093290210922C0210927D
:2034E0002D0210922E0210922F028CE493E00E94DD018BE293E00E94DD011092E702109208
:20350000E6021092E9021092E8021092EB021092EA028CEE92E00E94DD0110920E031092CC
:203520000D0310920F031092100310921103109212038FEF9FEF909314038093130301E055
:2035400010E0109316030093150310921803109217032FEF30E030931A03209319033093FB
:203560001C0320931B0390931E0380931D039093200380931F031092210321E020932203CA
:2035800020932303109325030093240348E552E050932703409326032093280390932A0337
:2035A00080932903CE0101960E94DD0181E2FE013196ACEEB2E001900D928A95E1F74FEF2C
:2035C0005FEF66EE72E080ED92E00E94D0088BE991E09093D1028093D00286ED91E09093D7
:2035E000DB028093DA024FEF5FEF66EE72E088EB92E00E94D0088DE891E09093B902809397
:20360000B8021092CF021092CE028FEC91E09093C3028093C2021093BF020093BE0282E047
:2036200090E00E94821B8C014091BC025091BD02A091BA02B091BB02FC0120E030E0CD0159
:20364000241735073CF46D917D91619371932F5F3F4FF6CF009711F00E94171C0093BA0222
:203660001093BB0284E190E00E94821B6C01E090C202F090C30205E210E021E230E04AECD0
:2036800050E068EB72E00E94650983E891E0F60191838083138A128AE091CC02F091CD0293
:2036A0001482158216821782138614861586168680E19EE09383828381E0818780870E9436
:2036C000E90B6093B4027093B5028093B6029093B7020E94E90B6093B0027093B1028093E8
:2036E000B2029093B302A1960FB6F894DEBF0FBECDBFDF91CF911F910F91FF90EF90DF9023
:20370000CF900895CF93DF938230910510F482E090E0E0916F03F091700320E030E0C0E034
:20372000D0E0309711F14081518148175907C0F04817590761F482819381209719F09B8305
:203740008A832BC09093700380936F0326C02115310519F04217530718F49A01BE01DF0102
:20376000EF010280F381E02DDCCF2115310509F1281B390B2430310590F412968D919C91BD
:2037800013976115710521F0FB019383828304C09093700380936F03FD01329644C0FD01C4
:2037A000E20FF31F81939193225031092D933C933AC020916D0330916E03232B41F4209112
:2037C0002D0130912E0130936E0320936D0320912B0130912C012115310541F42DB73EB72F
:2037E00040912F0150913001241B350BE0916D03F0916E03E217F307A0F42E1B3F0B28170B
:20380000390778F0AC014E5F5F4F2417350748F04E0F5F1F50936E0340936D03819391939F
:2038200002C0E0E0F0E0CF01DF91CF9108950F931F93CF93DF93009709F48CC0FC0132972B
:203840001382128200916F03109170030115110581F420813181820F931F20916D0330910F
:203860006E032817390779F5F0936E03E0936D0371C0D80140E050E0AE17BF0750F4129642
:203880002D913C911397AD012115310509F1D901F3CF9D01DA013383228360817181860F07
:2038A000971F8217930769F4EC0128813981260F371F2E5F3F4F318320838A819B81938338
:2038C0008283452B29F4F0937003E0936F0342C01396FC93EE931297ED01499159919E01C6
:2038E000240F351FE217F30771F480819181840F951F029611969C938E9382819381139640
:203900009C938E931297E0E0F0E0D80112968D919C911397009719F0F8018C01F6CF8D919F
:203920009C9198012E5F3F4F820F931F20916D0330916E032817390769F4309729F41092AE
:20394000700310926F0302C01382128210936E0300936D03DF91CF911F910F910895662794
:2039600077270C943C1DFC0188279927E89421912032E9F3293010F02E30C8F32B3241F0E8
:203980002D3239F4689404C00E94341D820F911D219120532A30C0F31EF4909581959F4F3C
:2039A00008951F93FC0199278827BC01E89411911032E9F3193010F01E30C8F31B3251F073
:2039C0001D3249F4689406C00E941F1D610F711D811D911D119110531A30B0F33EF4909528
:2039E0008095709561957F4F8F4F9F4F1F910895FA01A191B081009719F41097E1F0CD0188
:203A0000DC01CD010D90002011F4C00113C0FB012191222319F02015D9F7F3CFFB01219134
:203A2000201519F41E92119606C02223C1F70D900020A1F7D001FA01A193B0830895592F7D
:203A4000482F372F262F660F771F881F991F660F771F881F991F620F731F841F951F660F91
:203A6000771F881F991F08957AE0979F902D879F802D910D11240895A0E0B0E0E2E4FDE170
:203A80000C942A20EC017B016115710519F0DB018D939C938E010F5F1F4F7880872D90E02C
:203AA0000E94991E892B11F0E801F4CFBDE27B1205C00F5F1F4F7980C1E008C0EBE27E12C0
:203AC00004C08E010E5F1F4F7980C0E06801F1E0CF1AD10843E050E064EF70E0C6010E94C4
:203AE000A21E892BF1F4680122E0C20ED11C45E050E06FEE70E0C6010E94A21E892B21F451
:203B0000680187E0C80ED11CE114F10419F0D701CD92DC92C111FFC060E070E080E89FE76B
:203B200003C143E050E06CEE70E0C6010E94A21E892B51F4E114F10409F4F2C00E5F1F4F2E
:203B4000F70111830083ECC0680160E070E0CB0100E010E0F601D0EDD70DDA3058F52C2FCB
:203B60002260622E2C2F2870C2FF05C0211128C00F5F1F4F25C0222311F001501109A5E0A9
:203B8000B0E09B01AC010E941B204B015C01880C991CAA1CBB1CC501B4016D0F711D811DBD
:203BA000911D6839A9E97A078A07A9E19A0740F0C66005C0DE3F51F4C3FD44C0C8606C2EE4
:203BC000BFEFCB1ADB0A7080C62DC4CF2D2F2F7D2531C1F540814D3211F4C06106C04B323A
:203BE00021F0319621E030E006C03296D60111964C9122E030E0A0EDA40FAA3018F0E21BC2
:203C0000F30B20C040E050E04038BCE05B075CF49A01220F331F220F331F420F531F440FF9
:203C2000551F4A0F511D3196DF0111972C91A0EDA20FAA3048F3C4FF03C05195419551094E
:203C4000040F151FC1FF07C0E114F10421F03197D701ED93FC930E94BF1EC370C33019F03E
:203C60006B017C0106C06B017C01F7FAF094F7F8F09420E030E0A901C701B6010E94BA1E11
:203C8000882309F445C017FF06C0119501951109CBE0D1E002C0C3E2D1E05E01B8E1AB1A14
:203CA000B1084601BE2DAF2D90E2E92EF12C0E151F0584F0FE012591359145915491B401F1
:203CC0008B2F9A2F0E94201F4B01B82FA92F0E191F09EDCF2497F594E794CA15DB0539F7BC
:203CE0006401EB2EFA2E8E2D880F8F2D881F8F3F49F020E030E0A901C701B6010E94BA1EAF
:203D0000811106C082E290E09093720380937103C701B60109C060E070E080E89FEF04C0C6
:203D200060E070E080EC9FE7CDB7DEB7EEE00C94462091110C948D1F803219F089508550BD
:203D4000C8F70895FB01DC014150504088F08D9181341CF08B350CF4805E659161341CF081
:203D60006B350CF4605E861B611171F3990B0895881BFCCF0E94FC1E08F481E00895E8948D
:203D800009C097FB3EF490958095709561957F4F8F4F9F4F9923A9F0F92F96E9BB279395C1
:203DA000F695879577956795B795F111F8CFFAF4BB0F11F460FF1BC06F5F7F4F8F4F9F4FE0
:203DC00016C0882311F096E911C0772321F09EE8872F762F05C0662371F096E8862F70E053
:203DE00060E02AF09A95660F771F881FDAF7880F9695879597F90895990F0008550FAA0BE3
:203E0000E0E8FEEF16161706E807F907C0F012161306E407F50798F0621B730B840B950B2B
:203E200039F40A2661F0232B242B252B21F408950A2609F4A140A6958FEF811D811D089595
:203E40000E94331F0C94A71F0E94991F38F00E94A01F20F0952311F00C94901F0C94961FB8
:203E600011240C94DB1F0E94B81F70F3959FC1F3950F50E0551F629FF001729FBB27F00D85
:203E8000B11D639FAA27F00DB11DAA1F649F6627B00DA11D661F829F2227B00DA11D621FF7
:203EA000739FB00DA11D621F839FA00D611D221F749F3327A00D611D231F849F600D211DBE
:203EC000822F762F6A2F11249F5750409AF0F1F088234AF0EE0FFF1FBB1F661F771F881F31
:203EE00091505040A9F79E3F510580F00C94901F0C94DB1F5F3FE4F3983ED4F386957795EC
:203F00006795B795F795E7959F5FC1F7FE2B880F911D9695879597F90895992788270895AD
:203F200097F99F6780E870E060E008959FEF80EC089500240A9416161706180609060895EA
:203F400000240A9412161306140605060895092E0394000C11F4882352F0BB0F40F4BF2BE8
:203F600011F460FF04C06F5F7F4F8F4F9F4F089557FD9058440F551F59F05F3F71F04795ED
:203F8000880F97FB991F61F09F3F79F087950895121613061406551FF2CF4695F1DF08C0EC
:203FA000161617061806991FF1CF86957105610508940895E894BB2766277727CB0197F90D
:203FC0000895DC01CB01FC01F999FECF06C0F2BDE1BDF89A319600B40D9241505040B8F7B0
:203FE0000895F999FECF92BD81BDF89A992780B50895DC01A40FB51F4150504048F0CB018B
:20400000840F951F2E910E940A2041505040D0F70895262FF999FECF92BD81BDF89A0197DE
:2040200000B4021639F01FBA20BD0FB6F894FA9AF99A0FBE08950E945D20A59F900DB49FA0
:20404000900DA49F800D911D112408952F923F924F925F926F927F928F929F92AF92BF9219
:20406000CF92DF92EF92FF920F931F93CF93DF93CDB7DEB7CA1BDB0B0FB6F894DEBF0FBE95
:20408000CDBF09942A88398848885F846E847D848C849B84AA84B984C884DF80EE80FD80AE
:2040A0000C811B81AA81B981CE0FD11D0FB6F894DEBF0FBECDBFED010895A29FB001B39F91
:2040C000C001A39F700D811D1124911DB29F700D811D1124911D089597FB072E16F400948E
:2040E00007D077FD09D00E94A82007FC05D03EF4909581959F4F0895709561957F4F0895FC
:20410000A1E21A2EAA1BBB1BFD010DC0AA1FBB1FEE1FFF1FA217B307E407F50720F0A21B79
:20412000B30BE40BF50B661F771F881F991F1A9469F760957095809590959B01AC01BD010F
:20414000CF010895EE0FFF1F0590F491E02D0994AA1BBB1B51E107C0AA1FBB1FA617B70761
:2041600010F0A61BB70B881F991F5A95A9F780959095BC01CD0108955058BB27AA270E946F
:20418000D4200C94A71F0E94991F38F00E94A01F20F039F49F3F19F426F40C94961F0EF449
:2041A000E095E7FB0C94901FE92F0E94B81F58F3BA17620773078407950720F079F4A6F58A
:2041C0000C94DA1F0EF4E0950B2EBA2FA02D0B01B90190010C01CA01A0011124FF27591B41
:2041E00099F0593F50F4503E68F11A16F040A22F232F342F4427585FF3CF46953795279546
:20420000A795F0405395C9F77EF41F16BA0B620B730B840BBAF09150A1F0FF0FBB1F661F1B
:20422000771F881FC2F70EC0BA0F621F731F841F48F4879577956795B795F7959E3F08F02E
:20424000B0CF9395880F08F09927EE0F9795879508950E9430216894B1110C94DB1F08959E
:204260000E94C01F88F09F5798F0B92F9927B751B0F0E1F0660F771F881F991F1AF0BA95E3
:20428000C9F714C0B13091F00E94DA1FB1E008950C94DA1F672F782F8827B85F39F0B93FA2
:2042A000CCF3869577956795B395D9F73EF490958095709561957F4F8F4F9F4F08950E94C4
:2042C000FC1E08F48FEF08950E94FC1E880B990B089581E090E0F8940C948621FB01DC01A0
:2042E0008D91019080190110D9F3990B0895FB01DC014150504048F001900D920020C9F716
:2043000001C01D9241505040E0F7089511E0CFE3D1E004C0FE010E94A2202196C034D1079A
:20432000C9F7F894FFCFFFFFFF00FCE1A8A8FFB10499029B046B026A016102C604B3027C15
:2043400001DF0417034102B70AB70AFFFF6400000000007303200000000000BE05BD05BC61
:204360000500000000D210D110D010CF10CE10050700020406070707070707070707070773
:2043800007070707070707070707070707070707070103000000004F0BB80AE70A960B18DC
:2043A0000BF60A0A0B00000000C605BF05B60500000000D210D110C0119410CE100000007D
:2043C000009511931092109112CE10322E332E30004E6F64654D616E6167657200312E37A9
:2043E0000052454220503D004E002D00520041004F4B002C005349474E414C00434F4E467F
:204400004947000D0A006E616E00696E66006F766600FFFFFFFFFFFFFFFFFFFFFFFFFFFF3E
:20442000FFFFFFFFFFFFFFFFFFFFFFFFFFFFFFFFFFFFFFFFFFFFFFFFFFFFFFFFFFFFFFFF9C
:20444000FFFFFFFFFFFFFFFFFFFFFFFFFFFFFFFFFFFFFFFFFFFFFFFFFFFFFFFFFFFFFFFF7C
:20446000FFFFFFFFFFFFFFFFFFFFFFFFFFFFFFFFFFFFFFFFFFFFFFFFFFFFFFFFFFFFFFFF5C
:204480004C01B8E48B0E911CF401408151812417350709F0E6C07B018C01DB0114968C91A3
:2044A0001497982F977034966F019230E1F415969C919033C1F482958695877009F0CEC0B2
:2044C000B701695F7F4FCE0101960E941D27AB80BC80F4E6AF16B1040CF0B4C0F501319759
:2044E000E531F105A0F0F701858190E0D6012D913C918217930709F0B4C0D801ED91FC91CC
:204500000680F781E02DB701C8010995AAC0E55AFF4F0C946634CE0101960E942622F801F7
:20452000EA5BFF4F83C0CE0101960E942622D4018D939C937DC0CE0101960E942622F601AD
:2045400080839183D80117968C9372C08D819E81F801E25BFF4F6AC0CE0101960E94262242
:20456000F801E05BFF4F62C0CE0101960E942622F801EE5AFF4F5AC0CE0101960E9426224E
:20458000F801EC5AFF4F21E0892B09F420E020834FC0CE0101960E94262241E050E036C093
:2045A000CE0101960E942622F801EB5AFF4F3EC0CE0101960E942622F801E95AFF4F36C051
:2045C000CE0101960E94262241E050E014C0CE0101960E94262240E050E00DC0CE01019693
:2045E0000E94262242E050E006C0CE0101960E94262243E050E0BC01F801EB58FF4F0AC005
:20460000CE0101960E94262242E050E0BC01F801E958FF4F808191810E94D52709C0CE016A
:2046200001960E942622F801E75AFF4F91838083B501C80183960E94701ABC01C8010E946E
:20464000051F51CFD801ED91FC910488F589E02DBE016F5F7F4FC801099545CF60E070E0B5
:2046600032CF26960FB6F894DEBF0FBECDBFDF91CF911F910F91FF90EF90DF90CF90BF90EB
:20468000AF909F908F900895089580E090E00895FC01538D448D252F30E0842F90E0821B14
:2046A000930B541710F0CF96089501970895FC01918D828D981761F0828DDF01A80FB11D1C
:2046C0005D968C91928D9F5F9F73928F90E008958FEF9FEF0895FC01918D828D981731F0CA
:2046E000828DE80FF11D858D90E008958FEF9FEF0895FC01918D228D892F90E0805C9F4F22
:20470000821B91098F739927089588E092E00E94792321E0892B09F420E0822F0895FC01EE
:20472000848DDF01A80FB11DA35ABF4F2C91848D90E001968F739927848FA689B7892C9320
:20474000A089B1898C9180648C93938D848D981306C00288F389E02D80818F7D8083089574
:20476000EF92FF920F931F93CF93DF93EC0181E0888F9B8D8C8D981305C0E889F9898081F5
:2047800085FD24C0F62E0B8D10E00F5F1F4F0F731127E02E8C8DE8120CC00FB607FCFACFF3
:2047A000E889F989808185FFF5CFCE010E948F23F1CF8B8DFE01E80FF11DE35AFF4FF082C1
:2047C0000B8FEA89FB898081806207C0EE89FF896083E889F98980818064808381E090E010
:2047E000DF91CF911F910F91FF90EF900895CF93DF93EC01888D8823C9F0EA89FB898081BC
:2048000085FD05C0A889B9898C9186FD0FC00FB607FCF5CF808185FFF2CFA889B9898C910D
:2048200085FFEDCFCE010E948F23E7CFDF91CF91089580E090E0892B29F00E948523811179
:204840000C940000089508950895CF92DF92EF92FF920F931F930E9414106B017C018091E9
:20486000A5029091A602A091A702B091A80297018601081B190B2A0B3B0B40912701509148
:2048800028016091290170912A0140175107620773072CF0C816D906EA06FB06B4F482E042
:2048A00090E0909326018093250188E39AE00E94200B82E090E00E949F0DC092A502D092D8
:2048C000A602E092A702F092A8021F910F91FF90EF90DF90CF900895CF92DF92EF92FF923C
:2048E0000F931F930E9414106B017C018091A9029091AA02A091AB02B091AC029701860140
:20490000081B190B2A0B3B0B40912701509128016091290170912A014017510762077307F9
:204920002CF0C816D906EA06FB06B4F483E090E0909326018093250181E39AE00E94200B04
:2049400083E090E00E949F0DC092A902D092AA02E092AB02F092AC021F910F91FF90EF907E
:20496000DF90CF900895EF92FF920F931F93CF93DF938C01EB01FC01E758FF4F808191817C
:20498000892B51F46130710529F0209729F4C1E0D0E002C0C0E0D0E0780186E4E80EF11CE1
:2049A0006C2FF70180810E94960E89E29AE00E94200BF801E85BFF4F808191810E944B0DD4
:2049C00085E29AE00E94200BF701808191810E944B0D81E29AE00E94200BCE01DF91CF91DB
:2049E0001F910F91FF90EF900C949F0D0F931F93CF93DF93EC01CB01FB01028113810936DA
:204A0000110509F16CF407361105B9F00836110509F050C00E942622FE01E358FF4F35C066
:204A20000A36110569F10B36110509F043C00E942622FE01E158FF4F2EC00E942622FE012C
:204A4000E758FF4F28C00E942622FE01EF57FF4F0190F081E02D1482158216821782108661
:204A60001186128613862CE3AC01249FC001259F900D112493838283148681E085870DC0A9
:204A80000E942622FE01E258FF4F21E0892B09F420E0208302C091838083B801CE018396D6
:204AA0000E94701ABC01CE01DF91CF911F910F910C94051FDF91CF911F910F910895FF920C
:204AC0000F931F93CF93DF93EC01FC01EA5BFF4FF08061E08F2D0E949E0FFE01E758FF4FE9
:204AE00061E080819181892B09F060E08E0105581F4F862F90E0F801918380838F2D0E9488
:204B0000960EC55ADF4FF8018081918199838883DF91CF911F910F91FF9008951F920F92D3
:204B20000FB60F9211242F933F934F935F936F937F938F939F93AF93BF93EF93FF9388E0FA
:204B400092E00E948F23FF91EF91BF91AF919F918F917F916F915F914F913F912F910F9090
:204B60000FBE0F901F9018951F920F920FB60F9211242F938F939F93EF93FF93E0911802CB
:204B8000F09119028081E0911E02F0911F0282FD12C09081809121028F5F8F7320912202EA
:204BA000821751F0E0912102F0E0E85FFD4F958F8093210201C08081FF91EF919F918F91A8
:204BC0002F910F900FBE0F901F901895CF93DF93EC011C861C821D821E821F821886198690
:204BE0001A861B86E881F98181A192A1019731F48D85882351F081E08C8707C00E94141080
:204C0000688779878A879B87F3CFDF91CF910895FC01CB01BA0121A132A12130310529F486
:204C2000EB5AFF4F2081211102C00C94281A693C710581059105CCF30C94B10D0F931F93C2
:204C4000CF93DF93EC018B01FC01E258FF4F80818823C1F06115710531F433960190F08149
:204C6000E02D14861EC061307105D9F441E050E061E070E0FE01EF57FF4F808191810E94B1
:204C8000D5270FC06130710561F4FE01EF57FF4F0190F081E02D8585882319F084858823D9
:204CA00039F1E881F981008CF18DE02DB801CE010995FE01E158FF4F40815181141615064C
:204CC0004CF4052E000C660B770BFB97808191810E940826FE01E558FF4F11830083C55A2D
:204CE000DF4F19830883DF91CF911F910F91089581E08487D6CF0F931F93CF93DF93EC017C
:204D00008B01FB0194819770913039F4FE01E358FF4F8081811110C008C0923069F4FE0130
:204D2000E358FF4F8081882339F0C8010E945405BC01CE010E941E26F80184818770823038
:204D400069F4FE01E358FF4F8081811107C0B297C558DF4F8881998191838083DF91CF9176
:204D60001F910F9108950F931F93CF93DF93FC01E55AFF4F2FEF3FEF318320837096318337
:204D800020838C010F571F4FD801ED91FC9125852223B9F024852223A1F0EC01CF010E94B5
:204DA0009827F801808191810E947627882349F060E070E0CE01DF91CF911F910F910C94E6
:204DC0001E26DF91CF911F910F9108950F931F93CF93FC01EC5AFF4FC081CC23B1F0611148
:204DE00015C0B39600811181F801C585CC2371F0C485CC2359F0C8010E947627C82F8823C4
:204E000029F0C8010E94E62501C0C1E08C2FCF911F910F910895FB01818181110CC0868136
:204E2000811109C08481877031F481E09581911103C080E0089581E008950F931F93CF9369
:204E4000DF93CDB7DEB72C970FB6F894DEBF0FBECDBF8C01CE0101960E94BA35AE01455FE6
:204E60005F4F6DEC71E0CE0101960E94462BCE0101960E94012BF801938382836B857C8528
:204E8000848195810E94BA358BE49AE00E94200BF801828193810E944B0D87E49AE00E941F
:204EA000200BC8010E9426220E944B0D83E49AE00E94200BF801848195810E94FD2A42E06D
:204EC0000E944D0C8FE39AE00E94200BF801848195810E94120B2C960FB6F894DEBF0FBECE
:204EE000CDBFDF91CF911F910F9108950F931F93FC0185858823C9F084858823B1F0448190
:204F000055816681778102811381012E000C220B330B40175107620773073CF4442777FD7E
:204F20004395552766277727842F1F910F9108950F931F93CF93DF93EC018D85882381F10E
:204F40008C85882369F1E881F98181A192A1019791F44C815D816E817F8183A194A1A5A1AD
:204F6000B6A1840F951FA61FB71F8C839D83AE83BF831E8615C00E941410088519852A853D
:204F80003B85601B710B820B930B28EE33E040E050E00E9444342C833D834E835F83E9CFC2
:204FA000DF91CF911F910F910895FC011482158216821782108611861286138641305105B4
:204FC00039F42CE3269FC001279F900D112415C04230510519F420E13EE008C0433051051D
:204FE00019F0738362830BC020E831E5629FC001639F900D729F900D11249383828381E024
:205000008587848708951F93CF93DF93CDB7DEB7A1970FB6F894DEBF0FBECDBFE8E0F2E024
:205020001382128288EE93E0A0E0B0E084839583A683B78385E391E09183808385EC90E0FB
:205040009587848784EC90E09787868780EC90E0918B808B81EC90E0938B828B82EC90E035
:20506000958B848B86EC90E0978B868B118E128E138E148E0E9414106093A9027093AA0257
:205080008093AB029093AC020E9414106093A5027093A6028093A7029093A802E7E4F3E04D
:2050A00080E5858311E0168388E0808385E69FE19283818386E293E00E94670585E093E0C9
:2050C0000E9467058DEA92E00E946705EDEAF2E012A211A213A214A215A216A28FEF9FEFD5
:2050E00090A787A312A611A621E030E034A723A74FEF50E056A745A750AB47A792AB81AB81
:2051000094AB83AB4FEF5FEFBA0145AB56AB67AB70AF46E1E6EEF2E0DF011D924A95E9F79E
:205120001092FC021093FD023093FF022093FE0228E532E030930103209300031093020372
:205140009093040380930303CE0101960E94670588EC8F8380E38E8381E2FE013196ADEADE
:20516000B2E001900D928A95E1F7A1960FB6F894DEBF0FBECDBFDF91CF911F9108957894CF
:2051800084B5826084BD84B5816084BD85B5826085BD85B5816085BD80916E00816080932A
:2051A0006E00109281008091810082608093810080918100816080938100809180008160DD
:2051C000809380008091B10084608093B1008091B00081608093B00080917A0084608093EB
:2051E0007A0080917A00826080937A0080917A008E7F80937A0080917A00806880937A0016
:205200001092C100A89580E090E0892B11F00E9400000E946E0E00E110E0F12CF801F59538
:20522000E795E55BF74FE49100FFE295EF70E83008F093C0F0E0E55BF74FF490C1E0D0E094
:205240008F2D0E94420CDF5FDC13FACF0F5F1F4F023F110519F784E498E00E94410B86E035
:2052600099E09F938F930E943E06809158038D7F809358030F900F9089EF98E09F938F9313
:205280000E943E060E9435170F900F9041E050E063E071E087E593E00E94A53348E050E066
:2052A0006BE171E089E593E00E94A5336FEF81E090E00E94CD3380916D038F7880936D031A
:2052C000109263031092620381E291E00E949F0582E39BE190937D0380937C031F921F922D
:2052E0001F921F9284EC98E09F938F930E943E060E9414100F900F900F900F900F900F90AA
:205300000E9414100E947C05A89580916C0382FFF7CF8CEE98E09F938F930E943E060E94D2
:205320001E1D0F900F9080916C0382FB882780F91F928F9384ED98E09F938F930E943E06D9
:20534000A8950F900F900F900F90A8950E947C050E94511D0E941924F8CFCBEFCE0F6FCFA9
:20536000EF920F931F93CF93DF93E80147FD02C034E001C034E1E42F440FFF0BF7FF03C082
:20538000F195E195F109E32E022F2E2FAE010E94DE2DCE01DF91CF911F910F91EF90089511
:2053A000CF93DF938230910510F482E090E0E0918003F091810320E030E0C0E0D0E03097DB
:2053C00011F14081518148175907C0F04817590761F482819381209719F09B838A832BC0C8
:2053E000909381038093800326C02115310519F04217530718F49A01BE01DF01EF010280AA
:20540000F381E02DDCCF2115310509F1281B390B2430310590F412968D919C911397611552
:20542000710521F0FB019383828304C09093810380938003FD01329644C0FD01E20FF31F02
:2054400081939193225031092D933C933AC020917E0330917F03232B41F420912D01309147
:205460002E0130937F0320937E0320912B0130912C012115310541F42DB73EB740912F013E
:2054800050913001241B350BE0917E03F0917F03E217F307A0F42E1B3F0B2817390778F085
:2054A000AC014E5F5F4F2417350748F04E0F5F1F50937F0340937E038193919302C0E0E0E7
:2054C000F0E0CF01DF91CF9108950F931F93CF93DF93009709F48CC0FC01329713821282C8
:2054E00000918003109181030115110581F420813181820F931F20917E0330917F03281788
:20550000390779F5F0937F03E0937E0371C0D80140E050E0AE17BF0750F412962D913C9188
:205520001397AD012115310509F1D901F3CF9D01DA013383228360817181860F971F821786
:20554000930769F4EC0128813981260F371F2E5F3F4F318320838A819B8193838283452B55
:2055600029F4F0938103E093800342C01396FC93EE931297ED01499159919E01240F351FD5
:20558000E217F30771F480819181840F951F029611969C938E938281938113969C938E93BA
:2055A0001297E0E0F0E0D80112968D919C911397009719F0F8018C01F6CF8D919C9198016D
:2055C0002E5F3F4F820F931F20917E0330917F032817390769F4309729F410928103109270
:2055E000800302C01382128210937F0300937E03DF91CF911F910F910895662777270C947C
:205600006C2FFC0188279927E89421912032E9F3293010F02E30C8F32B3241F02D3239F49B
:20562000689404C00E949C2B820F911D219120532A30C0F31EF4909581959F4F08951F9346
:20564000FC0199278827BC01E89411911032E9F3193010F01E30C8F31B3251F01D3249F479
:20566000689406C00E94872B610F711D811D911D119110531A30B0F33EF490958095709567
:2056800061957F4F8F4F9F4F1F910895FA01A191B081009719F41097E1F0CD01DC01CD013A
:2056A0000D90002011F4C00113C0FB012191222319F02015D9F7F3CFFB012191201519F4E1
:2056C0001E92119606C02223C1F70D900020A1F7D001FA01A193B0830895BB274A3031F40A
:2056E000992322F4BDE2909581959F4F0C94C72BBB272A3051F4992342F4BDE29095809532
:20570000709561957F4F8F4F9F4F0C94A52B592F482F372F262F660F771F881F991F660FEB
:20572000771F881F991F620F731F841F951F660F771F881F991F08957AE0979F902D879FA0
:20574000802D910D11240895BB27FA01A62F6217710581059105330B30FB66F0AA27660F6A
:20576000771F881F991FAA1FA21710F0A21B63953850A9F7A05DAA3308F0A95DA19336F79C
:20578000B111B1931082CA010C94D831BB27FB015527AA27880F991FAA1FA41710F0A41B40
:2057A00083955051B9F7A05DAA3308F0A95DA193009779F7B111B1931192CB010C94D8314F
:2057C000AEE0B0E0E6EEFBE20C94F8338C01CA014EE04C831A83098377FF02C060E070E8E1
:2057E000FB013197FE83ED83A901BC01CE0101960E940C2C4D815E8157FD0AC02F81388515
:20580000421753070CF49A01F801E20FF31F10822E96E4E00C941434ACE0B0E0E2E1FCE27F
:205820000C94EA337C016B018A01FC0117821682838181FFBDC1CE0101964C01F701938148
:20584000F60193FD859193FF81916F01882309F4ABC1853239F493FD859193FF81916F01E5
:20586000853229F4B70190E00E94E831E7CF512C312C20E02032A0F48B3269F030F480320F
:2058800059F0833269F420612CC08D3239F0803339F4216026C02260246023C0286021C0BF
:2058A00027FD27C030ED380F3A3078F426FF06C0FAE05F9E300D1124532E13C08AE0389EDB
:2058C000300D1124332E20620CC08E3221F426FD6BC1206406C08C3611F4206802C088366A
:2058E00041F4F60193FD859193FF81916F018111C1CF982F9F7D9554933028F40C5F1F4F1C
:20590000FFE3F9830DC0833631F0833771F0833509F05BC022C0F801808189830E5F1F4FD8
:2059200044244394512C540115C03801F2E06F0E711CF801A080B18026FF03C0652D70E058
:2059400002C06FEF7FEFC5012C870E94CD312C0183012C852F77222E17C03801F2E06F0EE9
:20596000711CF801A080B18026FF03C0652D70E002C06FEF7FEFC5012C870E94C2312C01BD
:205980002C852068222E830123FC1BC0832D90E048165906B0F4B70180E290E00E94E8313A
:2059A0003A94F4CFF50127FC859127FE81915F01B70190E00E94E83131103A94F1E04F1A64
:2059C00051084114510471F7E5C0843611F0893639F5F80127FF07C060817181828193813F
:2059E0000C5F1F4F08C060817181072E000C880B990B0E5F1F4F2F76722E97FF09C0909517
:205A00008095709561957F4F8F4F9F4F2068722E2AE030E0A4010E942032A82EA81844C067
:205A2000853729F42F7EB22E2AE030E025C0F22FF97FBF2E8F36C1F018F4883579F0B4C05F
:205A4000803719F0883721F0AFC02F2F2061B22EB4FE0DC08B2D8460B82E09C024FF0AC0D1
:205A60009F2F9660B92E06C028E030E005C020E130E002C020E132E0F801B7FE07C060819C
:205A80007181828193810C5F1F4F06C06081718180E090E00E5F1F4FA4010E942032A82E71
:205AA000A818FB2DFF777F2E76FE0BC0372D3E7FA51450F474FE0AC072FC08C0372D3E7EEC
:205AC00005C0BA2C372D03C0BA2C01C0B52C34FF0DC0FE01EA0DF11D8081803311F4397EF8
:205AE00009C032FF06C0B394B39404C0832F867809F0B39433FD13C030FF06C05A2CB3145F
:205B000018F4530C5B18B32CB31468F4B70180E290E03C870E94E831B3943C85F5CFB3140A
:205B200010F43B1801C0312C34FF12C0B70180E390E03C870E94E8313C8532FF17C031FDEB
:205B400003C088E790E002C088E590E0B7010CC0832F867859F031FF02C08BE201C080E205
:205B600037FD8DE2B70190E00E94E831A51438F4B70180E390E00E94E8315A94F7CFAA9482
:205B8000F401EA0DF11D8081B70190E00E94E831A110F5CF332009F451CEB70180E290E0B9
:205BA0000E94E8313A94F6CFF7018681978102C08FEF9FEF2C96E2E10C9406344F925F9281
:205BC0006F927F929F92AF92BF92CF92DF92EF92FF920F931F93CF93DF93CDB7DEB729970B
:205BE0000FB6F894DEBF0FBECDBF6A01122FB02E2BE3201720F0FF24F394F00E02C0BCE376
:205C0000FB2E0F2D27E0AE014F5F5F4F0E94C930AC018981982F9970913031F0E1FC06C066
:205C2000E0FE06C090E205C09DE203C09BE201C090E0EE2DE07183FF3CC0911102C083E0E8
:205C400001C084E0811718F4212F281B01C020E0E1110BC0F601822F30E2882319F0319338
:205C60008150FBCFC20ED11C20E0992329F0D6019C93F60131966F01C6010396E2FE0AC0B9
:205C80003EE4D6013C9341E411964C93119712963C9306C03EE6F601308341E6418332833E
:205CA000FC01322F40E2332309F442C041933150FACF82FF44C0911102C083E001C084E080
:205CC000811718F4212F281B01C020E0E1110BC0F601822F30E2882319F031938150FBCF42
:205CE000C20ED11C20E0992329F0D6019C93F60131966F01C6010396E2FE0BC039E4D601DF
:205D00003C933EE411963C93119736E412963C9307C039E6F60130833EE6318336E63283AA
:205D2000FC01322F40E2332319F041933150FBCFFC01E20FF11D10828EEF9FEFB7C0F1E084
:205D4000911101C0F0E06F2F70E01416150624F49A012F5F3F4F02C021E030E0260F371FB0
:205D6000BB2029F06B2D70E06F5F7F4F02C060E070E0260F371F612F70E0261737071CF463
:205D8000121B212F01C020E03E2D387159F4D601322F60E2332319F06D933150FBCFC20E70
:205DA000D11C20E0FF2331F0D6019C93B6016F5F7F4F6B01E1110BC0F601922F30E39923AA
:205DC00019F031939150FBCFC20ED11C20E09F2D940F3A81782F7071A72E84FF03C031335D
:205DE00009F49150191624F4993018F098E001C091E0E42F852F57FF02C0E0E080E06E2F67
:205E0000782FE0E0F0E0AEE29A2E3A01691A71082A01461A570A0B2D10E011950195110952
:205E20006F3F8FEF780729F4D6019C92C60101966C014617570784F0661677066CF47F01C2
:205E4000E40CF51CA1E0B0E0AC0FBD1FEA0EFB1ED7011196BC9002C090E3B92E6150710976
:205E60003196C60101967C016017710724F0D601BC926C01D5CF6417750741F4363320F49E
:205E8000353321F4A11002C081E3B82EF601B082F701822F90E2882319F091938150FBCF11
:205EA000F701E20FF11D108280E090E029960FB6F894DEBF0FBECDBFDF91CF911F910F9163
:205EC000FF90EF90DF90CF90BF90AF909F907F906F905F904F900895A0E0B0E0E2E7FFE2F6
:205EE0000C94EE33EC017B016115710519F0DB018D939C938E010F5F1F4F7880872D90E0D1
:205F00000E94A131892B11F0E801F4CFBDE27B1205C00F5F1F4F7980C1E008C0EBE27E1220
:205F200004C08E010E5F1F4F7980C0E06801F1E0CF1AD10843E050E068EE70E0C6010E943C
:205F4000AA31892BF1F4680122E0C20ED11C45E050E063EE70E0C6010E94AA31892B21F4A2
:205F6000680187E0C80ED11CE114F10419F0D701CD92DC92C111FFC060E070E080E89FE7E7
:205F800003C143E050E060EE70E0C6010E94AA31892B51F4E114F10409F4F2C00E5F1F4F9B
:205FA000F70111830083ECC0680160E070E0CB0100E010E0F601D0EDD70DDA3058F52C2F47
:205FC0002260622E2C2F2870C2FF05C0211128C00F5F1F4F25C0222311F001501109A5E025
:205FE000B0E09B01AC010E94DF334B015C01880C991CAA1CBB1CC501B4016D0F711D811D62
:20600000911D6839A9E97A078A07A9E19A0740F0C66005C0DE3F51F4C3FD44C0C8606C2E5F
:20602000BFEFCB1ADB0A7080C62DC4CF2D2F2F7D2531C1F540814D3211F4C06106C04B32B5
:2060400021F0319621E030E006C03296D60111964C9122E030E0A0EDA40FAA3018F0E21B3D
:20606000F30B20C040E050E04038BCE05B075CF49A01220F331F220F331F420F531F440F75
:20608000551F4A0F511D3196DF0111972C91A0EDA20FAA3048F3C4FF03C0519541955109CA
:2060A000040F151FC1FF07C0E114F10421F03197D701ED93FC930E948332C370C33019F0E2
:2060C0006B017C0106C06B017C01F7FAF094F7F8F09420E030E0A901C701B6010E947E32B5
:2060E000882309F445C017FF06C0119501951109CFEFD0E002C0C7E1D1E05E01B8E1AB1A7B
:20610000B1084601BE2DAF2D90E2E92EF12C0E151F0584F0FE012591359145915491B4016C
:206120008B2F9A2F0E94E4324B01B82FA92F0E191F09EDCF2497F594E794CA15DB0539F760
:206140006401EB2EFA2E8E2D880F8F2D881F8F3F49F020E030E0A901C701B6010E947E3252
:20616000811106C082E290E09093830380938203C701B60109C060E070E080E89FEF04C020
:2061800060E070E080EC9FE7CDB7DEB7EEE00C940A34283008F027E03327DA01990F311D36
:2061A00087FD916000966105710539F432602E5F3D9330E32A95E1F708959F3F30F08038DF
:2061C0007105610509F03C5F3C5F3D93913008F08068911DDF93CF931F930F93FF92EF925B
:2061E000192F987F9695E92F96959695E90FFF27EB58FE4F99273327EE24FF24A701E7011A
:2062000005900894079428F4360FE71EF81E491F511D660F771F881F991F0694A1F705902F
:20622000079428F4E70EF81E491F561FC11D770F881F991F661F0694A1F70590079428F4F9
:20624000F80E491F561FC71FD11D880F991F661F771F0694A1F70590079420F4490F561FDA
:20626000C71FD81F990F661F771F881F0694A9F784911095177041F0D695C795579547959C
:20628000F794E7941A95C1F7EBE1F1E068941590159135916591959105907FE27395E118D4
:2062A000F10A430B560BC90BD009C0F7E10CF11E431F561FC91FD01D7EF4703311F48A95EF
:2062C000E6CFE894015030F0080F0AF40027021708F4202F2395022F7A3328F079E37D9362
:2062E0002A95E9F710C07D932A9589F6069497956795379517951794E118F10A430B560B59
:20630000C90BD00998F023957E9173957A3308F070E37C932013B8F77E9170617D9330F080
:20632000839571E37D9370E32A95E1F71124EF90FF900F911F91CF91DF91992787FD90952B
:20634000089591110C945133803219F089508550C8F70895FB01DC014150504088F08D9185
:2063600081341CF08B350CF4805E659161341CF06B350CF4605E861B611171F3990B089511
:20638000881BFCCFFC010590615070400110D8F7809590958E0F9F1F0895FC01615070402C
:2063A00001900110D8F7809590958E0F9F1F0895DC01FC01672F71917723E1F7329704C0C9
:2063C0007C916D9370836291AE17BF07C8F308950F931F93CF93DF93FB01238121FD03C03E
:2063E0008FEF9FEF28C022FF16C046815781248135814217530744F4A081B1819D012F5F4E
:206400003F4F318320838C93268137812F5F3F4F3783268310C0EB01092F182F0084F18565
:20642000E02D0995892BE1F68E819F8101969F838E83812F902FDF91CF911F910F91089501
:20644000FA01AA27283051F1203181F1E8946F936E7F6E5F7F4F8F4F9F4FAF4FB1E03ED0A4
:20646000B4E03CD0670F781F891F9A1FA11D680F791F8A1F911DA11D6A0F711D811D911DD9
:20648000A11D20D009F468943F912AE0269F11243019305D3193DEF6CF010895462F47707A
:2064A000405D4193B3E00FD0C9F7F6CF462F4F70405D4A3318F0495D31FD4052419302D012
:2064C000A9F7EACFB4E0A6959795879577956795BA95C9F700976105710508959B01AC01DC
:2064E0000A2E06945795479537952795BA95C9F7620F731F841F951FA01D08950E94C03223
:2065000008F481E00895E89409C097FB3EF490958095709561957F4F8F4F9F4F9923A9F054
:20652000F92F96E9BB279395F695879577956795B795F111F8CFFAF4BB0F11F460FF1BC0EF
:206540006F5F7F4F8F4F9F4F16C0882311F096E911C0772321F09EE8872F762F05C0662327
:2065600071F096E8862F70E060E02AF09A95660F771F881FDAF7880F9695879597F9089520
:20658000990F0008550FAA0BE0E8FEEF16161706E807F907C0F012161306E407F50798F0E5
:2065A000621B730B840B950B39F40A2661F0232B242B252B21F408950A2609F4A140A6951B
:2065C0008FEF811D811D08950E94F7320C946B330E945D3338F00E94643320F0952311F0FF
:2065E0000C9454330C945A3311240C949F330E947C3370F3959FC1F3950F50E0551F629FBB
:20660000F001729FBB27F00DB11D639FAA27F00DB11DAA1F649F6627B00DA11D661F829FB3
:206620002227B00DA11D621F739FB00DA11D621F839FA00D611D221F749F3327A00D611DE1
:20664000231F849F600D211D822F762F6A2F11249F5750409AF0F1F088234AF0EE0FFF1F15
:20666000BB1F661F771F881F91505040A9F79E3F510580F00C9454330C949F335F3FE4F3BC
:20668000983ED4F3869577956795B795F795E7959F5FC1F7FE2B880F911D9695879597F9EB
:2066A000089599278827089597F99F6780E870E060E008959FEF80EC089500240A94161681
:2066C000170618060906089500240A9412161306140605060895092E0394000C11F4882384
:2066E00052F0BB0F40F4BF2B11F460FF04C06F5F7F4F8F4F9F4F089557FD9058440F551F40
:2067000059F05F3F71F04795880F97FB991F61F09F3F79F087950895121613061406551F54
:20672000F2CF4695F1DF08C0161617061806991FF1CF86957105610508940895E894BB27B8
:2067400066277727CB0197F90895DC01CB01FC01F999FECF06C0F2BDE1BDF89A319600B4F0
:206760000D9241505040B8F70895F999FECF92BD81BDF89A992780B50895DC01A40FB51F99
:206780004150504048F0CB01840F951F2E910E94CE3341505040D0F70895262FF999FECFF2
:2067A00092BD81BDF89A019700B4021639F01FBA20BD0FB6F894FA9AF99A0FBE08950E94F3
:2067C0002134A59F900DB49F900DA49F800D911D112408952F923F924F925F926F927F92CD
:2067E0008F929F92AF92BF92CF92DF92EF92FF920F931F93CF93DF93CDB7DEB7CA1BDB0BC5
:206800000FB6F894DEBF0FBECDBF09942A88398848885F846E847D848C849B84AA84B984E1
:20682000C884DF80EE80FD800C811B81AA81B981CE0FD11D0FB6F894DEBF0FBECDBFED0134
:206840000895A29FB001B39FC001A39F700D811D1124911DB29F700D811D1124911D08956A
:2068600097FB072E16F4009407D077FD09D00E946C3407FC05D03EF4909581959F4F08957D
:20688000709561957F4F0895A1E21A2EAA1BBB1BFD010DC0AA1FBB1FEE1FFF1FA217B30720
:2068A000E407F50720F0A21BB30BE40BF50B661F771F881F991F1A9469F7609570958095E0
:2068C00090959B01AC01BD01CF010895EE0FFF1F0590F491E02D0994AA1BBB1B51E107C0AC
:2068E000AA1FBB1FA617B70710F0A61BB70B881F991F5A95A9F780959095BC01CD010895A7
:206900005058BB27AA270E9498340C946B330E945D3338F00E94643320F039F49F3F19F4B5
:2069200026F40C945A330EF4E095E7FB0C945433E92F0E947C3358F3BA176207730784079D
