:200000000C942A050C94C7100C94A0100C9452050C9452050C9452050C948A0A0C9452053A
:200020000C9452050C9452050C9452050C9452050C9452050C9452050C9452050C94520508
:200040000C9456100C9452050C94B4250C948E250C9452050C9452050C9452050C945205FB
:200060000C9452050C945205F31C111DD01BD51BE11B1A1C311C451C4C1C551C111D111D65
:20008000111D111D111D111D111D111D5E1C671C701C7B1C111D111D111DF31C8A1C941C3D
:2000A000F01BA51CB01CB91C111D111D111DC11CC61CD21CE11C8B2293229B22A622AC22EA
:2000C000B422BC227322C922D022D8227322732273227322E022E7220023EE22F5220F2325
:2000E0004E414E494E495459494E46CDCCCC3D0AD7233C17B7D13877CC2B329595E6241F0D
:20010000B14F0A000020410000C84200401C4620BCBE4CCA1B0E5AAEC59D7400407A10F354
:200120005A00A0724E18090010A5D4E80000E87648170000E40B54020000CA9A3B000000D2
:20014000E1F505000080969800000040420F000000A08601000000102700000000E803003C
:200160000000006400000000000A00000000000100000000002C76D888DC674F0823DFC1B1
:20018000DFAE59E1B1B796E5E3E453C63AE651997696E8E6C28426EB898C9B62ED407C6F70
:2001A000FCEFBC9C9F40F2BAA56FA5F490055A2AF75C936B6CF9676DC11BFCE0E40D47FE33
:2001C000F520E6B500D0ED902E0300943577050080841E080000204E0A000000C80C3333D0
:2001E00033330F986E12831141EF8D2114893BE65516CFFEE6DB18D1844B381BF77C1D901E
:200200001DA4BBE424203284725E228100C9F124ECA1E53D27200054534D3A494E49540AD1
:20022000002154534D3A494E49543A545350204641494C0A005453463A5349443A4F4B2CBD
:2002400049443D25750A00215453463A5349443A4641494C2C49443D25750A0054534D3AEA
:20026000494E49543A5354415449443D25750A0054534D3A494E49543A545350204F4B0A0F
:200280000054534D3A465041520A002154534D3A465041523A4E4F205245504C590A0021D7
:2002A00054534D3A465041523A4641494C0A0054534D3A465041523A4F4B0A0054534D3A24
:2002C00049443A5245510A0054534D3A49440A002154534D3A49443A4641494C0A005453BD
:2002E0004D3A49443A4F4B0A0054534D3A55504C0A002154534D3A55504C3A4641494C0A43
:200300000054534D3A55504C3A444757432C4F3D25752C4E3D25750A0054534D3A55504C93
:200320003A4F4B0A0054534D3A52454144593A49443D25752C5041523D25752C4449533D6F
:2003400025750A002154534D3A52454144593A55504C204641494C2C534E500A00545346BA
:200360003A5444493A54534C0A0054534D3A4641494C3A4449530A0054534D3A4641494C73
:200380003A434E543D25750A0054534D3A4641494C3A52452D494E49540A00257354534652
:2003A0003A4D53473A53454E442C25752D25752D25752D25752C733D25752C633D25752C95
:2003C000743D25752C70743D25752C6C3D25752C73673D25752C66743D25752C73743D254D
:2003E000733A25730A00215453463A5254453A257520554E4B4E4F574E0A00215453463A05
:200400005254453A46504152204143544956450A00215453463A534E443A544E520A000043
:20042000000000240027002A0000000000250028002B0004040404040404040202020202A5
:20044000020303030303030102040810204080010204081020010204081020000000080003
:20046000020100000304070000000000000000214D434F3A534C503A5245500A004D434F38
:200480003A534C503A4D533D256C752C534D533D25752C49313D25752C4D313D25752C49AD
:2004A000323D25752C4D323D25750A0020463D0020493D0020533D0020543D0020433D005D
:2004C00020493D0053454E4420443D0054494D4520543D004F54413A4652513A465720527B
:2004E00045512C543D253034582C563D253034582C423D253034580A00214F54413A4652BB
:20050000513A465720555044204641494C0A005453463A4352543A4F4B0A004D434F3A500D
:20052000494D3A4E4F4445205245473D25750A004F54413A4352433A423D253034582C43E7
:200540003D253034582C463D253034580A00214F54413A4657503A4E4F20555044415445FD
:200560000A00214F54413A4657503A435243204641494C0A004F54413A4657503A435243D0
:20058000204F4B0A004F54413A4657503A465720454E440A00214F54413A4657503A5752A5
:2005A0004F4E47204657420A004F54413A4657503A5245435620423D253034580A004F54AC
:2005C000413A4657503A55504441544520534B49505045440A00214F54413A4657503A46D0
:2005E0004C41534820494E4954204641494C0A004F54413A4657503A5550444154450A0027
:20060000214F54413A4657503A5550444F0A005453463A504E473A53454E442C544F3D2591
:20062000750A00215453463A504E473A4143544956450A005453463A434B553A4641494CAE
:200640000A005453463A434B553A444757432C4F3D25752C4E3D25750A005453463A434BC5
:20066000553A4F4B0A005453463A434B553A4F4B2C464354524C0A005453463A4D53473A70
:2006800052454C2050784E472C48503D25750A005453463A4D53473A52454C204D53470A19
:2006A000005453463A4D53473A465744204243204D53470A00215453463A4D53473A475754
:2006C0004C204641494C0A005453463A4D53473A47574C204F4B0A005453463A4D53473A4A
:2006E00046504152205245512C49443D25750A005453463A4D53473A42430A005453463A31
:200700004D53473A41434B0A00215453463A4D53473A504F4E4720524543562C494E4143AB
:20072000544956450A005453463A4D53473A504F4E4720524543562C48503D25750A0054B2
:2007400053463A4D53473A50494E4745442C49443D25752C48503D25750A00215453463A71
:200760004D53473A4650415220494E4143544956450A005453463A4D53473A465041522021
:200780004F4B2C49443D25752C443D25750A005453463A4D53473A41434B205245510A00B5
:2007A000215453463A4D53473A505645522C2575213D25750A00215453463A4D53473A4C16
:2007C000454E2C2575213D25750A005453463A4D53473A524541442C25752D25752D257506
:2007E0002C733D25752C633D25752C743D25752C70743D25752C6C3D25752C73673D257573
:200800003A25730A00215453463A53414E3A4641494C0A005453463A53414E3A4F4B0A008B
:200820004D434F3A5245473A5245510A00214D434F3A534E443A4E4F4445204E4F54205293
:2008400045470A00322E322E300A00207C5F5C2F602C0A0702200220B287100340012000F4
:20086000240222100222020220022200222002022022271013410101010322203040203099
:20088000520340221402031052240221710100101012101222101002240101032203002067
:2008A00001010032203712100121322601284032221210121222432224121001222470C1C9
:2008C00022240F0F5453463A5755523A4D533D256C750A004D434F3A42474E3A494E49540A
:2008E000204F4B2C5453503D25750A004D434F3A42474E3A5354500A004D434F3A42474E1F
:200900003A4246520A004D434F3A42474E3A494E49542052455045415445522C43503D5295
:200920004E4F52412D2D2D2C5645523D322E322E300A0020543D0020503D0020503D005253
:20094000454720493D00204D3D00494E5420503D00204D3D00494E5420503D004C4F4144C1
:20096000534C5020543D0020423D0020533D0020413D0020543D0020453D0020523D004C9C
:20098000494220563D004E6F64654D616E616765722076002C20543D005052455320493D85
:2009A00000524541445900524144494F204F4B00204D3D004D5920493D004157414B45003A
:2009C0007300534C454550200057414B45555000434C454152005245424F4F540020503D5F
:2009E0000020543D0020433D0020493D005245435620533D0020543D005052455320493D8F
:200A00000020463D0020493D0020533D0020543D0020433D0020493D0053454E4420443D1B
:200A20000020563D0020503D00444F555420493D00494E5420503D00494E5420503D002024
:200A4000533D0020463D0020493D0052455120463D00032811241FBECFEFD8E0DEBFCDBF56
:200A600011E0A0E0B1E0E4EAFBE602C005900D92A03DB107D9F723E0A0EDB1E001C01D92D9
:200A8000A438B207E1F715E0CAE2D5E004C02197FE010E946634C932D107C9F70E94BF28C0
:200AA0000C94D0350C940000FC019481929596959770923019F4878190850895911104C097
:200AC000CF0107960C94012B80E090E00895CF93DF93FC0110821182128214821582168221
:200AE000DC0117968AE1ED0119928A95E9F782E08383DF91CF910895E0916203F0916303D7
:200B0000309721F00280F381E02D099580916C0384FD0C94021108950F931F930E941410F1
:200B200000916403109165032091660330916703601B710B820B930B1F910F9108959C01C3
:200B400080916203909163038217930751F090916C039F7190936C033093630320936203B1
:200B600005C080916C03805E80936C03E0916203F0916303309721F00190F081E02D09958E
:200B80000E94141060936403709365038093660390936703089508958EBD00000DB407FE76
:200BA000FDCF8EB508958CBD9DBD0895CF92DF92EF92FF920F931F93CF93DF93C82F7B01CA
:200BC000142F022F80E590E00E94D3052A98E0E1F0E03197F1F78C2F0E94CC05E701112305
:200BE000A9F0002349F08FEF0E94CC05E114F10459F08883219608C06E018FEFC81AD80AA1
:200C000088810E94CC05E6011150E9CF2A9AE0E1F0E03197F1F7DF91CF911F910F91FF90A4
:200C2000EF90DF90CF900895CF93DF931F92CDB7DEB7698320E041E0BE016F5F7F4F0E9422
:200C4000D6050F90DF91CF9108956FE080E20E941406609108016F3F19F08AE20E94140667
:200C60005F9A089521E041E060E070E00C94D60520E040E060E070E00C94D605EF92FF9274
:200C80000F931F93CF93DF93CDB7DEB7C857D1090FB6F894DEBF0FBECDBF8E010F571F4F70
:200CA000F801E190F1908F010E9414104AE00E94510B85E192E00E94200B9801A70168E796
:200CC00070E0CE0101960E94E02BCE0101960E944F0B88E092E00E94F723C858DF4F0FB6A6
:200CE000F894DEBF0FBECDBFDF91CF911F910F91FF90EF900895AF92BF92CF92DF92EF92C2
:200D0000FF920F931F93CF93DF93EC011A8180916C0380FF0CC01F3F49F18BEF93E09F9310
:200D20008F930E943E060F900F9000E0F2C0111103C0109105021AC01F3FC1F0812F90E045
:200D400003960E94B5338F3F81F41F921F9386EE93E09F938F930E943E06809105020F90F2
:200D60000F900F900F9098819813182F8091040288834B8142FD06C046954695469507E020
:200D8000040F01C000E2809107028170F82E5F9880E091E00197F1F76EE080E20E941406B8
:200DA00084EC90E00197F1F7612F8AE20E941406612F80E30E94140681EE0E9438061F3FBF
:200DC00021F0F11002C080EA01C080EB402F013208F040E220E0BE010E94D6055F9AC12CCB
:200DE000D12C8FEF0E943806082F807321F481E0C81AD108B1F75F9860E387E20E94140636
:200E000004FF03C081EE0E9438060E94250605FD03C00F2D017001C001E081E01F3F09F024
:200E200080E0082B8C818770833019F48D81813129F0CE010E94920BFC0102C0EDE7F1E010
:200E4000011103C068E871E002C065E871E050916D035F709B8192FBAA24A0F8492F46953A
:200E6000469546959C81B92EB294B69487E0B822ED809770CE80DA80A12FB0E0F8808981E9
:200E80002091070220FD05C0011106C02FE831E005C02DE831E002C023E931E0FF93EF93D8
:200EA0007F936F931F925F931F92AF921F924F931F92BF921F92EF921F929F931F92CF92CD
:200EC0001F92DF92BF93AF931F92FF921F928F933F932F938BE993E09F938F930E943E0692
:200EE0008DB79EB74E960FB6F8949EBF0FBE8DBF8091050218130DC080916D03011106C045
:200F000091E0980F9F70807F892B01C0807F80936D03802FDF91CF911F910F91FF90EF90D7
:200F2000DF90CF90BF90AF90089520916C0322FD0C947B0681E194E09F938F930E943E0648
:200F40000F900F9080E008950F931F930E948C0520916D032077203729F000E117E220E0CD
:200F600030E004C000E61AEE20E030E0061717072807390770F489E893E09F938F930E94B7
:200F80003E060F900F9081E291E01F910F910C949F051F910F91089580916D03982F90772B
:200FA000903759F0982F92959F709F5F97709295907F8F78892B80936D0380916D03829513
:200FC00087701F928F9388E793E09F938F930E943E0680916C038B7F8F7E80936C038AE6A2
:200FE00093E09F938F930E943E068DE593E09F938F930E943E065F988DB79EB708960FB632
:20100000F8949EBF0FBE8DBF6CE080E20C94140680916D038F708B3060F084E493E09F93CE
:201020008F930E943E060F900F9085E191E00C949F050895809106021F928F9380910502AE
:201040001F928F93809104021F928F9385E293E09F938F930E943E0680916C038460809348
:201060006C0380916D03807880936D03E0917C03F0917D038DB79EB708960FB6F8949EBF2F
:201080000FBE8DBF309709F00994089580916E038F3F79F10E9414106093680370936903F0
:2010A00080936A0390936B0389E193E09F938F930E943E0690916E03809106020F900F901F
:2010C0009817A1F01F929F931F928F9381E093E09F938F930E943E0680916E03809306026F
:2010E0000F900F900F900F900F900F9081E191E01DC00E948C05613D774081059105C0F032
:2011000080916C03803618F48DE091E00FC082EF92E09F938F930E943E0680916C03877F3D
:2011200080936C030F900F9085E191E00C949F0508950F9389EE92E09F938F930E943E0672
:201140008FEF80936E03ECE6F3E080818860808300E028E143E06FEF80E00E94E70A61E05E
:201160000E947D1A0F900F900F910C947B06809104028F3F59F08EED92E09F938F930E9426
:201180003E060F900F908DE091E018C00E948C05613D77408105910598F080916C038036B5
:2011A00018F489E091E00AC080ED92E09F938F930E943E060F900F908DE191E00C949F0505
:2011C00008950F9388EC92E09F938F930E943E060F900F90809104028F3FB1F48CEB92E0FF
:2011E0009F938F930E943E0600E023E043E06FEF80E00E94E70A63E971E00E94891A0F90DD
:201200000F900F910C947B060F9108950E948C05613D77408105910520F480916C0381FF79
:201220000895809105028F3F81F08FEA92E09F938F930E943E0680916C038E7F80936C0386
:201240000F900F9089E091E019C080916C03803658F48BE892E09F938F930E943E060F905D
:201260000F9085E191E00AC08FE992E09F938F930E943E060F900F908DE191E00C949F05A9
:201280000F9381E892E09F938F930E943E06ECE6F3E08081897F81608083E4E0F2E08FEFF1
:2012A0008283818300E027E043E06FEF0E94E70A63E971E00E94891A0F900F900F910C94CA
:2012C0007B06CF93DF93579A229A5F982A9ACFB7F8948091D001811127C0EDE3F4E084912B
:2012E000E1E5F4E09491E82FF0E0EE0FFF1FE15EFB4FA591B491EC91E92321F461E08AE0E0
:201300000E94960E61E08AE00E949E0F8CB580618CBD8CB580648CBD61E08DE00E949E0FB7
:2013200061E08BE00E949E0F8091D0018F5F8093D001CFBF6EE080E20E94140665E070E06F
:2013400080E090E00E94DA0F63E083E20E9414066FE584E20E9414066CE485E20E941406E5
:2013600065E286E20E94140663E780E50E94140664E08DE30E94140686E00E943206853230
:2013800009F092C085E00E9432068C3409F08CC062E082E20E94140660E081E20E941406FD
:2013A00063E08CE30E941406DFEFD093030120E045E063E071E08BE20E94D60520E045E0C2
:2013C00063E071E08AE20E94D60520E045E063E071E080E30E94D60582EE0E94380681EE38
:2013E0000E94380660E787E20E94140680E792E09F938F930E943E0680916C03806180931A
:201400006C03809107028E7F809307021F92C8ECCF938CE592E09F938F930E943E06C093E3
:20142000040268EC80E090E00E94CD33C09104020F900F900F900F900F900F90CF3F89F147
:201440008FEF8C0F8E3FF0F4C093080163E082E20E94140661E081E20E9414060E942506D6
:201460006C2F80E090E00E94CD331F92CF9385E392E09F938F930E943E060F900F900F905B
:201480000F900FC01F921F9287E492E09F938F930E943E06D09304020F900F900F900F9080
:2014A0000BC085E191E00AC081E292E09F938F930E943E060F900F908DE191E0DF91CF91C4
:2014C0000C949F0587E192E09F938F930E943E06ECE6F3E08081877F8F7E808310926803EB
:2014E0001092690310926A0310926B030E94141060937103709372038093730390937403F7
:201500000F900F9044E050E060E070E084E092E00C94A5331F920F920FB60F9211240F90CF
:201520000FBE0F901F9018953FB7F8948091530390915403A0915503B091560326B5A89B41
:2015400005C02F3F19F00196A11DB11D3FBFBA2FA92F982F8827820F911DA11DB11DBC016F
:20156000CD0143E0660F771F881F991F4A95D1F708950895CF92DF92EF92FF920F931F93F7
:20158000CF93DF936C017A018B01C0E0D0E0CE15DF0589F0D8016D918D01D601ED91FC912C
:2015A0000190F081E02DC6010995892B11F47E0102C02196ECCFC701DF91CF911F910F9163
:2015C000FF90EF90DF90CF9008950E949F350F931F93E5E0F3E09091040291838283668307
:2015E000258347708481807F482B88E0089F80011124042B0F7E0483CF011F910F91089550
:20160000009769F0FC0101900020E9F73197AF01481B590BBC0188E092E00C94BA0A80E0B2
:2016200090E00895CF93DF930E94000BEC0181E991E00E94000B8C0F9D1FDF91CF910895E3
:201640000F931F93CF93DF938C01C0E0D0E0F801EC0FFD1F6491662371F0E0910802F0919A
:2016600009020190F081E02D88E092E00995892B11F02196ECCFCE01DF91CF911F910F91C2
:201680000895CF93DF930E94200BEC0181E991E00E94000B8C0F9D1FDF91CF9108950C9433
:2016A000000B8F929F92AF92BF920F931F93CF93DF93CDB7DEB7A1970FB6F894DEBF0FBE07
:2016C000CDBF19A2423008F44AE08E010F5D1F4F842E912CA12CB12CA50194010E94443454
:2016E000E62FB901CA0101501109EA3014F4E05D01C0E95CD801EC93232B242B252B61F7E3
:20170000C8010E94000BA1960FB6F894DEBF0FBECDBFDF91CF911F910F91BF90AF909F90F8
:201720008F9008950F931F93CF93DF93EC018C8182958695877091F44B81469546954695C0
:2017400050E0BE01695F7F4F81ED91E00E94C135EB81E695E695E695F0E077C0813031F4D3
:201760008F814AE061ED71E090E007C0823041F44AE061ED71E08F8198850E946D2B68C01A
:20178000833041F44AE061ED71E08F8198850E94C62B5EC0843051F46F81788589859A85A7
:2017A0002AE041ED51E00E94782B52C0853051F46F81788589859A852AE041ED51E00E944A
:2017C000A42B46C0873071F42B85293008F028E06F81788589859A8501ED11E042E00E9452
:2017E000B02936C08630A1F520E0EB81E695E695E6952E1738F5E22FF0E0AF01440F551F27
:20180000DA01AF52BE4FEC0FFD1F8781082E000C990B34E0959587953A95E1F78F708A3020
:2018200010F4805D01C0895C8C93DA01AE52BE4F87818F708A3010F4805D01C0895C8C93B3
:201840002F5FD3CFF0E0EE0FFF1FEF52FE4F108281ED91E0DF91CF911F910F9108958091A0
:201860002A03829586958770813019F480912D030895811105C08DE293E00E94012B0895D2
:2018800080E00895E0910802F09109020190F081E02D682F88E092E009944F925F926F9254
:2018A0007F928F929F92AF92BF92CF92DF92EF92FF926B017C01B42E9B01AC010E949A35CA
:2018C000882319F084E991E027C026013701E89477F82FEF3FEF4FE75FE7C301B2010E9464
:2018E0009A3581110DC02FEF3FEF4FE75FE7C301B2010E947E3218161CF488E991E00CC03D
:201900002FEF3FEF4FE75FE4C701B6010E949535181684F48CE991E0FF90EF90DF90CF90AF
:20192000BF90AF909F908F907F906F905F904F900C94000B2FEF3FEF4FE75FECC701B601F8
:201940000E947E3287FDE6CF20E030E0A901C701B6010E947E3287FF09C08DE20E94420CC3
:201960004C01F7FAF094F7F8F09402C0812C912CA12C60E070E080E09FE3AB1441F020E0D7
:2019800030E040E251E40E94ED34A394F6CF9B01AC01C701B6010E9481342B013C010E94F7
:2019A00066356B017C010E9483329B01AC01C301B2010E9480342B013C014AE0C701B60124
:2019C0000E94510B7C01E80CF91CBB2029F08EE20E94420CE80EF91EDB2CDD2021F120E00C
:2019E00030E040E251E4C301B2010E94E4322B013C010E9466354B01A12CB12C4AE0C501C5
:201A0000B4010E94510BE80EF91EC501B4010E9483329B01AC01C301B2010E9480342B01F2
:201A20003C01DA94DACFC701FF90EF90DF90CF90BF90AF909F908F907F906F905F904F90F6
:201A40000895CF92DF92EF92FF92CF93DF9397FF19C06B017C018DE20E94420CEC01662700
:201A60007727CB016C197D098E099F094AE00E94510B8C0F9D1FDF91CF91FF90EF90DF90E6
:201A8000CF9008954AE0DF91CF91FF90EF90DF90CF900C94510BBC01990F880B990B0C943C
:201AA000210D682F70E080E090E04AE00C94510BEF92FF920F931F93CF93DF930091D0027E
:201AC0001091D1022091D2023091D302011511052105310569F1E8010F3F11057CF0C80113
:201AE0006FEF70E00E9430347B0181E0869FE001879FD00DD61B1124C00FD11F61E08DE9B0
:201B000091E00E94CD336C2F82EA91E00E94CD336E2D83EA91E00E94CD3360E084EA91E05E
:201B2000DF91CF911F910F91FF90EF900C94CD33DF91CF911F910F91FF90EF900895CF93AA
:201B4000DF93BC01990F880B990B0E94210DEC0181E991E00E94000B8C0F9D1FDF91CF910B
:201B60000895CF93DF9300D000D0CDB7DEB71F922FEF2F931F922F931F922F931F922F9351
:201B80001F921F929F938F937F936F932DE734E03F932F9369837A838B839C830E943E06C3
:201BA0002FE634E03F932F930E943E0669817A818B819C810E94281A0FB6F894DEBF0FBED5
:201BC000CDBF8EEF0F900F900F900F90DF91CF910895EF92FF920F931F93CF93DF93EC01EC
:201BE00000E010E07C0187E0E80EF11C8091D8029091D902081719070CF069C06091D6021A
:201C00007091D7021616170634F4072E000C880B990B0E94B10D84EC94E00E94200B8A81E5
:201C20000E94510D80EC94E00E94200B8E810E94510D8CEB94E00E94200B8C8187700E948A
:201C4000510D88EB94E00E94200B8D810E94510D84EB94E00E94200B8C818295869587707E
:201C600011F4C70102C080E090E00E944F0B80EB94E00E94200BCE010E9454050E944B0D99
:201C80008CEA94E00E94200B9C81929596959770973029F46F81788589859A8509C09111AE
:201CA00004C0C7010E94FD2A03C060E070E0CB0142E00E944D0C81E991E00E94000B60911A
:201CC000FC02CE010E94501A0F5F1F4F8FCFDF91CF911F910F91FF90EF900895E8E0F2E08C
:201CE000A089B18982E08C93A485B5851C92A685B78588E08C93108EA489B58986E08C9373
:201D0000A289B3898C9180618C93A289B3898C9188608C93A289B3898C9180688C9302889F
:201D2000F389E02D80818F7D8083089590E0FC01E55AFB4F3491FC01E95BFB4F2491FC0175
:201D4000ED5CFB4FE491EE2309F43BC0332339F1333091F038F43130A9F0323001F584B557
:201D60008F7D12C0373091F03830A1F03430B9F4809180008F7D03C0809180008F77809389
:201D800080000DC084B58F7784BD09C08091B0008F7703C08091B0008F7D8093B000F0E0C3
:201DA000EE0FFF1FE75DFB4FA591B4918FB7F894EC91611103C020952E2301C02E2B2C939C
:201DC0008FBF0895CF93DF93C7E4D3E061E088810E94960E0E94CB058B818CBD8C818DBD38
:201DE000DF91CF910895CF93DF938CB5C7E4D3E08B838DB58C838D819E810E94D30560E0BD
:201E00008881DF91CF910C94960ECF93DF931F92CDB7DEB70E94F30E85E00E94CC0580E02C
:201E20000E94CC0589830E94E20E898181700F90DF91CF9108951F93CF93DF931F92CDB7CF
:201E4000DEB7182F662331F060E086E00E941B0F0E94E20E0E94F30E85E00E94CC0580E01D
:201E60000E94CC0589830E94E20E898180FDF2CF0E94F30E812F0F90DF91CF911F910C94F7
:201E8000CC054F925F926F927F928F929F92AF92BF92CF92DF92EF92FF920F931F93CF930F
:201EA000DF934B015C016A018901CB019927C0E0D1E0C81BD90BE12CF12C0115110569F1BE
:201EC0000C171D0708F4E80161E082E00E941B0F8A2D0E94CC05892D0E94CC05882D0E94BD
:201EE000CC0526014E0C5F1C3201F30181913F010E94CC05C301841995098C179D07A8F348
:201F00000E94E20E8C0E9D1EA11CB11CEC0EFD1E0C1B1D0BC0E0D1E0D0CFDF91CF911F917C
:201F20000F91FF90EF90DF90CF90BF90AF909F908F907F906F905F904F900895CF93DF93FC
:201F400090E0FC01E95BFB4F2491FC01ED5CFB4F8491882361F190E0880F991FFC01E15E34
:201F6000FB4FC591D491FC01E75DFB4FA591B491611109C09FB7F8948881209582238883CB
:201F8000EC912E230BC0623061F49FB7F8943881822F809583238883EC912E2B2C939FBFBC
:201FA00006C08FB7F894E8812E2B28838FBFDF91CF9108958F929F92AF92BF92CF92DF92AB
:201FC000EF92FF926B017C010E94940A4B015C01C114D104E104F104F1F00E94940ADC019B
:201FE000CB0188199909AA09BB09883E9340A105B10570F321E0C21AD108E108F10888EEF5
:20200000880E83E0981EA11CB11CC114D104E104F10419F7DDCFFF90EF90DF90CF90BF901C
:20202000AF909F908F9008952FB7F89460914F037091500380915103909152032FBF089507
:20204000CF92DF92EF92FF92CF93DF93D82F0E9414106B017C0181E0D11180E080932B032E
:20206000C0E00E941410AB01BC014C195D096E097F09403D57406105710580F4C1110EC0C3
:20208000A8950E947C0590912A039770933049F7C1E080912B038D13E3CFE3CF8C2FDF9179
:2020A000CF91FF90EF90DF90CF9008951F920F920FB60F9211242F933F938F939F93AF9330
:2020C000BF9380914F0390915003A0915103B091520330914E0326E0230F2D3720F4029662
:2020E000A11DB11D05C029E8230F0396A11DB11D20934E0380934F0390935003A0935103C1
:20210000B09352038091530390915403A0915503B09156030196A11DB11D80935303909376
:202120005403A0935503B0935603BF91AF919F918F913F912F910F900FBE0F901F9018954A
:202140001F920F920FB60F9211242F933F934F935F936F937F938F939F93AF93BF93EF93AC
:20216000FF93E0911B01F0911C010995FF91EF91BF91AF919F918F917F916F915F914F9134
:202180003F912F910F900FBE0F901F9018951F920F920FB60F9211242F933F934F935F93F3
:2021A0006F937F938F939F93AF93BF93EF93FF93E0911901F0911A010995FF91EF91BF91EA
:2021C000AF919F918F917F916F915F914F913F912F910F900FBE0F901F901895CF93DF93C4
:2021E000CDEAD2E06DAB7EAB8FAB98AF8CEC94E00E94200B6DA97EA98FA998ADDF91CF9171
:202200000C94210D2F923F924F925F926F927F928F929F92AF92BF92CF92DF92EF92FF92B2
:202220000F931F93CF93DF93CDB7DEB72D970FB6F894DEBF0FBECDBF0E9414100091710387
:20224000109172032091730330917403DC01CB01801B910BA20BB30B813A9B4BAD40B1057A
:2022600000F10E9414106093710370937203809373039093740386E00E943206853229F491
:2022800085E00E9432068C3419F185E098E09F938F930E943E068DE191E00E949F050F905A
:2022A0000F9016E0312E03E2C02E06E0D02E8FE0A82E86E0B82E9AE5892E96E0992E87E107
:2022C0000E94320680FD3EC53A94311008C03AC584E198E09F938F930E943E06E0CF21E007
:2022E00041E060E070E080E60E94D605282E40E2481720F482EE0E943806212C21E0422D52
:2023000066E273E081E60E94D60560E487E20E94140680912903382F3695369536953A3165
:2023200008F039E182FD04C0B7E0FB2EF30E02C0A0E2FA2E80912A0387708B8700912B0315
:2023400010912703E0902603409128034C87833011F4013139F086E293E03D870E94920B59
:202360003D8502C08DE791E0632E712C412E512C9F938F938091290382FB882780F91F92F3
:202380008F931F923F9380912A038295869587701F928F931F920F931F923B853F938091B7
:2023A0002C031F928F931F924C854F931F92EF921F921F93ABECB7E0BF93AF930E943E067A
:2023C0000FB6F894DEBF0FBECDBF2F1439F01F92FF921F922F9286EB97E00CC080912903A5
:2023E0008370823091F01F9292E09F931F928F9380EA97E09F938F930E943E060F900F9036
:202400000F900F900F900F905ACF80910502E81649F080910402181729F06E2DC201039672
:202420000E94CD3380916D03806880936D03809104023C853813D0C130912903832F8695A0
:20244000869586958A3108F089E148E0849FC00111243770832B80932903F301EA5DFC4FCE
:20246000178280912A0383FF21C08FE897E09F938F930E943E0681E2E6E2F3E0A5E0B3E0E4
:2024800001900D928A95E1F780910903877F80618093090380910402809306031093070312
:2024A00085E093E00E9495070F900F9090912A0394FD85C13B85333041F480912B0331EFEC
:2024C000380F333008F02AC2FACE3B85343009F07EC110912B03113009F06CC080916103A0
:2024E000882339F080E096E09F938F930E943E0611C448E050E06DE273E089E593E00E94A6
:20250000A435892B09F453C080EF95E09F938F930E943E0688E0EDE2F3E0A9E5B3E0019044
:202520000D928A95E1F78CB580934A038DB580934B0361E0809147030E949E0F80E580935E
:202540004C0310934D030E94E20E60E08BEA0E941B0F0E94E20E0F900F90809148039091D9
:202560004903892B09F41CC30E94F30E8FE90E94CC0580E00E94CC05082F10E0102F002791
:2025800080E00E94CC05082B0E94E20E80914803909149030817190709F402C386ED95E0F1
:2025A0009F938F930E943E0610926103B3C38EEB95E007C1133009F00AC180916103882388
:2025C00009F4FAC0809132038F93809131038F9389EA95E09F938F930E943E06009131038E
:2025E0001091320360917A0370917B03CB0101970F900F900F900F900817190719F085E982
:2026000095E072CFE4E0660F771FEA95E1F76650710980E090E020E130E043E353E00E94D2
:20262000410F0E94050F8111FCCF10937B0300937A03012B09F0B4C085E895E09F938F9337
:202640000E943E06109261030F900F900AE010E0EE24EA94FE2C80915D0390915E03AC011C
:2026600034E0440F551F3A95E1F798012A5031092417350740F560E083E00E941B0F80E010
:202680000E94CC05C801892F0E94CC05802F0E94CC0580E00E94CC058D870E94E20E8D8526
:2026A000E82688E0970136952795E0FE06C0790141E0E42640EAF42601C07901815091F764
:2026C0000F5F1F4FC8CF209160032F9320915F032F93FF92EF929F938F9380E395E09F936C
:2026E0008F930E943E060FB6F894DEBF0FBECDBF80915F0390916003E816F90609F048C096
:2027000085E795E09F938F930E943E0648E050E06BE171E089E593E00E94BD3380915D03C5
:2027200090915E0324E0880F991F2A95E1F7AE014F5F5F4F2AE0DA011D922A95E9F726E4E5
:2027400029832CE42A8328E52B8329E42C832DE42D8327E42E832AE32F832A87988789877D
:202760002AE030E060E070E0CB010E94410F0F900F900E94050F8111FCCF98E088E10FB6FA
:20278000F894A895809360000FBE90936000FFCF82E695E09F938F930E943E060F900F908A
:2027A00086E0809379031092750310927603109277031092780383CD8EE495E095CE8CEFA1
:2027C00096E09F938F930E943E060F900F9086E293E00E94631B73CD2C852F3F09F06EC08A
:2027E000A0EFB6E0BF93AF930E943E060F900F903B85333009F054C080916C0382FF32C0D9
:20280000073081F580910502181709F458CD1F921F93A8EDB6E0BF93AF930E943E060E94F8
:202820001410409068035090690360906A0370906B03DC01CB0184199509A609B7090F9030
:202840000F900F900F9080319742A105B10508F066C186E696E09F938F930E943E060F90DB
:202860000F9033C2083009F42ACD0431C9F480910502E81215C00E941410737088279927A7
:202880000E94DA0F7090050200E025E143E06FEF812F0E94E70A672D0E947D1A0E947B060C
:2028A00080910502E8120BCD80910402181709F4BEC280916C0382FD30C2B9C280916C037F
:2028C00082FFFDCCA0E9B6E0BF93AF930E943E060F900F903B853330E1F428EE200F223048
:2028E000C0F40E942F0C8E3FA1F01F928F93A8E7B6E0BF93AF938D870E943E068D8561E010
:20290000680F86E293E00E947D1A0F900F900F900F9086E293E00E947B06D1CC043009F4E4
:20292000CECC083011F500916C0300FF1BC00E942F0C8F3F09F4C3CC8F5F8F3F09F4BFCC6A
:2029400090910602891708F0BACC01FDB8CC80930602109305021F928F931F921F9383E749
:2029600097E048CD8BE597E0BFCD0831C9F40E942F0C1F928F931F921F938FE397E09F9334
:202980008F930E943E0600E029E143E06FEF812F0E94E70A61E00E947D1A0E947B062ECDE9
:2029A000093199F480916C0383FF0CC0877F80936C030E942F0C80936E031F928F9386E25E
:2029C00097E026C089E097E08FCD309127033111A3C08D3059F498E088E10FB6F894A89555
:2029E000809360000FBE90936000FFCF8B31A9F40E942F0C91E0811101C090E08091580370
:202A000090FB80F9809358031F929F938BE195E09F938F930E943E06ACC0863099F4909176
:202A20002D0381E0992319F09D3409F080E08093570341E050E063E071E087E593E00E9443
:202A4000BD333DCC833119F40E94D61A38CC8231E1F40E948C052B013C0100E026E143E0F8
:202A60006FEF80E00E94E70AFC0184818F71806A84838381877080628383478250866186A9
:202A80007286CF010E9495071ACC8130D9F4929596959770953049F460912D0370912E031E
:202AA00080912F03909130030AC0911105C08DE293E00E941F2B03C060E070E0CB010E94BF
:202AC000EE10FDCB8A3029F580912D03833409F0F6CB03E010E06FEFC8010E94CD330F5F9C
:202AE0001F4F033041E01407B1F78FE095E09F938F930E943E0600E02AE043E06FEF80E068
:202B00000E94E70A65E871E00E94891A0E94950701C18C3199F5D3CB8A3181F5D0CB809179
:202B20006C0383FD90C01F921F92BF92AF920E943E060F900F900F900F9080910402811157
:202B400057C010926E0380916C03877F80936C0300916E030F3F09F07DC0A4E3B6E0BF934E
:202B6000AF930E943E06A5EBB6E0BF93AF930E943E060F900F900F900F90A1CB0E3109F469
:202B80009ECB0D3109F023CE00E02FE143E06FEF80E00E94E70A60E07FEF0E94701ABBCEDD
:202BA00061E081E00E941B0F80E00E94CC050E94E20E61E082E50E941B0F80E00E94CC05FB
:202BC00080E00E94CC0580E00E94CC050E94E20E0E94050F8111FCCF80915D0390915E03B7
:202BE00090937B0380937A0381E080936103D8CD80916C03886080936C03EC84E0926E03EA
:202C000000E028E143E06FEF80E00E94E70A61E00E947D1A0E947B060E9414102B013C018B
:202C200010922B030E941410DC01CB0184199509A609B709803D9740A105B10508F083CF71
:202C4000002379F180CFDF92CF920E943E060F900F9083CF0E9414106093680370936903BD
:202C600080936A0390936B039F928F920E943E06809106020F900F90081739F11F920F9318
:202C80001F928F9382E496E09F938F930E943E06009306020F900F900F900F900F900F90F6
:202CA00014C080916C0384FD0E940211A89580912A038770833009F0B5CF01E080912B03C8
:202CC000893109F4AFCF00E0ADCF0E941410609368037093690380936A0390936B03A8EC2B
:202CE000B6E0BF93AF930E943E060E9414107370882799270E94DA0FF090060200E028E0B1
:202D000043E06FEF812F0E94E70A6F2D0E947D1A0E947B060F900F90D2CAA1EAB6E0BF93AA
:202D2000AF930E943E0686E293E00E947B060F900F903B85333009F4C2CA80910502E81271
:202D4000BECA45CD80916C0382FF76C00E94141020916103222309F46FC0009175031091AC
:202D6000760320917703309178036B017C01C01AD10AE20AF30A45EFC41641E0D406E104FE
:202D8000F10408F459C02091790321110BC089EF94E09F938F930E943E06109261030F9034
:202DA0000F904AC021502093790360937503709376038093770390937803B0905903C090CC
:202DC0005A03D0905B0310915C03E0907A03F0907B0381E0E81AF108FF92EF921F93DF925C
:202DE000CF92BF9284ED94E09F938F930E943E0600E022E044E06FEF80E00E94E70AFC01AE
:202E0000838187708063838384818F71806C8483B782C086D1861287F486E386CF010E9412
:202E200095070FB6F894DEBF0FBECDBF05C03B85333009F0CCCC43CA2D960FB6F894DEBF78
:202E40000FBECDBFDF91CF911F910F91FF90EF90DF90CF90BF90AF909F908F907F906F9033
:202E60005F904F903F902F9008952F923F924F925F926F927F928F929F92AF92BF92CF929E
:202E8000DF92EF92FF920F931F93CF93DF93CDB7DEB7A9970FB6F894DEBF0FBECDBF0E9445
:202EA0006E0E5DEA652E52E0752E8CE291E0909301038093000383E890E00E94D0298C01C8
:202EC00087E491E0D8018D939D936D01CD010E9467054801B3E28B0E911CC4010E946705AC
:202EE000F801E65BFF4FFBA3EAA387E190E091838083C801845B9F4F9DA38CA380E390E058
:202F0000ACA1BDA18D939C93349623E931E0318320833296AA24A394B12CB182A0823296B2
:202F20001182108232961082319611821082329672E0472E512C51824082329684E090E0E9
:202F40009183808332968FEF9FEF91838083329640E050E060E87FEB408351836283738333
:202F60003496408351836283738334964083518362837383349631832083329691838083D9
:202F80003296408351836283738334963183208332969183808398012C5B3F4FF90171825C
:202FA00060827801F8E4EF0EF11CD701AD92BC92F801EA5BFF4FFFA3EEA385E090E09183C3
:202FC0008083CE01019628A739A70E946705332433943F82E0E32E2E2E8281E2FE013196F4
:202FE000D60101900D928A95E1F7D701DC90CE0101960E946705DF822E8281E2FE013196E1
:20300000D40101900D928A95E1F78FE090E00E94D029FC0128A539A5D901CD90DC9013825A
:20302000128214821582168217821086118612861386148615863686D182C082D801AB58DE
:20304000BF4F8D939C938FE090E00E94D029FC0113821282148215821682178210861186E8
:2030600012861386148615863686D182C082D801A958BF4F8D939C93F801E758FF4FB182A9
:20308000A08232961182108232961082319610823196118210828FE090E00E94D029FC010B
:2030A000138212821482158216821782108611861286138614861586368671826082D8018C
:2030C000AF57BF4F8D939C9383E691E0F8019183808383E090E0AAA1BBA18D939C93ECA14D
:2030E000FDA15182408282E0D80117968C93F701808191810B9784F58FE399E00E94200BB8
:20310000D7018D919C910E944B0D8BE399E00E94200BEEA1FFA1808191810E944B0D87E338
:2031200099E00E94200BAAA1BBA18D919C910E944B0D83E399E00E94200BECA1FDA1808185
:2031400091810E949F0DD701ED91FC91EE0FFF1FE355FD4F12AF01AF86E899E00E94200B68
:2031600080EA91E00E94120B809103039091040397FD14C084EA91E00E944F0B809103031C
:20318000909104030E949F0D61E0809103030E949E0F61E0809103030E94960E8FE799E085
:2031A0000E94200B8BEA91E00E944F0B8BE799E00E94200B81EB91E00E944F0B87E799E0E8
:2031C0000E94200B83EB91E00E944F0B83E799E00E94200B85EB91E00E944F0B8FE699E0CC
:2031E0000E94200B87EB91E00E944F0B8BE699E00E94200B83EB91E00E944F0B87E699E0AB
:203200000E94200B83EB91E00E94120B8DE991E00E94B5338130D9F582EA91E00E94B533EC
:20322000182F83EA91E00E94B533082F84EA91E00E94B53341E05EEFB82FB49FC001B59F82
:20324000900D1124EFEF0E9F800D911D1124810F911D092E000CAA0BBB0B8093D00290939D
:20326000D102A093D202B093D3028CE599E00E94200B6091D0027091D1028091D202909108
:20328000D3020E94210D81E991E00E94000B08EE12E0D8018D919C910097D9F0FC01EB5855
:2032A000FF4F80819181FC012585211108C0609100037091010340E050E00E94D527D8014C
:2032C0008D919C91DC01ED91FC910190F081E02D09950E5F1F4FB2E00C3F1B07D1F680915C
:2032E000D4029091D50297FD1DC08330910569F482E090E09093DB028093DA0281E090E057
:203300009093DF028093DE020DC08230910551F49093DD028093DC0281E090E09093E10292
:203320008093E0028091DA029091DB028F3F910549F160E083E00E949E0F6091DE0270914B
:20334000DF0277FD03C083E00E94960E8091CE029091CF020197B1F08091DA029091DB02B5
:203360002CE634E230931C0120931B0120916900880F991F880F991F922F937F892B809324
:203380006900E99A8091DC029091DD028F3F910511F160E082E00E949E0F6091E002709127
:2033A000E10277FD03C082E00E94960E8091CE029091CF02019779F09091DC0225E234E25B
:2033C00030931A0120931901809169008C7F892B80936900E89A85E599E00E94200B83E0F8
:2033E00090E00E944B0D81E599E00E94200B8091DA029091DB020E949F0D8AE499E00E94F5
:20340000200B82E090E00E944B0D86E499E00E94200B8091DC029091DD020E949F0DA99689
:203420000FB6F894DEBF0FBECDBFDF91CF911F910F91FF90EF90DF90CF90BF90AF909F908C
:203440008F907F906F905F904F903F902F9008958F929F92AF92BF92CF92DF92EF92FF927E
:203460006B017C010E9414104B015C010E941410DC01CB0188199909AA09BB098C159D0588
:20348000AE05BF0520F4A8950E947C05EFCFFF90EF90DF90CF90BF90AF909F908F9008952E
:2034A000FC01962F8091040281836481607F262F216088E0989FB0011124622B648380918B
:2034C000580380FF03C0CF010C9495078DE298E09F938F930E943E060F900F9080E00895E7
:2034E000FC0184818F7180648483838187708061838370876783CF010895FC0183818770B7
:203500008860838384818F71806284836783CF0108950F931F93CF93DF93EC016115710577
:2035200061F0FB0101900020E9F73197E61BF70BE931F10518F0E9E101C0E0E00E2F10E052
:20354000C80123E0880F991F2A95E1F79B819770892B8B838C818F718C83EE2329F0A801E5
:20356000CE0107960E94C135FE01E00FF11F1782CE01DF91CF911F910F9108950F93CF9320
:20358000DF938F3F11F0EA0102C0CBEAD1E0022F262F40E0682F80E00E94E70ABE010E9446
:2035A000891ADF91CF910F910C9495070F93CF93DF93C5E0D3E08B81877080658B838C81EB
:2035C0008871846C8C8388E0E9E5F3E0ACE0B3E001900D928A95E1F783E090E0988B8F8798
:2035E0001092610300E020E044E06FEF80E00E94E70A0E9495072FE043E06FEF80E00E94A0
:20360000E70A63E971E00E94891A8B81877080618B838C818F71806C8C8381E08F831886CC
:20362000CE010E9495078FE00E94201020E043E951E062E18FEF0E94BE1AC091050226E046
:2036400043E06FEF80E00E94E70A6C2F0E947D1A0E94950786E00E942010DF91CF910F913C
:203660000C94271E0F93CF938091580381FD28C00E94D61A80E298E09F938F930E943E06E9
:20368000809158038160809358030F900F90C4E000E02AE143E06FEF80E00E94E70A62E0EC
:2036A0000E947D1A0E9495078BE10E942010811102C0C15069F780915803826080935803D4
:2036C000CF910F910895EF92FF920F931F93CF93DF9300D000D000D0CDB7DEB78C018DEE82
:2036E00099E00E94200BD80111968C910E94510D89EE99E00E94200BF80186810E94510D2A
:2037000085EE99E00E94200BD80114968C9187700E94510D81EE99E00E94200BF8018581A5
:203720000E94510D8DED99E00E94200BD80114968C9182958695877019F4C801079602C0CB
:2037400080E090E00E94120BD8011696EC911697E83C09F053C114968C911497982F9770BA
:20376000923009F05EC115969C91903309F059C182958695877009F03EC1B801695F7F4F51
:20378000CE0101960E941D27EB80FC80F7013197E732F10508F045C1EC5CFF4F0C94663459
:2037A000CE0101960E94262229C0CE0101960E9426222CE3FC012E9FC0012F9F900D112446
:2037C0001DC0CE0101960E94262220E13EE0AC01429FC001439F900D529F900D11240EC03E
:2037E000CE0101960E94262220E831E5DC01A29FC001A39F900DB29F900D1124009729F4C6
:203800001092CF021092CE0206C021E030E03093CF022093CE02092E000CAA0BBB0B809304
:20382000D0029093D102A093D202B093D3020E94580DD9C086ED99E00E94410B8091030310
:203840009091040397FD04C060E00E94960EE9C08091600088618093600088E08093600011
:20386000FFCF80ED99E00E94410B00E010E0C80199276FEF83569E4F0E94CD330F5F1F4FAB
:203880000D39B1E01B0799F7AEC060EA71E08DEA92E00E94891AACC089EC99E00E94410B20
:2038A0001092CF021092CE029EC0CE0101960E9426229093D9028093D80295C0CE010196CF
:2038C0000E9426229093D5028093D4028CC0CE0101960E9426229093D7028093D60283C055
:2038E000CE0101960E94262221E0892B09F420E02093FC0278C0CE0101960E94262221E08C
:2039000030E0892B11F420E030E03093FF022093FE0269C0CE0101960E942622682F81E0E6
:2039200092E00E94CD335FC0CE0101960E942622092E000CAA0BBB0B8093270190932801BF
:20394000A0932901B0932A014EC0CE0101960E94262221E0892B09F420E02093020343C0D1
:20396000CE0101960E94262290930403809303033AC080917A008F7780937A0080E880BFF5
:2039800032C0CE0101960E94262229C0CE0101960E9426222CE3FC012E9FC0012F9F900DA7
:2039A00011241DC0CE0101960E94262220E13EE0AC01429FC001439F900D529F900D1124F5
:2039C0000EC0CE0101960E94262220E831E5DC01A29FC001A39F900DB29F900D11249093A7
:2039E000010380930003B7018DEA92E00E94701A0E94E90D16C060E070E0C2CEEB3088F4BB
:203A0000F0E0EE0FFF1FE355FD4F81AD92AD009741F0DC01ED91FC910284F385E02DB80156
:203A2000099526960FB6F894DEBF0FBECDBFDF91CF911F910F91FF90EF900895CF93DF9346
:203A40008091FD02882339F08091570390E09093FF028093FE0284EB99E00E94200B8091AA
:203A600004020E94510D80EB99E00E94200B8091FE029091FF020E949F0DC8EED2E089918C
:203A80009991009739F0DC01ED91FC910480F581E02D0995B2E0CC3FDB0789F7DF91CF91E0
:203AA0000895EF92FF920F931F93CF93DF93CDB7DEB7A5970FB6F894DEBF0FBECDBFCE01C4
:203AC00001960E94670508EE12E0EE24EA94FE2CD8018D919C910097D9F020912501309183
:203AE00026012F3FBFEF3B0749F0FC01ED58FF4F408151814217530759F418C0DC01ED91B2
:203B0000FC910680F781E02DBE016F5F7F4F09950E5F1F4FB2E00C3F1B07D1F68091CE0292
:203B20009091CF02019709F085C019C0DC01ED91FC910084F185E02D0995F801808191814B
:203B4000DC01ED91FC910680F781E02DBE016F5F7F4F0995F0922601E0922501D9CF82EC22
:203B600099E00E94200B6091D0027091D1028091D2029091D3020E94210D80EC99E00E9436
:203B8000410B83E991E00E94120BE091DA02F091DB02EF3FF10509F04AC0FF24FA94009129
:203BA000DC021091DD020F3F110511F0E12C02C0EE24EA942091D0023091D1024091D20227
:203BC0005091D302A8EEB3E00E94DF3311271F930F931F92EF92FF27FF93EF931F92FF9218
:203BE0001F9221E02F939F938F937F936F932DE734E03F932F936AA37BA38CA39DA30E94F1
:203C00003E062FE634E03F932F930E943E066AA17BA18CA19DA10E94281A8AEB99E00E94B7
:203C2000410B0FB6F894DEBF0FBECDBF03C0FF24F394B5CFA5960FB6F894DEBF0FBECDBF7E
:203C4000DF91CF911F910F91FF90EF9008950F93CF93DF9387EA99E00E94410B6091D60282
:203C60007091D7021616170634F4072E000C880B990B0E94B10D00E02BE043E06FEF80E055
:203C80000E94E70A69EB71E00E94891A0E9495072CE043E06FEF80E00E94E70A69EC71E043
:203CA0000E94891A0E94950789E999E00E94200B88EC90E00E944B0D84E999E00E94200B38
:203CC00087E190E00E949F0D6091D6027091D7021616170634F4072E000C880B990B0E9490
:203CE000B10D2091FC0243E951E067E188EC0E94BE1AC8EED2E088819981892BB1F06091F3
:203D0000D6027091D7021616170634F4072E000C880B990B0E94B10D88819981DC01ED912A
:203D2000FC910280F381E02D09952296B2E0CC3FDB0709F781EA99E00E94410B83E991E06F
:203D4000DF91CF910F910C94120BDC01ED91FC910688F789E02D0994FC01EA5BFF4F208165
:203D600031812F3F3F4F39F0DC01ED91FC910684F785E02D09940895FC01EA5BFF4F208106
:203D800031812F3F3F4F39F0DC01ED91FC910484F585E02D09940895EF92FF920F931F93B5
:203DA000CF93DF93EC0189EF99E00E94200B8E01085B1F4FF801808191810E944B0D85EFAA
:203DC00099E00E94200B7E01FAE4EF0EF11CF701808191810E949F0DFE01EC5BFF4F0190B8
:203DE000F081E02DE15BFF4FC25BDF4F488159812081F7016081F8018081DF91CF911F91D9
:203E00000F91FF90EF900C94BE1ACF92DF92EF92FF920F931F93CF93DF93EB0100E010E0B4
:203E20008C5B9F4F6C017B0187E0E80EF11CD601ED91FC9183A594A5081719070CF06BC0B1
:203E400061A572A51616170634F4072E000C880B990B0E94B10D89E19AE00E94200B8A8140
:203E60000E94510D85E19AE00E94200B8E810E94510D81E19AE00E94200B8C8187700E9437
:203E8000510D8DE09AE00E94200B8D810E94510D89E09AE00E94200B8C818295869587701C
:203EA00011F4C70102C080E090E00E944F0B85E09AE00E94200BCE010E9454050E944B0D37
:203EC00081E09AE00E94200B9C81929596959770973029F46F81788589859A8509C091115B
:203EE00004C0C7010E94FD2A03C060E070E0CB0142E00E944D0C81E991E00E94000BD601D2
:203F0000ED91FC91E15BFF4F6081CE010E94501A0F5F1F4F8CCFDF91CF911F910F91FF906A
:203F2000EF90DF90CF9008952F923F924F925F926F927F928F929F92AF92BF92CF92DF926B
:203F4000EF92FF920F931F93CF93DF93CDB7DEB72A970FB6F894DEBF0FBECDBFFC01EA5BC4
:203F6000FF4F208131812F3F3F4F09F456C28B019A8789870E940B2781112CC0E984FA8495
:203F800085E7E80EF11CD701ED91FC91858581110BC0E985FA85E958FF4F80819181FC01DC
:203FA0002585211112C016C08485882391F3D684CF010E949827D7018D919C910E94762758
:203FC0008111E7CFD110E5CF28C2FC01248521110E949827C12CD12C412C512C320129852C
:203FE0003A85205B3F4F3A83298389859A858B5A9F4F5C01A985BA85AF59BF4FBC83AB8343
:20400000E985FA85E35AFF4FFE83ED8329853A85255A3F4F38872F8329843A8432E5230E99
:20402000311C89849A8444E4840E911CE981FA81E080F180CE14DF040CF056C0B80189854D
:204040009A850E940B27A985BA85ED91FC911197882339F00288F389E02DB801CD01099541
:2040600006C00088F189E02D89859A850995F50180819181009769F4AF81B8856D917C912B
:20408000072E000C880B990B0E9485329B01AC0112C08130910539F4ED81FE812081318180
:2040A0004281538108C0029761F4AB81BC812D913D914D915C91C301B2010E9481342B01F9
:2040C0003C01F10140815181141615064CF4052E000C660B770BD4018D919C910E94082677
:2040E000BFEFCB1ADB0AA2CFD5018D919C910097A9F520E030E040E85FEBC301B2010E94E6
:20410000953518160CF0C6C0B701FF0C880B990B0E9485329B01AC01C301B2010E94ED344F
:204120000E945F356B017C01B80189859A850E940B27E985FA85E559FF4F5F018111E4C097
:2041400061E080819181C816D90609F460E089859A850E94E6268111D7C09CC0813091056A
:20416000D9F520E030E040E85FEBC301B2010E94953518160CF08EC0B701FF0C880B990B9A
:204180000E9485329B01AC01C301B2010E94ED346B017C01B80189859A850E940B272985F2
:2041A0003A8523593F4F59018111C5C099249394D9012D913D914D915C91C701B6010E948F
:2041C0007E32811101C0912C692D89859A850E94E6268111B0C05EC0029709F05BC020E0E1
:2041E00030E040E85FEBC301B2010E94953518167CF5B701FF0C880B990B0E9485329B01CC
:20420000AC01C301B2010E94ED346B017C01B80189859A850E940B27E985FA85EB59FF4F95
:204220005F018111B0C0992493942081318142815381C701B6010E947E32811101C0912C6D
:20424000692D89859A850E94E62681119CC022C0B80189859A850E940B2729853A852F586F
:204260003F4F6901A985BA85A759BF4F7D018111BEC0F901608171818D919C910E94B1359D
:2042800061E0892B09F460E089859A850E94E6268111ADC0B80189859A850E940B278111C6
:2042A000BCC0E985FA85EB58FF4F00811181D8011D968C911D97882309F4AFC01C968C91AE
:2042C000882309F4AAC0C8010E947627882309F4A4C0C8012A960FB6F894DEBF0FBECDBFE8
:2042E000DF91CF911F910F91FF90EF90DF90CF90BF90AF909F908F907F906F905F904F900A
:204300003F902F900C94E625F501D182C082B60189859A8502960E94701ABC0189859A8547
:204320000E94051F8FEF9FEFE985FA85E55AFF4F91838083AFCFD501CD92DD92ED92FC92EB
:204340001397E985FA85E95AFF4F9081E985FA8585818770886285838681806E8683C18603
:20436000D286E386F4869587BF016E5F7F4FCF010E94051F80E090E0A0E8BFEBE985FA8506
:20438000E35AFF4F2FC0F501C082D182E282F382E985FA85E75AFF4F9081A985BA8515969A
:2043A0008C9115978770886215968C93159716968C911697806E16968C931697FD01C186BC
:2043C000D286E386F4869587BD016E5F7F4FCD010E94051F80E090E0A0E8BFEBE985FA85AA
:2043E000EF59FF4F80839183A283B38353CFD7016D917C91F6017183608389859A8502961D
:204400000E94891ABC0189859A850E94051F83E991E0D7018D939C933DCF2A960FB6F89486
:20442000DEBF0FBECDBFDF91CF911F910F91FF90EF90DF90CF90BF90AF909F908F907F909F
:204440006F905F904F903F902F900895FC01848195810C94012B8F929F92AF92BF92CF923B
:20446000DF92EF92FF920F931F93CF93DF9300D000D000D0CDB7DEB7DB0116962C9130E0B3
:204480004C01B8E48B0E911CF401408151812417350709F0E6C07B018C01DB0114968C91A3
:2044A0001497982F977034966F019230E1F415969C919033C1F482958695877009F0CEC0B2
:2044C000B701695F7F4FCE0101960E941D27AB80BC80F4E6AF16B1040CF0B4C0F501319759
:2044E000E531F105A0F0F701858190E0D6012D913C918217930709F0B4C0D801ED91FC91CC
:204500000680F781E02DB701C8010995AAC0E55AFF4F0C946634CE0101960E942622F801F7
:20452000EA5BFF4F83C0CE0101960E942622D4018D939C937DC0CE0101960E942622F601AD
:2045400080839183D80117968C9372C08D819E81F801E25BFF4F6AC0CE0101960E94262242
:20456000F801E05BFF4F62C0CE0101960E942622F801EE5AFF4F5AC0CE0101960E9426224E
:20458000F801EC5AFF4F21E0892B09F420E020834FC0CE0101960E94262241E050E036C093
:2045A000CE0101960E942622F801EB5AFF4F3EC0CE0101960E942622F801E95AFF4F36C051
:2045C000CE0101960E94262241E050E014C0CE0101960E94262240E050E00DC0CE01019693
:2045E0000E94262242E050E006C0CE0101960E94262243E050E0BC01F801EB58FF4F0AC005
:20460000CE0101960E94262242E050E0BC01F801E958FF4F808191810E94D52709C0CE016A
:2046200001960E942622F801E75AFF4F91838083B501C80183960E94701ABC01C8010E946E
:20464000051F51CFD801ED91FC910488F589E02DBE016F5F7F4FC801099545CF60E070E0B5
:2046600032CF26960FB6F894DEBF0FBECDBFDF91CF911F910F91FF90EF90DF90CF90BF90EB
:20468000AF909F908F900895089580E090E00895FC01538D448D252F30E0842F90E0821B14
:2046A000930B541710F0CF96089501970895FC01918D828D981761F0828DDF01A80FB11D1C
:2046C0005D968C91928D9F5F9F73928F90E008958FEF9FEF0895FC01918D828D981731F0CA
:2046E000828DE80FF11D858D90E008958FEF9FEF0895FC01918D228D892F90E0805C9F4F22
:20470000821B91098F739927089588E092E00E94792321E0892B09F420E0822F0895FC01EE
:20472000848DDF01A80FB11DA35ABF4F2C91848D90E001968F739927848FA689B7892C9320
:20474000A089B1898C9180648C93938D848D981306C00288F389E02D80818F7D8083089574
:20476000EF92FF920F931F93CF93DF93EC0181E0888F9B8D8C8D981305C0E889F9898081F5
:2047800085FD24C0F62E0B8D10E00F5F1F4F0F731127E02E8C8DE8120CC00FB607FCFACFF3
:2047A000E889F989808185FFF5CFCE010E948F23F1CF8B8DFE01E80FF11DE35AFF4FF082C1
:2047C0000B8FEA89FB898081806207C0EE89FF896083E889F98980818064808381E090E010
:2047E000DF91CF911F910F91FF90EF900895CF93DF93EC01888D8823C9F0EA89FB898081BC
:2048000085FD05C0A889B9898C9186FD0FC00FB607FCF5CF808185FFF2CFA889B9898C910D
:2048200085FFEDCFCE010E948F23E7CFDF91CF91089580E090E0892B29F00E948523811179
:204840000C940000089508950895CF92DF92EF92FF920F931F930E9414106B017C018091E9
:20486000A5029091A602A091A702B091A80297018601081B190B2A0B3B0B40912701509148
:2048800028016091290170912A0140175107620773072CF0C816D906EA06FB06B4F482E042
:2048A00090E0909326018093250188E39AE00E94200B82E090E00E949F0DC092A502D092D8
:2048C000A602E092A702F092A8021F910F91FF90EF90DF90CF900895CF92DF92EF92FF923C
:2048E0000F931F930E9414106B017C018091A9029091AA02A091AB02B091AC029701860140
:20490000081B190B2A0B3B0B40912701509128016091290170912A014017510762077307F9
:204920002CF0C816D906EA06FB06B4F483E090E0909326018093250181E39AE00E94200B04
:2049400083E090E00E949F0DC092A902D092AA02E092AB02F092AC021F910F91FF90EF907E
:20496000DF90CF900895EF92FF920F931F93CF93DF938C01EB01FC01E758FF4F808191817C
:20498000892B51F46130710529F0209729F4C1E0D0E002C0C0E0D0E0780186E4E80EF11CE1
:2049A0006C2FF70180810E94960E89E29AE00E94200BF801E85BFF4F808191810E944B0DD4
:2049C00085E29AE00E94200BF701808191810E944B0D81E29AE00E94200BCE01DF91CF91DB
:2049E0001F910F91FF90EF900C949F0D0F931F93CF93DF93EC01CB01FB01028113810936DA
:204A0000110509F16CF407361105B9F00836110509F050C00E942622FE01E358FF4F35C066
:204A20000A36110569F10B36110509F043C00E942622FE01E158FF4F2EC00E942622FE012C
:204A4000E758FF4F28C00E942622FE01EF57FF4F0190F081E02D1482158216821782108661
:204A60001186128613862CE3AC01249FC001259F900D112493838283148681E085870DC0A9
:204A80000E942622FE01E258FF4F21E0892B09F420E0208302C091838083B801CE018396D6
:204AA0000E94701ABC01CE01DF91CF911F910F910C94051FDF91CF911F910F910895FF920C
:204AC0000F931F93CF93DF93EC01FC01EA5BFF4FF08061E08F2D0E949E0FFE01E758FF4FE9
:204AE00061E080819181892B09F060E08E0105581F4F862F90E0F801918380838F2D0E9488
:204B0000960EC55ADF4FF8018081918199838883DF91CF911F910F91FF9008951F920F92D3
:204B20000FB60F9211242F933F934F935F936F937F938F939F93AF93BF93EF93FF9388E0FA
:204B400092E00E948F23FF91EF91BF91AF919F918F917F916F915F914F913F912F910F9090
:204B60000FBE0F901F9018951F920F920FB60F9211242F938F939F93EF93FF93E0911802CB
:204B8000F09119028081E0911E02F0911F0282FD12C09081809121028F5F8F7320912202EA
:204BA000821751F0E0912102F0E0E85FFD4F958F8093210201C08081FF91EF919F918F91A8
:204BC0002F910F900FBE0F901F901895CF93DF93EC011C861C821D821E821F821886198690
:204BE0001A861B86E881F98181A192A1019731F48D85882351F081E08C8707C00E94141080
:204C0000688779878A879B87F3CFDF91CF910895FC01CB01BA0121A132A12130310529F486
:204C2000EB5AFF4F2081211102C00C94281A693C710581059105CCF30C94B10D0F931F93C2
:204C4000CF93DF93EC018B01FC01E258FF4F80818823C1F06115710531F433960190F08149
:204C6000E02D14861EC061307105D9F441E050E061E070E0FE01EF57FF4F808191810E94B1
:204C8000D5270FC06130710561F4FE01EF57FF4F0190F081E02D8585882319F084858823D9
:204CA00039F1E881F981008CF18DE02DB801CE010995FE01E158FF4F40815181141615064C
:204CC0004CF4052E000C660B770BFB97808191810E940826FE01E558FF4F11830083C55A2D
:204CE000DF4F19830883DF91CF911F910F91089581E08487D6CF0F931F93CF93DF93EC017C
:204D00008B01FB0194819770913039F4FE01E358FF4F8081811110C008C0923069F4FE0130
:204D2000E358FF4F8081882339F0C8010E945405BC01CE010E941E26F80184818770823038
:204D400069F4FE01E358FF4F8081811107C0B297C558DF4F8881998191838083DF91CF9176
:204D60001F910F9108950F931F93CF93DF93FC01E55AFF4F2FEF3FEF318320837096318337
:204D800020838C010F571F4FD801ED91FC9125852223B9F024852223A1F0EC01CF010E94B5
:204DA0009827F801808191810E947627882349F060E070E0CE01DF91CF911F910F910C94E6
:204DC0001E26DF91CF911F910F9108950F931F93CF93FC01EC5AFF4FC081CC23B1F0611148
:204DE00015C0B39600811181F801C585CC2371F0C485CC2359F0C8010E947627C82F8823C4
:204E000029F0C8010E94E62501C0C1E08C2FCF911F910F910895FB01818181110CC0868136
:204E2000811109C08481877031F481E09581911103C080E0089581E008950F931F93CF9369
:204E4000DF93CDB7DEB72C970FB6F894DEBF0FBECDBF8C01CE0101960E94BA35AE01455FE6
:204E60005F4F6DEC71E0CE0101960E94462BCE0101960E94012BF801938382836B857C8528
:204E8000848195810E94BA358BE49AE00E94200BF801828193810E944B0D87E49AE00E941F
:204EA000200BC8010E9426220E944B0D83E49AE00E94200BF801848195810E94FD2A42E06D
:204EC0000E944D0C8FE39AE00E94200BF801848195810E94120B2C960FB6F894DEBF0FBECE
:204EE000CDBFDF91CF911F910F9108950F931F93FC0185858823C9F084858823B1F0448190
:204F000055816681778102811381012E000C220B330B40175107620773073CF4442777FD7E
:204F20004395552766277727842F1F910F9108950F931F93CF93DF93EC018D85882381F10E
:204F40008C85882369F1E881F98181A192A1019791F44C815D816E817F8183A194A1A5A1AD
:204F6000B6A1840F951FA61FB71F8C839D83AE83BF831E8615C00E941410088519852A853D
:204F80003B85601B710B820B930B28EE33E040E050E00E9444342C833D834E835F83E9CFC2
:204FA000DF91CF911F910F910895FC011482158216821782108611861286138641305105B4
:204FC00039F42CE3269FC001279F900D112415C04230510519F420E13EE008C0433051051D
:204FE00019F0738362830BC020E831E5629FC001639F900D729F900D11249383828381E024
:205000008587848708951F93CF93DF93CDB7DEB7A1970FB6F894DEBF0FBECDBFE8E0F2E024
:205020001382128288EE93E0A0E0B0E084839583A683B78385E391E09183808385EC90E0FB
:205040009587848784EC90E09787868780EC90E0918B808B81EC90E0938B828B82EC90E035
:20506000958B848B86EC90E0978B868B118E128E138E148E0E9414106093A9027093AA0257
:205080008093AB029093AC020E9414106093A5027093A6028093A7029093A802E7E4F3E04D
:2050A00080E5858311E0168388E0808385E69FE19283818386E293E00E94670585E093E0C9
:2050C0000E9467058DEA92E00E946705EDEAF2E012A211A213A214A215A216A28FEF9FEFD5
:2050E00090A787A312A611A621E030E034A723A74FEF50E056A745A750AB47A792AB81AB81
:2051000094AB83AB4FEF5FEFBA0145AB56AB67AB70AF46E1E6EEF2E0DF011D924A95E9F79E
:205120001092FC021093FD023093FF022093FE0228E532E030930103209300031093020372
:205140009093040380930303CE0101960E94670588EC8F8380E38E8381E2FE013196ADEADE
:20516000B2E001900D928A95E1F7A1960FB6F894DEBF0FBECDBFDF91CF911F9108957894CF
:2051800084B5826084BD84B5816084BD85B5826085BD85B5816085BD80916E00816080932A
:2051A0006E00109281008091810082608093810080918100816080938100809180008160DD
:2051C000809380008091B10084608093B1008091B00081608093B00080917A0084608093EB
:2051E0007A0080917A00826080937A0080917A008E7F80937A0080917A00806880937A0016
:205200001092C100A89580E090E0892B11F00E9400000E946E0E00E110E0F12CF801F59538
:20522000E795E55BF74FE49100FFE295EF70E83008F093C0F0E0E55BF74FF490C1E0D0E094
:205240008F2D0E94420CDF5FDC13FACF0F5F1F4F023F110519F784E498E00E94410B86E035
:2052600099E09F938F930E943E06809158038D7F809358030F900F9089EF98E09F938F9313
:205280000E943E060E9435170F900F9041E050E063E071E087E593E00E94A53348E050E066
:2052A0006BE171E089E593E00E94A5336FEF81E090E00E94CD3380916D038F7880936D031A
:2052C000109263031092620381E291E00E949F0582E39BE190937D0380937C031F921F922D
:2052E0001F921F9284EC98E09F938F930E943E060E9414100F900F900F900F900F900F90AA
:205300000E9414100E947C05A89580916C0382FFF7CF8CEE98E09F938F930E943E060E94D2
:205320001E1D0F900F9080916C0382FB882780F91F928F9384ED98E09F938F930E943E06D9
:20534000A8950F900F900F900F90A8950E947C050E94511D0E941924F8CFCBEFCE0F6FCFA9
:20536000EF920F931F93CF93DF93E80147FD02C034E001C034E1E42F440FFF0BF7FF03C082
:20538000F195E195F109E32E022F2E2FAE010E94DE2DCE01DF91CF911F910F91EF90089511
:2053A000CF93DF938230910510F482E090E0E0918003F091810320E030E0C0E0D0E03097DB
:2053C00011F14081518148175907C0F04817590761F482819381209719F09B838A832BC0C8
:2053E000909381038093800326C02115310519F04217530718F49A01BE01DF01EF010280AA
:20540000F381E02DDCCF2115310509F1281B390B2430310590F412968D919C911397611552
:20542000710521F0FB019383828304C09093810380938003FD01329644C0FD01E20FF31F02
:2054400081939193225031092D933C933AC020917E0330917F03232B41F420912D01309147
:205460002E0130937F0320937E0320912B0130912C012115310541F42DB73EB740912F013E
:2054800050913001241B350BE0917E03F0917F03E217F307A0F42E1B3F0B2817390778F085
:2054A000AC014E5F5F4F2417350748F04E0F5F1F50937F0340937E038193919302C0E0E0E7
:2054C000F0E0CF01DF91CF9108950F931F93CF93DF93009709F48CC0FC01329713821282C8
:2054E00000918003109181030115110581F420813181820F931F20917E0330917F03281788
:20550000390779F5F0937F03E0937E0371C0D80140E050E0AE17BF0750F412962D913C9188
:205520001397AD012115310509F1D901F3CF9D01DA013383228360817181860F971F821786
:20554000930769F4EC0128813981260F371F2E5F3F4F318320838A819B8193838283452B55
:2055600029F4F0938103E093800342C01396FC93EE931297ED01499159919E01240F351FD5
:20558000E217F30771F480819181840F951F029611969C938E938281938113969C938E93BA
:2055A0001297E0E0F0E0D80112968D919C911397009719F0F8018C01F6CF8D919C9198016D
:2055C0002E5F3F4F820F931F20917E0330917F032817390769F4309729F410928103109270
:2055E000800302C01382128210937F0300937E03DF91CF911F910F910895662777270C947C
:205600006C2FFC0188279927E89421912032E9F3293010F02E30C8F32B3241F02D3239F49B
:20562000689404C00E949C2B820F911D219120532A30C0F31EF4909581959F4F08951F9346
:20564000FC0199278827BC01E89411911032E9F3193010F01E30C8F31B3251F01D3249F479
:20566000689406C00E94872B610F711D811D911D119110531A30B0F33EF490958095709567
:2056800061957F4F8F4F9F4F1F910895FA01A191B081009719F41097E1F0CD01DC01CD013A
:2056A0000D90002011F4C00113C0FB012191222319F02015D9F7F3CFFB012191201519F4E1
:2056C0001E92119606C02223C1F70D900020A1F7D001FA01A193B0830895BB274A3031F40A
:2056E000992322F4BDE2909581959F4F0C94C72BBB272A3051F4992342F4BDE29095809532
:20570000709561957F4F8F4F9F4F0C94A52B592F482F372F262F660F771F881F991F660FEB
:20572000771F881F991F620F731F841F951F660F771F881F991F08957AE0979F902D879FA0
:20574000802D910D11240895BB27FA01A62F6217710581059105330B30FB66F0AA27660F6A
:20576000771F881F991FAA1FA21710F0A21B63953850A9F7A05DAA3308F0A95DA19336F79C
:20578000B111B1931082CA010C94D831BB27FB015527AA27880F991FAA1FA41710F0A41B40
:2057A00083955051B9F7A05DAA3308F0A95DA193009779F7B111B1931192CB010C94D8314F
:2057C000AEE0B0E0E6EEFBE20C94F8338C01CA014EE04C831A83098377FF02C060E070E8E1
:2057E000FB013197FE83ED83A901BC01CE0101960E940C2C4D815E8157FD0AC02F81388515
:20580000421753070CF49A01F801E20FF31F10822E96E4E00C941434ACE0B0E0E2E1FCE27F
:205820000C94EA337C016B018A01FC0117821682838181FFBDC1CE0101964C01F701938148
:20584000F60193FD859193FF81916F01882309F4ABC1853239F493FD859193FF81916F01E5
:20586000853229F4B70190E00E94E831E7CF512C312C20E02032A0F48B3269F030F480320F
:2058800059F0833269F420612CC08D3239F0803339F4216026C02260246023C0286021C0BF
:2058A00027FD27C030ED380F3A3078F426FF06C0FAE05F9E300D1124532E13C08AE0389EDB
:2058C000300D1124332E20620CC08E3221F426FD6BC1206406C08C3611F4206802C088366A
:2058E00041F4F60193FD859193FF81916F018111C1CF982F9F7D9554933028F40C5F1F4F1C
:20590000FFE3F9830DC0833631F0833771F0833509F05BC022C0F801808189830E5F1F4FD8
:2059200044244394512C540115C03801F2E06F0E711CF801A080B18026FF03C0652D70E058
:2059400002C06FEF7FEFC5012C870E94CD312C0183012C852F77222E17C03801F2E06F0EE9
:20596000711CF801A080B18026FF03C0652D70E002C06FEF7FEFC5012C870E94C2312C01BD
:205980002C852068222E830123FC1BC0832D90E048165906B0F4B70180E290E00E94E8313A
:2059A0003A94F4CFF50127FC859127FE81915F01B70190E00E94E83131103A94F1E04F1A64
:2059C00051084114510471F7E5C0843611F0893639F5F80127FF07C060817181828193813F
:2059E0000C5F1F4F08C060817181072E000C880B990B0E5F1F4F2F76722E97FF09C0909517
:205A00008095709561957F4F8F4F9F4F2068722E2AE030E0A4010E942032A82EA81844C067
:205A2000853729F42F7EB22E2AE030E025C0F22FF97FBF2E8F36C1F018F4883579F0B4C05F
:205A4000803719F0883721F0AFC02F2F2061B22EB4FE0DC08B2D8460B82E09C024FF0AC0D1
:205A60009F2F9660B92E06C028E030E005C020E130E002C020E132E0F801B7FE07C060819C
:205A80007181828193810C5F1F4F06C06081718180E090E00E5F1F4FA4010E942032A82E71
:205AA000A818FB2DFF777F2E76FE0BC0372D3E7FA51450F474FE0AC072FC08C0372D3E7EEC
:205AC00005C0BA2C372D03C0BA2C01C0B52C34FF0DC0FE01EA0DF11D8081803311F4397EF8
:205AE00009C032FF06C0B394B39404C0832F867809F0B39433FD13C030FF06C05A2CB3145F
:205B000018F4530C5B18B32CB31468F4B70180E290E03C870E94E831B3943C85F5CFB3140A
:205B200010F43B1801C0312C34FF12C0B70180E390E03C870E94E8313C8532FF17C031FDEB
:205B400003C088E790E002C088E590E0B7010CC0832F867859F031FF02C08BE201C080E205
:205B600037FD8DE2B70190E00E94E831A51438F4B70180E390E00E94E8315A94F7CFAA9482
:205B8000F401EA0DF11D8081B70190E00E94E831A110F5CF332009F451CEB70180E290E0B9
:205BA0000E94E8313A94F6CFF7018681978102C08FEF9FEF2C96E2E10C9406344F925F9281
:205BC0006F927F929F92AF92BF92CF92DF92EF92FF920F931F93CF93DF93CDB7DEB729970B
:205BE0000FB6F894DEBF0FBECDBF6A01122FB02E2BE3201720F0FF24F394F00E02C0BCE376
:205C0000FB2E0F2D27E0AE014F5F5F4F0E94C930AC018981982F9970913031F0E1FC06C066
:205C2000E0FE06C090E205C09DE203C09BE201C090E0EE2DE07183FF3CC0911102C083E0E8
:205C400001C084E0811718F4212F281B01C020E0E1110BC0F601822F30E2882319F0319338
:205C60008150FBCFC20ED11C20E0992329F0D6019C93F60131966F01C6010396E2FE0AC0B9
:205C80003EE4D6013C9341E411964C93119712963C9306C03EE6F601308341E6418332833E
:205CA000FC01322F40E2332309F442C041933150FACF82FF44C0911102C083E001C084E080
:205CC000811718F4212F281B01C020E0E1110BC0F601822F30E2882319F031938150FBCF42
:205CE000C20ED11C20E0992329F0D6019C93F60131966F01C6010396E2FE0BC039E4D601DF
:205D00003C933EE411963C93119736E412963C9307C039E6F60130833EE6318336E63283AA
:205D2000FC01322F40E2332319F041933150FBCFFC01E20FF11D10828EEF9FEFB7C0F1E084
:205D4000911101C0F0E06F2F70E01416150624F49A012F5F3F4F02C021E030E0260F371FB0
:205D6000BB2029F06B2D70E06F5F7F4F02C060E070E0260F371F612F70E0261737071CF463
:205D8000121B212F01C020E03E2D387159F4D601322F60E2332319F06D933150FBCFC20E70
:205DA000D11C20E0FF2331F0D6019C93B6016F5F7F4F6B01E1110BC0F601922F30E39923AA
:205DC00019F031939150FBCFC20ED11C20E09F2D940F3A81782F7071A72E84FF03C031335D
:205DE00009F49150191624F4993018F098E001C091E0E42F852F57FF02C0E0E080E06E2F67
:205E0000782FE0E0F0E0AEE29A2E3A01691A71082A01461A570A0B2D10E011950195110952
:205E20006F3F8FEF780729F4D6019C92C60101966C014617570784F0661677066CF47F01C2
:205E4000E40CF51CA1E0B0E0AC0FBD1FEA0EFB1ED7011196BC9002C090E3B92E6150710976
:205E60003196C60101967C016017710724F0D601BC926C01D5CF6417750741F4363320F49E
:205E8000353321F4A11002C081E3B82EF601B082F701822F90E2882319F091938150FBCF11
:205EA000F701E20FF11D108280E090E029960FB6F894DEBF0FBECDBFDF91CF911F910F9163
:205EC000FF90EF90DF90CF90BF90AF909F907F906F905F904F900895A0E0B0E0E2E7FFE2F6
:205EE0000C94EE33EC017B016115710519F0DB018D939C938E010F5F1F4F7880872D90E0D1
:205F00000E94A131892B11F0E801F4CFBDE27B1205C00F5F1F4F7980C1E008C0EBE27E1220
:205F200004C08E010E5F1F4F7980C0E06801F1E0CF1AD10843E050E068EE70E0C6010E943C
:205F4000AA31892BF1F4680122E0C20ED11C45E050E063EE70E0C6010E94AA31892B21F4A2
:205F6000680187E0C80ED11CE114F10419F0D701CD92DC92C111FFC060E070E080E89FE7E7
:205F800003C143E050E060EE70E0C6010E94AA31892B51F4E114F10409F4F2C00E5F1F4F9B
:205FA000F70111830083ECC0680160E070E0CB0100E010E0F601D0EDD70DDA3058F52C2F47
:205FC0002260622E2C2F2870C2FF05C0211128C00F5F1F4F25C0222311F001501109A5E025
:205FE000B0E09B01AC010E94DF334B015C01880C991CAA1CBB1CC501B4016D0F711D811D62
:20600000911D6839A9E97A078A07A9E19A0740F0C66005C0DE3F51F4C3FD44C0C8606C2E5F
:20602000BFEFCB1ADB0A7080C62DC4CF2D2F2F7D2531C1F540814D3211F4C06106C04B32B5
:2060400021F0319621E030E006C03296D60111964C9122E030E0A0EDA40FAA3018F0E21B3D
:20606000F30B20C040E050E04038BCE05B075CF49A01220F331F220F331F420F531F440F75
:20608000551F4A0F511D3196DF0111972C91A0EDA20FAA3048F3C4FF03C0519541955109CA
:2060A000040F151FC1FF07C0E114F10421F03197D701ED93FC930E948332C370C33019F0E2
:2060C0006B017C0106C06B017C01F7FAF094F7F8F09420E030E0A901C701B6010E947E32B5
:2060E000882309F445C017FF06C0119501951109CFEFD0E002C0C7E1D1E05E01B8E1AB1A7B
:20610000B1084601BE2DAF2D90E2E92EF12C0E151F0584F0FE012591359145915491B4016C
:206120008B2F9A2F0E94E4324B01B82FA92F0E191F09EDCF2497F594E794CA15DB0539F760
:206140006401EB2EFA2E8E2D880F8F2D881F8F3F49F020E030E0A901C701B6010E947E3252
:20616000811106C082E290E09093830380938203C701B60109C060E070E080E89FEF04C020
:2061800060E070E080EC9FE7CDB7DEB7EEE00C940A34283008F027E03327DA01990F311D36
:2061A00087FD916000966105710539F432602E5F3D9330E32A95E1F708959F3F30F08038DF
:2061C0007105610509F03C5F3C5F3D93913008F08068911DDF93CF931F930F93FF92EF925B
:2061E000192F987F9695E92F96959695E90FFF27EB58FE4F99273327EE24FF24A701E7011A
:2062000005900894079428F4360FE71EF81E491F511D660F771F881F991F0694A1F705902F
:20622000079428F4E70EF81E491F561FC11D770F881F991F661F0694A1F70590079428F4F9
:20624000F80E491F561FC71FD11D880F991F661F771F0694A1F70590079420F4490F561FDA
:20626000C71FD81F990F661F771F881F0694A9F784911095177041F0D695C795579547959C
:20628000F794E7941A95C1F7EBE1F1E068941590159135916591959105907FE27395E118D4
:2062A000F10A430B560BC90BD009C0F7E10CF11E431F561FC91FD01D7EF4703311F48A95EF
:2062C000E6CFE894015030F0080F0AF40027021708F4202F2395022F7A3328F079E37D9362
:2062E0002A95E9F710C07D932A9589F6069497956795379517951794E118F10A430B560B59
:20630000C90BD00998F023957E9173957A3308F070E37C932013B8F77E9170617D9330F080
:20632000839571E37D9370E32A95E1F71124EF90FF900F911F91CF91DF91992787FD90952B
:20634000089591110C945133803219F089508550C8F70895FB01DC014150504088F08D9185
:2063600081341CF08B350CF4805E659161341CF06B350CF4605E861B611171F3990B089511
:20638000881BFCCFFC010590615070400110D8F7809590958E0F9F1F0895FC01615070402C
:2063A00001900110D8F7809590958E0F9F1F0895DC01FC01672F71917723E1F7329704C0C9
:2063C0007C916D9370836291AE17BF07C8F308950F931F93CF93DF93FB01238121FD03C03E
:2063E0008FEF9FEF28C022FF16C046815781248135814217530744F4A081B1819D012F5F4E
:206400003F4F318320838C93268137812F5F3F4F3783268310C0EB01092F182F0084F18565
:20642000E02D0995892BE1F68E819F8101969F838E83812F902FDF91CF911F910F91089501
:20644000FA01AA27283051F1203181F1E8946F936E7F6E5F7F4F8F4F9F4FAF4FB1E03ED0A4
:20646000B4E03CD0670F781F891F9A1FA11D680F791F8A1F911DA11D6A0F711D811D911DD9
:20648000A11D20D009F468943F912AE0269F11243019305D3193DEF6CF010895462F47707A
:2064A000405D4193B3E00FD0C9F7F6CF462F4F70405D4A3318F0495D31FD4052419302D012
:2064C000A9F7EACFB4E0A6959795879577956795BA95C9F700976105710508959B01AC01DC
:2064E0000A2E06945795479537952795BA95C9F7620F731F841F951FA01D08950E94C03223
:2065000008F481E00895E89409C097FB3EF490958095709561957F4F8F4F9F4F9923A9F054
:20652000F92F96E9BB279395F695879577956795B795F111F8CFFAF4BB0F11F460FF1BC0EF
:206540006F5F7F4F8F4F9F4F16C0882311F096E911C0772321F09EE8872F762F05C0662327
:2065600071F096E8862F70E060E02AF09A95660F771F881FDAF7880F9695879597F9089520
:20658000990F0008550FAA0BE0E8FEEF16161706E807F907C0F012161306E407F50798F0E5
:2065A000621B730B840B950B39F40A2661F0232B242B252B21F408950A2609F4A140A6951B
:2065C0008FEF811D811D08950E94F7320C946B330E945D3338F00E94643320F0952311F0FF
:2065E0000C9454330C945A3311240C949F330E947C3370F3959FC1F3950F50E0551F629FBB
:20660000F001729FBB27F00DB11D639FAA27F00DB11DAA1F649F6627B00DA11D661F829FB3
:206620002227B00DA11D621F739FB00DA11D621F839FA00D611D221F749F3327A00D611DE1
:20664000231F849F600D211D822F762F6A2F11249F5750409AF0F1F088234AF0EE0FFF1F15
:20666000BB1F661F771F881F91505040A9F79E3F510580F00C9454330C949F335F3FE4F3BC
:20668000983ED4F3869577956795B795F795E7959F5FC1F7FE2B880F911D9695879597F9EB
:2066A000089599278827089597F99F6780E870E060E008959FEF80EC089500240A94161681
:2066C000170618060906089500240A9412161306140605060895092E0394000C11F4882384
:2066E00052F0BB0F40F4BF2B11F460FF04C06F5F7F4F8F4F9F4F089557FD9058440F551F40
:2067000059F05F3F71F04795880F97FB991F61F09F3F79F087950895121613061406551F54
:20672000F2CF4695F1DF08C0161617061806991FF1CF86957105610508940895E894BB27B8
:2067400066277727CB0197F90895DC01CB01FC01F999FECF06C0F2BDE1BDF89A319600B4F0
:206760000D9241505040B8F70895F999FECF92BD81BDF89A992780B50895DC01A40FB51F99
:206780004150504048F0CB01840F951F2E910E94CE3341505040D0F70895262FF999FECFF2
:2067A00092BD81BDF89A019700B4021639F01FBA20BD0FB6F894FA9AF99A0FBE08950E94F3
:2067C0002134A59F900DB49F900DA49F800D911D112408952F923F924F925F926F927F92CD
:2067E0008F929F92AF92BF92CF92DF92EF92FF920F931F93CF93DF93CDB7DEB7CA1BDB0BC5
:206800000FB6F894DEBF0FBECDBF09942A88398848885F846E847D848C849B84AA84B984E1
:20682000C884DF80EE80FD800C811B81AA81B981CE0FD11D0FB6F894DEBF0FBECDBFED0134
:206840000895A29FB001B39FC001A39F700D811D1124911DB29F700D811D1124911D08956A
:2068600097FB072E16F4009407D077FD09D00E946C3407FC05D03EF4909581959F4F08957D
:20688000709561957F4F0895A1E21A2EAA1BBB1BFD010DC0AA1FBB1FEE1FFF1FA217B30720
:2068A000E407F50720F0A21BB30BE40BF50B661F771F881F991F1A9469F7609570958095E0
:2068C00090959B01AC01BD01CF010895EE0FFF1F0590F491E02D0994AA1BBB1B51E107C0AC
:2068E000AA1FBB1FA617B70710F0A61BB70B881F991F5A95A9F780959095BC01CD010895A7
:206900005058BB27AA270E9498340C946B330E945D3338F00E94643320F039F49F3F19F4B5
:2069200026F40C945A330EF4E095E7FB0C945433E92F0E947C3358F3BA176207730784079D
